{
  "abi": [
    {
      "inputs": [
        {
          "internalType": "uint256",
          "name": "",
          "type": "uint256"
        }
      ],
      "name": "attributeOddsPerRarity",
      "outputs": [
        {
          "internalType": "uint8",
          "name": "",
          "type": "uint8"
        }
      ],
      "stateMutability": "view",
      "type": "function"
    },
    {
      "inputs": [
        {
          "internalType": "uint256",
          "name": "",
          "type": "uint256"
        }
      ],
      "name": "attributeRarities",
      "outputs": [
        {
          "internalType": "uint8",
          "name": "",
          "type": "uint8"
        }
      ],
      "stateMutability": "view",
      "type": "function"
    },
    {
      "inputs": [
        {
          "components": [
            {
              "internalType": "bytes32",
              "name": "name",
              "type": "bytes32"
            },
            {
              "internalType": "uint256",
              "name": "imgId",
              "type": "uint256"
            },
            {
              "internalType": "uint256",
              "name": "fromBlock",
              "type": "uint256"
            },
            {
              "internalType": "string",
              "name": "characterType",
              "type": "string"
            },
            {
              "internalType": "uint8",
              "name": "level",
              "type": "uint8"
            },
            {
              "internalType": "uint8",
              "name": "rarity",
              "type": "uint8"
            },
            {
              "internalType": "uint8[1]",
              "name": "attributeIds",
              "type": "uint8[1]"
            }
          ],
          "internalType": "struct IPLMData.CharacterInfo[4]",
          "name": "charInfos",
          "type": "tuple[4]"
        }
      ],
      "name": "calcLevelPoint",
      "outputs": [
        {
          "internalType": "uint8",
          "name": "",
          "type": "uint8"
        }
      ],
      "stateMutability": "pure",
      "type": "function"
    },
    {
      "inputs": [
        {
          "internalType": "uint8",
          "name": "numRounds",
          "type": "uint8"
        },
        {
          "components": [
            {
              "internalType": "bytes32",
              "name": "name",
              "type": "bytes32"
            },
            {
              "internalType": "uint256",
              "name": "imgId",
              "type": "uint256"
            },
            {
              "internalType": "uint256",
              "name": "fromBlock",
              "type": "uint256"
            },
            {
              "internalType": "string",
              "name": "characterType",
              "type": "string"
            },
            {
              "internalType": "uint8",
              "name": "level",
              "type": "uint8"
            },
            {
              "internalType": "uint8",
              "name": "rarity",
              "type": "uint8"
            },
            {
              "internalType": "uint8[1]",
              "name": "attributeIds",
              "type": "uint8[1]"
            }
          ],
          "internalType": "struct IPLMData.CharacterInfo",
          "name": "player1Char",
          "type": "tuple"
        },
        {
          "internalType": "uint8",
          "name": "player1LevelPoint",
          "type": "uint8"
        },
        {
          "internalType": "uint32",
          "name": "player1BondLevel",
          "type": "uint32"
        },
        {
          "components": [
            {
              "internalType": "bytes32",
              "name": "name",
              "type": "bytes32"
            },
            {
              "internalType": "uint256",
              "name": "imgId",
              "type": "uint256"
            },
            {
              "internalType": "uint256",
              "name": "fromBlock",
              "type": "uint256"
            },
            {
              "internalType": "string",
              "name": "characterType",
              "type": "string"
            },
            {
              "internalType": "uint8",
              "name": "level",
              "type": "uint8"
            },
            {
              "internalType": "uint8",
              "name": "rarity",
              "type": "uint8"
            },
            {
              "internalType": "uint8[1]",
              "name": "attributeIds",
              "type": "uint8[1]"
            }
          ],
          "internalType": "struct IPLMData.CharacterInfo",
          "name": "player2Char",
          "type": "tuple"
        }
      ],
      "name": "calcPower",
      "outputs": [
        {
          "internalType": "uint32",
          "name": "",
          "type": "uint32"
        }
      ],
      "stateMutability": "view",
      "type": "function"
    },
    {
      "inputs": [
        {
          "components": [
            {
              "internalType": "bytes32",
              "name": "name",
              "type": "bytes32"
            },
            {
              "internalType": "uint256",
              "name": "imgId",
              "type": "uint256"
            },
            {
              "internalType": "uint256",
              "name": "fromBlock",
              "type": "uint256"
            },
            {
              "internalType": "string",
              "name": "characterType",
              "type": "string"
            },
            {
              "internalType": "uint8",
              "name": "level",
              "type": "uint8"
            },
            {
              "internalType": "uint8",
              "name": "rarity",
              "type": "uint8"
            },
            {
              "internalType": "uint8[1]",
              "name": "attributeIds",
              "type": "uint8[1]"
            }
          ],
          "internalType": "struct IPLMData.CharacterInfo[4]",
          "name": "charInfos",
          "type": "tuple[4]"
        }
      ],
      "name": "calcRandomSlotLevel",
      "outputs": [
        {
          "internalType": "uint8",
          "name": "",
          "type": "uint8"
        }
      ],
      "stateMutability": "pure",
      "type": "function"
    },
    {
      "inputs": [
        {
          "internalType": "uint256",
          "name": "",
          "type": "uint256"
        }
      ],
      "name": "characterTypeOdds",
      "outputs": [
        {
          "internalType": "uint8",
          "name": "",
          "type": "uint8"
        }
      ],
      "stateMutability": "view",
      "type": "function"
    },
    {
      "inputs": [
        {
          "internalType": "uint256",
          "name": "",
          "type": "uint256"
        }
      ],
      "name": "characterTypes",
      "outputs": [
        {
          "internalType": "string",
          "name": "",
          "type": "string"
        }
      ],
      "stateMutability": "view",
      "type": "function"
    },
    {
      "inputs": [],
      "name": "countAttributes",
      "outputs": [
        {
          "internalType": "uint256",
          "name": "",
          "type": "uint256"
        }
      ],
      "stateMutability": "view",
      "type": "function"
    },
    {
      "inputs": [],
      "name": "countCharacterTypes",
      "outputs": [
        {
          "internalType": "uint256",
          "name": "",
          "type": "uint256"
        }
      ],
      "stateMutability": "view",
      "type": "function"
    },
    {
      "inputs": [],
      "name": "getAttributeRarities",
      "outputs": [
        {
          "internalType": "uint8[]",
          "name": "",
          "type": "uint8[]"
        }
      ],
      "stateMutability": "view",
      "type": "function"
    },
    {
      "inputs": [],
      "name": "getCharacterTypes",
      "outputs": [
        {
          "internalType": "string[]",
          "name": "",
          "type": "string[]"
        }
      ],
      "stateMutability": "view",
      "type": "function"
    },
    {
      "inputs": [],
      "name": "getCumulativeAttributeOdds",
      "outputs": [
        {
          "internalType": "uint8[]",
          "name": "",
          "type": "uint8[]"
        }
      ],
      "stateMutability": "view",
      "type": "function"
    },
    {
      "inputs": [],
      "name": "getCumulativeCharacterTypeOdds",
      "outputs": [
        {
          "internalType": "uint8[]",
          "name": "",
          "type": "uint8[]"
        }
      ],
      "stateMutability": "view",
      "type": "function"
    },
    {
      "inputs": [],
      "name": "getNumImg",
      "outputs": [
        {
          "internalType": "uint256",
          "name": "",
          "type": "uint256"
        }
      ],
      "stateMutability": "view",
      "type": "function"
    },
    {
      "inputs": [
        {
          "internalType": "uint256",
          "name": "amount",
          "type": "uint256"
        }
      ],
      "name": "getPoolingPercentage",
      "outputs": [
        {
          "internalType": "uint256",
          "name": "",
          "type": "uint256"
        }
      ],
      "stateMutability": "view",
      "type": "function"
    },
    {
      "inputs": [
        {
          "internalType": "uint256",
          "name": "",
          "type": "uint256"
        }
      ],
      "name": "poolingPercentageTable",
      "outputs": [
        {
          "internalType": "uint256",
          "name": "",
          "type": "uint256"
        }
      ],
      "stateMutability": "view",
      "type": "function"
    }
  ],
  "bytecode": {
    "object": "0x600460e0908152634669726560e01b610100526080908152600561012081815264477261737360d81b6101405260a0526101a0604052610160908152642bb0ba32b960d91b6101805260c0526200005b9060009060036200018f565b50604080516060810182526001808252602082018190529181018290526200008691906003620001ec565b50604080516101408101825260018082526004602083018190526003938301849052606083018490526080830193909352600260a0830181905260c0830181905260e08301919091526101008201929092526005610120820152620000ee9190600a620001ec565b506040805160a08101825260238152601e6020820152601491810191909152600a60608201526005608082018190526200012b91600391620001ec565b5060266004556040805160e0810182526005808252600a60208301526014928201929092526017606082015260216080820152602860a0820152602d60c08201526200017a9190600762000295565b503480156200018857600080fd5b50620004c3565b828054828255906000526020600020908101928215620001da579160200282015b82811115620001da5782518290620001c99082620003f7565b5091602001919060010190620001b0565b50620001e8929150620002d8565b5090565b82805482825590600052602060002090601f01602090048101928215620002875791602002820160005b838211156200025657835183826101000a81548160ff021916908360ff160217905550926020019260010160208160000104928301926001030262000216565b8015620002855782816101000a81549060ff021916905560010160208160000104928301926001030262000256565b505b50620001e8929150620002f9565b82805482825590600052602060002090810192821562000287579160200282015b8281111562000287578251829060ff16905591602001919060010190620002b6565b80821115620001e8576000620002ef828262000310565b50600101620002d8565b5b80821115620001e85760008155600101620002fa565b5080546200031e9062000368565b6000825580601f106200032f575050565b601f0160209004906000526020600020908101906200034f9190620002f9565b50565b634e487b7160e01b600052604160045260246000fd5b600181811c908216806200037d57607f821691505b6020821081036200039e57634e487b7160e01b600052602260045260246000fd5b50919050565b601f821115620003f257600081815260208120601f850160051c81016020861015620003cd5750805b601f850160051c820191505b81811015620003ee57828155600101620003d9565b5050505b505050565b81516001600160401b0381111562000413576200041362000352565b6200042b8162000424845462000368565b84620003a4565b602080601f8311600181146200046357600084156200044a5750858301515b600019600386901b1c1916600185901b178555620003ee565b600085815260208120601f198616915b82811015620004945788860151825594840194600190910190840162000473565b5085821015620004b35787850151600019600388901b60f8161c191681555b5050505050600190811b01905550565b61185480620004d36000396000f3fe608060405234801561001057600080fd5b50600436106101005760003560e01c80638fe3e0b211610097578063b9dfbd3611610066578063b9dfbd36146101fb578063c91ff61414610203578063c9f2ceb214610216578063ccc58f0e1461022957600080fd5b80638fe3e0b2146101c5578063996b39fd146101d8578063ae404eda146101e0578063b229bd4e146101f357600080fd5b80633f82c72b116100d35780633f82c72b1461016d5780633fa9b6db1461017557806367a2f53e1461019d5780638f1f1936146101b257600080fd5b806307a7682b146101055780631d46edb51461012b5780631fc18f2f146101505780632908238a14610165575b600080fd5b610118610113366004611387565b610249565b6040519081526020015b60405180910390f35b61013e610139366004611387565b6103c9565b60405160ff9091168152602001610122565b6101586103fd565b60405161012291906113a0565b6101586105bd565b600454610118565b610188610183366004611410565b610633565b60405163ffffffff9091168152602001610122565b6101a5610a7b565b60405161012291906114f9565b61013e6101c0366004611387565b610b54565b6101186101d3366004611387565b610b64565b600054610118565b61013e6101ee36600461155b565b610b85565b600254610118565b610158610bfa565b61013e610211366004611387565b610fc4565b61013e61022436600461155b565b610fd4565b61023c610237366004611387565b611073565b6040516101229190611596565b600081600010801561026457506804563918244f4000008211155b1561028f57600560008154811061027d5761027d6115a9565b90600052602060002001549050919050565b816804563918244f4000001080156102b057506808ac7230489e8000008211155b156102c957600560018154811061027d5761027d6115a9565b816808ac7230489e8000001080156102ea5750680ad78ebc5ac62000008211155b1561030357600560028154811061027d5761027d6115a9565b81680ad78ebc5ac62000001080156103245750680d02ab486cedc000008211155b1561033d57600560038154811061027d5761027d6115a9565b81680d02ab486cedc0000010801561035e5750680f2dc7d47f156000008211155b1561037757600560048154811061027d5761027d6115a9565b81680f2dc7d47f156000001080156103985750681158e460913d0000008211155b156103b0576005808154811061027d5761027d6115a9565b600560068154811061027d5761027d6115a9565b919050565b600281815481106103d957600080fd5b9060005260206000209060209182820401919006915054906101000a900460ff1681565b600154600054606091146104715760405162461bcd60e51b815260206004820152603160248201527f63686172616374657254797065732e6c656e67746820213d20636861726163746044820152700cae4a8f2e0ca9ec8c8e65cd8cadccee8d607b1b606482015260840160405180910390fd5b60008054908167ffffffffffffffff81111561048f5761048f6115bf565b6040519080825280602002602001820160405280156104b8578160200160208202803683370190505b50905060016000815481106104cf576104cf6115a9565b90600052602060002090602091828204019190069054906101000a900460ff1681600081518110610502576105026115a9565b60ff9092166020928302919091019091015260015b828110156105b65760018181548110610532576105326115a9565b60009182526020918290209181049091015460ff601f9092166101000a9004168261055e6001846115eb565b8151811061056e5761056e6115a9565b60200260200101516105809190611604565b828281518110610592576105926115a9565b60ff90921660209283029190910190910152806105ae8161161d565b915050610517565b5092915050565b6060600280548060200260200160405190810160405280929190818152602001828054801561062957602002820191906000526020600020906000905b825461010083900a900460ff168152602060019283018181049485019490930390920291018084116105fa5790505b5050505050905090565b6000614000600a828061065e61064c60608b018b611636565b61065960608a018a611636565b61111f565b60ff918216935016905060008361067b60a08c0160808d01611684565b610685919061169f565b60ff169050610694601e6112e2565b156106a6576106a388826116bb565b90505b6106b660e08b0160c08c01611684565b60ff166000036106f1576106ca848a61169f565b6106d79060ff16826116bb565b90506106ea8163ffffffff168484611368565b9050610a6d565b61070160e08b0160c08c01611684565b60ff1660010361077357610715848a61169f565b6107229060ff16826116bb565b905061073460a0880160808901611684565b60ff1661074760a08c0160808d01611684565b60ff16036107625761075f63ffffffff8616846116d8565b92505b6106ea8163ffffffff168484611368565b61078360e08b0160c08c01611684565b60ff166002036107ed57610797848a61169f565b6107a49060ff16826116bb565b90506107b0601e6112e2565b15610762576107c08b600f6116ef565b6107cd9060ff16846116d8565b92506107da600a836116d8565b91506106ea8163ffffffff168484611368565b6107fd60e08b0160c08c01611684565b60ff16600303610811576106ca848a61169f565b61082160e08b0160c08c01611684565b60ff166004036108735761083c8163ffffffff168484611368565b905061086961084b858b61169f565b60ff1661085985600f6116d8565b61086485600a6116d8565b611368565b6106ea90826116bb565b61088360e08b0160c08c01611684565b60ff166005036108c057610897848a61169f565b6108a49060ff16826116bb565b90506108b060146112e2565b15610762576107cd600c846116d8565b6108d060e08b0160c08c01611684565b60ff166006036108f1576108e4848a61169f565b6106ea9060ff16826116bb565b61090160e08b0160c08c01611684565b60ff1660070361094357610915848a61169f565b6109229060ff16826116bb565b905061092e60056112e2565b156107625761075f63ffffffff8616846116d8565b61095360e08b0160c08c01611684565b60ff16600803610967576106ca848a61169f565b61097760e08b0160c08c01611684565b60ff16600903610a405761098b848a61169f565b6109989060ff16826116bb565b90506109aa60a08b0160808c01611684565b60ff166109bd60a0890160808a01611684565b60ff1611156107625760006109d860a08c0160808d01611684565b6109e860a08a0160808b01611684565b6109f291906116ef565b9050600a8160ff1611158015610a165750610a16610a1182600a61169f565b6112e2565b15610a2e57610a2b63ffffffff8716856116d8565b93505b506106ea8163ffffffff168484611368565b610a4a848a61169f565b610a579060ff16826116bb565b9050610a6a8163ffffffff168484611368565b90505b9a9950505050505050505050565b60606000805480602002602001604051908101604052809291908181526020016000905b82821015610b4b578382906000526020600020018054610abe90611708565b80601f0160208091040260200160405190810160405280929190818152602001828054610aea90611708565b8015610b375780601f10610b0c57610100808354040283529160200191610b37565b820191906000526020600020905b815481529060010190602001808311610b1a57829003601f168201915b505050505081526020019060010190610a9f565b50505050905090565b600381815481106103d957600080fd5b60058181548110610b7457600080fd5b600091825260209091200154905081565b600080805b6004811015610be757838160048110610ba557610ba56115a9565b602002810190610bb5919061173c565b610bc69060a0810190608001611684565b610bd39060ff168361175c565b915080610bdf8161161d565b915050610b8a565b50610bf360048261178d565b9392505050565b60035460609060008167ffffffffffffffff811115610c1b57610c1b6115bf565b604051908082528060200260200182016040528015610c44578160200160208202803683370190505b50905060005b82811015610c83576000828281518110610c6657610c666115a9565b602090810291909101015280610c7b8161161d565b915050610c4a565b5060025460005b81811015610d0f5782600160028381548110610ca857610ca86115a9565b90600052602060002090602091828204019190069054906101000a900460ff16610cd291906116ef565b60ff1681518110610ce557610ce56115a9565b602002602001018051809190610cfa9061161d565b90525080610d078161161d565b915050610c8a565b5060008167ffffffffffffffff811115610d2b57610d2b6115bf565b604051908082528060200260200182016040528015610d54578160200160208202803683370190505b5090508260016002600081548110610d6e57610d6e6115a9565b90600052602060002090602091828204019190069054906101000a900460ff16610d9891906116ef565b60ff1681518110610dab57610dab6115a9565b6020026020010151600360016002600081548110610dcb57610dcb6115a9565b90600052602060002090602091828204019190069054906101000a900460ff16610df591906116ef565b60ff1681548110610e0857610e086115a9565b90600052602060002090602091828204019190069054906101000a900460ff1660ff16610e3591906117ae565b610e40906001611604565b81600081518110610e5357610e536115a9565b60ff9092166020928302919091019091015260015b82811015610fbb5783600160028381548110610e8657610e866115a9565b90600052602060002090602091828204019190069054906101000a900460ff16610eb091906116ef565b60ff1681518110610ec357610ec36115a9565b60200260200101516003600160028481548110610ee257610ee26115a9565b90600052602060002090602091828204019190069054906101000a900460ff16610f0c91906116ef565b60ff1681548110610f1f57610f1f6115a9565b90600052602060002090602091828204019190069054906101000a900460ff1660ff16610f4c91906117ae565b82610f586001846115eb565b81518110610f6857610f686115a9565b6020026020010151610f7a9190611604565b610f85906001611604565b828281518110610f9757610f976115a9565b60ff9092166020928302919091019091015280610fb38161161d565b915050610e68565b50949350505050565b600181815481106103d957600080fd5b600080805b60048160ff1610156105b6578160ff16848260ff1660048110610ffe57610ffe6115a9565b60200281019061100e919061173c565b61101f9060a0810190608001611684565b60ff16111561106157838160ff166004811061103d5761103d6115a9565b60200281019061104d919061173c565b61105e9060a0810190608001611684565b91505b8061106b816117c2565b915050610fd9565b6000818154811061108357600080fd5b90600052602060002001600091509050805461109e90611708565b80601f01602080910402602001604051908101604052809291908181526020018280546110ca90611708565b80156111175780601f106110ec57610100808354040283529160200191611117565b820191906000526020600020905b8154815290600101906020018083116110fa57829003601f168201915b505050505081565b600080600086866040516020016111379291906117e1565b604051602081830303815290604052805190602001209050600085856040516020016111649291906117e1565b604051602081830303815290604052805190602001209050600060405160200161119890636669726560e01b815260040190565b60405160208183030381529060405280519060200120905060006040516020016111cd9064677261737360d81b815260050190565b604051602081830303815290604052805190602001209050600060405160200161120290643bb0ba32b960d91b815260050190565b604051602081830303815290604052805190602001209050838503611232576001809650965050505050506112d9565b828514801561124057508184145b806112545750818514801561125457508084145b806112685750808514801561126857508284145b1561127f57600c600a9650965050505050506112d9565b828414801561128d57508185145b806112a1575081841480156112a157508085145b806112b5575080841480156112b557508285145b156112cc576008600a9650965050505050506112d9565b6001809650965050505050505b94509492505050565b60008160ff16606473__$748984f45445581b67c67e62ffa2a70cbb$__6338e59f2c6040518163ffffffff1660e01b8152600401602060405180830381865af4158015611333573d6000803e3d6000fd5b505050506040513d601f19601f8201168201806040525081019061135791906117f1565b611361919061180a565b1092915050565b60008161137584866116d8565b61137f91906117ae565b949350505050565b60006020828403121561139957600080fd5b5035919050565b6020808252825182820181905260009190848201906040850190845b818110156113db57835160ff16835292840192918401916001016113bc565b50909695505050505050565b803560ff811681146103c457600080fd5b600060e0828403121561140a57600080fd5b50919050565b600080600080600060a0868803121561142857600080fd5b611431866113e7565b9450602086013567ffffffffffffffff8082111561144e57600080fd5b61145a89838a016113f8565b9550611468604089016113e7565b94506060880135915063ffffffff8216821461148357600080fd5b9092506080870135908082111561149957600080fd5b506114a6888289016113f8565b9150509295509295909350565b6000815180845260005b818110156114d9576020818501810151868301820152016114bd565b506000602082860101526020601f19601f83011685010191505092915050565b6000602080830181845280855180835260408601915060408160051b870101925083870160005b8281101561154e57603f1988860301845261153c8583516114b3565b94509285019290850190600101611520565b5092979650505050505050565b60006020828403121561156d57600080fd5b813567ffffffffffffffff81111561158457600080fd5b820160808101841015610bf357600080fd5b602081526000610bf360208301846114b3565b634e487b7160e01b600052603260045260246000fd5b634e487b7160e01b600052604160045260246000fd5b634e487b7160e01b600052601160045260246000fd5b818103818111156115fe576115fe6115d5565b92915050565b60ff81811683821601908111156115fe576115fe6115d5565b60006001820161162f5761162f6115d5565b5060010190565b6000808335601e1984360301811261164d57600080fd5b83018035915067ffffffffffffffff82111561166857600080fd5b60200191503681900382131561167d57600080fd5b9250929050565b60006020828403121561169657600080fd5b610bf3826113e7565b60ff81811683821602908116908181146105b6576105b66115d5565b63ffffffff8181168382160190808211156105b6576105b66115d5565b80820281158282048414176115fe576115fe6115d5565b60ff82811682821603908111156115fe576115fe6115d5565b600181811c9082168061171c57607f821691505b60208210810361140a57634e487b7160e01b600052602260045260246000fd5b6000823560de1983360301811261175257600080fd5b9190910192915050565b61ffff8181168382160190808211156105b6576105b66115d5565b634e487b7160e01b600052601260045260246000fd5b600061ffff808416806117a2576117a2611777565b92169190910492915050565b6000826117bd576117bd611777565b500490565b600060ff821660ff81036117d8576117d86115d5565b60010192915050565b8183823760009101908152919050565b60006020828403121561180357600080fd5b5051919050565b60008261181957611819611777565b50069056fea2646970667358221220a6a07f9937f276993797458ff8a939ebab8f51e642e485ef5061745b704dba9064736f6c63430008110033",
    "linkReferences": {
      "src/lib/PLMSeeder.sol": {
        "PLMSeeder": [
          {
            "start": 6079,
            "length": 20
          }
        ]
      }
    }
  },
  "methodIdentifiers": {
    "attributeOddsPerRarity(uint256)": "8f1f1936",
    "attributeRarities(uint256)": "1d46edb5",
    "calcLevelPoint((bytes32,uint256,uint256,string,uint8,uint8,uint8[1])[4])": "c9f2ceb2",
    "calcPower(uint8,(bytes32,uint256,uint256,string,uint8,uint8,uint8[1]),uint8,uint32,(bytes32,uint256,uint256,string,uint8,uint8,uint8[1]))": "3fa9b6db",
    "calcRandomSlotLevel((bytes32,uint256,uint256,string,uint8,uint8,uint8[1])[4])": "ae404eda",
    "characterTypeOdds(uint256)": "c91ff614",
    "characterTypes(uint256)": "ccc58f0e",
    "countAttributes()": "b229bd4e",
    "countCharacterTypes()": "996b39fd",
    "getAttributeRarities()": "2908238a",
    "getCharacterTypes()": "67a2f53e",
    "getCumulativeAttributeOdds()": "b9dfbd36",
    "getCumulativeCharacterTypeOdds()": "1fc18f2f",
    "getNumImg()": "3f82c72b",
    "getPoolingPercentage(uint256)": "07a7682b",
    "poolingPercentageTable(uint256)": "8fe3e0b2"
  },
  "id": 41
}