{
  "abi": [
    {
      "inputs": [
        {
          "internalType": "contract IPLMDealer",
          "name": "_dealer",
          "type": "address"
        },
        {
          "internalType": "contract IPLMToken",
          "name": "_token",
          "type": "address"
        }
      ],
      "stateMutability": "nonpayable",
      "type": "constructor"
    },
    {
      "anonymous": false,
      "inputs": [
        {
          "indexed": true,
          "internalType": "address",
          "name": "proposer",
          "type": "address"
        },
        {
          "components": [
            {
              "internalType": "address",
              "name": "proposer",
              "type": "address"
            },
            {
              "internalType": "uint16",
              "name": "upperBound",
              "type": "uint16"
            },
            {
              "internalType": "uint16",
              "name": "lowerBound",
              "type": "uint16"
            },
            {
              "internalType": "uint16",
              "name": "totalLevel",
              "type": "uint16"
            },
            {
              "internalType": "uint256",
              "name": "startBlockNum",
              "type": "uint256"
            },
            {
              "internalType": "uint256[4]",
              "name": "fixedSlots",
              "type": "uint256[4]"
            }
          ],
          "indexed": false,
          "internalType": "struct IPLMMatchOrganizer.BattleProposal",
          "name": "createdProp",
          "type": "tuple"
        }
      ],
      "name": "ProposalCreated",
      "type": "event"
    },
    {
      "anonymous": false,
      "inputs": [
        {
          "indexed": true,
          "internalType": "address",
          "name": "proposer",
          "type": "address"
        },
        {
          "components": [
            {
              "internalType": "address",
              "name": "proposer",
              "type": "address"
            },
            {
              "internalType": "uint16",
              "name": "upperBound",
              "type": "uint16"
            },
            {
              "internalType": "uint16",
              "name": "lowerBound",
              "type": "uint16"
            },
            {
              "internalType": "uint16",
              "name": "totalLevel",
              "type": "uint16"
            },
            {
              "internalType": "uint256",
              "name": "startBlockNum",
              "type": "uint256"
            },
            {
              "internalType": "uint256[4]",
              "name": "fixedSlots",
              "type": "uint256[4]"
            }
          ],
          "indexed": false,
          "internalType": "struct IPLMMatchOrganizer.BattleProposal",
          "name": "deletedProp",
          "type": "tuple"
        }
      ],
      "name": "ProposalDeleted",
      "type": "event"
    },
    {
      "anonymous": false,
      "inputs": [
        {
          "indexed": false,
          "internalType": "string",
          "name": "reason",
          "type": "string"
        }
      ],
      "name": "ProposerIsNotOwner",
      "type": "event"
    },
    {
      "anonymous": false,
      "inputs": [
        {
          "indexed": true,
          "internalType": "address",
          "name": "challenfer",
          "type": "address"
        }
      ],
      "name": "RequestRejected",
      "type": "event"
    },
    {
      "inputs": [],
      "name": "cancelProposal",
      "outputs": [],
      "stateMutability": "nonpayable",
      "type": "function"
    },
    {
      "inputs": [
        {
          "internalType": "address",
          "name": "player",
          "type": "address"
        }
      ],
      "name": "getMatchState",
      "outputs": [
        {
          "internalType": "enum IPLMMatchOrganizer.MatchState",
          "name": "",
          "type": "uint8"
        }
      ],
      "stateMutability": "view",
      "type": "function"
    },
    {
      "inputs": [],
      "name": "getProposalList",
      "outputs": [
        {
          "components": [
            {
              "internalType": "address",
              "name": "proposer",
              "type": "address"
            },
            {
              "internalType": "uint16",
              "name": "upperBound",
              "type": "uint16"
            },
            {
              "internalType": "uint16",
              "name": "lowerBound",
              "type": "uint16"
            },
            {
              "internalType": "uint16",
              "name": "totalLevel",
              "type": "uint16"
            },
            {
              "internalType": "uint256",
              "name": "startBlockNum",
              "type": "uint256"
            },
            {
              "internalType": "uint256[4]",
              "name": "fixedSlots",
              "type": "uint256[4]"
            }
          ],
          "internalType": "struct IPLMMatchOrganizer.BattleProposal[]",
          "name": "",
          "type": "tuple[]"
        }
      ],
      "stateMutability": "view",
      "type": "function"
    },
    {
      "inputs": [
        {
          "internalType": "address",
          "name": "player",
          "type": "address"
        }
      ],
      "name": "isInBattle",
      "outputs": [
        {
          "internalType": "bool",
          "name": "",
          "type": "bool"
        }
      ],
      "stateMutability": "view",
      "type": "function"
    },
    {
      "inputs": [
        {
          "internalType": "address",
          "name": "player",
          "type": "address"
        }
      ],
      "name": "isInProposal",
      "outputs": [
        {
          "internalType": "bool",
          "name": "",
          "type": "bool"
        }
      ],
      "stateMutability": "view",
      "type": "function"
    },
    {
      "inputs": [
        {
          "internalType": "address",
          "name": "player",
          "type": "address"
        }
      ],
      "name": "isNonProposal",
      "outputs": [
        {
          "internalType": "bool",
          "name": "",
          "type": "bool"
        }
      ],
      "stateMutability": "view",
      "type": "function"
    },
    {
      "inputs": [
        {
          "internalType": "uint16",
          "name": "lowerBound",
          "type": "uint16"
        },
        {
          "internalType": "uint16",
          "name": "upperBound",
          "type": "uint16"
        },
        {
          "internalType": "uint256[4]",
          "name": "fixedSlotsOfProposer",
          "type": "uint256[4]"
        }
      ],
      "name": "proposeBattle",
      "outputs": [],
      "stateMutability": "nonpayable",
      "type": "function"
    },
    {
      "inputs": [
        {
          "internalType": "address",
          "name": "proposer",
          "type": "address"
        },
        {
          "internalType": "uint256[4]",
          "name": "fixedSlotsOfChallenger",
          "type": "uint256[4]"
        }
      ],
      "name": "requestChallenge",
      "outputs": [],
      "stateMutability": "nonpayable",
      "type": "function"
    },
    {
      "inputs": [
        {
          "internalType": "contract IPLMBattleField",
          "name": "_bf",
          "type": "address"
        },
        {
          "internalType": "address",
          "name": "_battleField",
          "type": "address"
        }
      ],
      "name": "setIPLMBattleField",
      "outputs": [],
      "stateMutability": "nonpayable",
      "type": "function"
    },
    {
      "inputs": [
        {
          "internalType": "address",
          "name": "player",
          "type": "address"
        }
      ],
      "name": "setNonProposal",
      "outputs": [],
      "stateMutability": "nonpayable",
      "type": "function"
    },
    {
      "inputs": [
        {
          "internalType": "address",
          "name": "proposer",
          "type": "address"
        },
        {
          "internalType": "address",
          "name": "challenger",
          "type": "address"
        }
      ],
      "name": "updateProposalState2NonProposal",
      "outputs": [],
      "stateMutability": "nonpayable",
      "type": "function"
    }
  ],
  "bytecode": {
    "object": "0x60806040523480156200001157600080fd5b5060405162001e2f38038062001e2f833981016040819052620000349162000094565b6001600055600680546001600160a01b039384166001600160a01b0319918216179091556007805492909316918116919091179091556005805490911633179055620000d3565b6001600160a01b03811681146200009157600080fd5b50565b60008060408385031215620000a857600080fd5b8251620000b5816200007b565b6020840151909250620000c8816200007b565b809150509250929050565b611d4c80620000e36000396000f3fe608060405234801561001057600080fd5b50600436106100a85760003560e01c806360d893481161007157806360d89348146101415780639070577f14610154578063ad37c9491461015c578063bb7daf041461016f578063cfcdb86e14610182578063dc5d4e80146101bb57600080fd5b8062976b7c146100ad57806314124554146100de578063346750f314610106578063443bb9461461011b57806357a4f2511461012e575b600080fd5b6100dc6100bb366004611737565b6001600160a01b03166000908152600360205260409020805460ff19169055565b005b6100f16100ec366004611737565b6101ce565b60405190151581526020015b60405180910390f35b61010e610207565b6040516100fd91906117cc565b6100dc61012936600461181b565b6102ea565b6100f161013c366004611737565b610381565b6100dc61014f366004611865565b61038a565b6100dc610c3f565b6100f161016a366004611737565b610c61565b6100dc61017d36600461181b565b610c69565b6101ae610190366004611737565b6001600160a01b031660009081526003602052604090205460ff1690565b6040516100fd91906118b1565b6100dc6101c93660046118f0565b610cf1565b600060015b6001600160a01b03831660009081526003602052604090205460ff1660028111156102005761020061189b565b1492915050565b60606001805480602002602001604051908101604052809291908181526020016000905b828210156102e15760008481526020908190206040805160c0810182526006860290920180546001600160a01b038116845261ffff600160a01b8204811695850195909552600160b01b8104851684840152600160c01b90049093166060830152600183015460808084019190915281519081019182905291929160a0840191600284019060049082845b8154815260200190600101908083116102b6575050505050815250508152602001906001019061022b565b50505050905090565b6004546001600160a01b031633146103495760405162461bcd60e51b815260206004820152601a60248201527f73656e646572206973206e6f7420626174746c654669656c642e00000000000060448201526064015b60405180910390fd5b6001600160a01b03918216600090815260036020526040808220805460ff199081169091559290931681529190912080549091169055565b600060026101d3565b6103926112af565b436000036103cd5760405162461bcd60e51b81526020600482015260086024820152673137103d32b9379760c11b6044820152606401610340565b6006546040516388012f5560e01b81523360048201526001600160a01b03909116906388012f5590602401602060405180830381865afa158015610415573d6000803e3d6000fd5b505050506040513d601f19601f820116820180604052508101906104399190611934565b156104565760405162461bcd60e51b815260040161034090611956565b60016001600160a01b03831660009081526003602052604090205460ff1660028111156104855761048561189b565b146104dc5760405162461bcd60e51b815260206004820152602160248201527f63616c6c65642061646472657373206973206e6f7420696e2070726f706f73616044820152601b60fa1b6064820152608401610340565b3360009081526003602052604081205460ff1660028111156105005761050061189b565b146105575760405162461bcd60e51b815260206004820152602160248201527f73656e64657220697320696e20426174746c65206f722070726f706f73696e676044820152601760f91b6064820152608401610340565b6006546040516388012f5560e01b81526001600160a01b038481166004830152909116906388012f5590602401602060405180830381865afa1580156105a1573d6000803e3d6000fd5b505050506040513d601f19601f820116820180604052508101906105c59190611934565b15610603576105d382611308565b60405133907f03208836a392edb52d2429b9dc233e88cfe29e7006e6a59a33b7af76ecd6b40690600090a2610c31565b60005b60048110156107f7576007546001600160a01b0316636352211e83836004811061063257610632611997565b60200201356040518263ffffffff1660e01b815260040161065591815260200190565b602060405180830381865afa158015610672573d6000803e3d6000fd5b505050506040513d601f19601f8201168201806040525081019061069691906119ad565b6001600160a01b0316336001600160a01b0316146106f65760405162461bcd60e51b815260206004820152601e60248201527f7375626d6974746564206e6f742073656e646572277320746f6b656e496400006044820152606401610340565b60075443906001600160a01b031663e6abb2cc84846004811061071b5761071b611997565b602002013561072b6001436119e0565b6040516001600160e01b031960e085901b16815260048101929092526024820152604401600060405180830381865afa15801561076c573d6000803e3d6000fd5b505050506040513d6000823e601f3d908101601f191682016040526107949190810190611b6e565b60400151106107e55760405162461bcd60e51b815260206004820181905260248201527f746f6b656e206a757374206d696e7465642063616e6e6f7420626174746c652e6044820152606401610340565b806107ef81611c2d565b915050610606565b5060005b6004811015610967576007546001600160a01b0384811660009081526002602081905260409091209190921691636352211e9101836004811061084057610840611997565b01546040518263ffffffff1660e01b815260040161086091815260200190565b602060405180830381865afa15801561087d573d6000803e3d6000fd5b505050506040513d601f19601f820116820180604052508101906108a191906119ad565b6001600160a01b0316836001600160a01b031614610955576108c283611308565b6001600160a01b0383166000908152600360205260408120805460ff191660018302179055507f515e3469154290b939777baa70802ad858b88f3addb0341ea56dd3a9fe2e2c8a6040516109479060208082526018908201527f737562206e6f742073656e646572277320746f6b656e49640000000000000000604082015260600190565b60405180910390a150610c31565b8061095f81611c2d565b9150506107fb565b506001600160a01b038281166000908152600260208181526040808420815160c0810183528154968716815261ffff600160a01b8804811694820194909452600160b01b8704841681840152600160c01b90960490921660608601526001820154608080870191909152815190810191829052939493919260a0850192919084019060049082845b8154815260200190600101908083116109ef5750505050508152505090506000610a2583600143610a2091906119e0565b6115ca565b9050816040015161ffff168161ffff1610158015610a4f5750816020015161ffff168161ffff1611155b610a9b5760405162461bcd60e51b815260206004820152601760248201527f6e6f742073617469736679206c6576656c20636f6e642e0000000000000000006044820152606401610340565b6006546040516332639d3b60e11b81526001600160a01b038681166004830152909116906364c73a7690602401600060405180830381600087803b158015610ae257600080fd5b505af1158015610af6573d6000803e3d6000fd5b50506006546040516332639d3b60e11b81523360048201526001600160a01b0390911692506364c73a769150602401600060405180830381600087803b158015610b3f57600080fd5b505af1158015610b53573d6000803e3d6000fd5b50506008546001600160a01b03878116600090815260026020526040902060019081015491909216935063258886bb92508791339190610b9390436119e0565b8760a00151896040518763ffffffff1660e01b8152600401610bba96959493929190611c46565b600060405180830381600087803b158015610bd457600080fd5b505af1158015610be8573d6000803e3d6000fd5b505050506001600160a01b0384166000908152600360205260408082208054600260ff1991821681179092553384529190922080549091169091179055610c2e84611308565b50505b610c3b6001600055565b5050565b610c4833611308565b336000908152600360205260409020805460ff19169055565b6000806101d3565b6005546001600160a01b03163314610cc35760405162461bcd60e51b815260206004820152601860248201527f73656e646572206973206e6f7420706f6c796c656d6d657200000000000000006044820152606401610340565b600880546001600160a01b039384166001600160a01b03199182161790915560048054929093169116179055565b610cf96112af565b43600003610d345760405162461bcd60e51b81526020600482015260086024820152673137103d32b9379760c11b6044820152606401610340565b6006546040516388012f5560e01b81523360048201526001600160a01b03909116906388012f5590602401602060405180830381865afa158015610d7c573d6000803e3d6000fd5b505050506040513d601f19601f82011682018060405250810190610da09190611934565b15610dbd5760405162461bcd60e51b815260040161034090611956565b3360009081526003602052604081205460ff166002811115610de157610de161189b565b14610e2e5760405162461bcd60e51b815260206004820152601860248201527f70726f706f73696e672c206f7220696e20626174746c652e00000000000000006044820152606401610340565b60005b6004811015611022576007546001600160a01b0316636352211e838360048110610e5d57610e5d611997565b60200201356040518263ffffffff1660e01b8152600401610e8091815260200190565b602060405180830381865afa158015610e9d573d6000803e3d6000fd5b505050506040513d601f19601f82011682018060405250810190610ec191906119ad565b6001600160a01b0316336001600160a01b031614610f215760405162461bcd60e51b815260206004820152601e60248201527f7375626d6974746564206e6f742073656e646572277320746f6b656e496400006044820152606401610340565b60075443906001600160a01b031663e6abb2cc848460048110610f4657610f46611997565b6020020135610f566001436119e0565b6040516001600160e01b031960e085901b16815260048101929092526024820152604401600060405180830381865afa158015610f97573d6000803e3d6000fd5b505050506040513d6000823e601f3d908101601f19168201604052610fbf9190810190611b6e565b60400151106110105760405162461bcd60e51b815260206004820181905260248201527f746f6b656e206a757374206d696e7465642063616e6e6f7420626174746c652e6044820152606401610340565b8061101a81611c2d565b915050610e31565b5060006040518060c00160405280336001600160a01b031681526020018461ffff1681526020018561ffff16815260200161106484600143610a2091906119e0565b61ffff1681526020016110786001436119e0565b815260200183600480602002604051908101604052809291908260046020028082843760009201829052509290935250600180548082018255915282517fb10e2d527612073b26eecdfd717e6a320cf44b4afac2b0732d9fcbe2b7fa0cf6600690920291820180546020860151604087015160608801516001600160a01b039095166001600160b01b031990931692909217600160a01b61ffff928316021763ffffffff60b01b1916600160b01b9282169290920261ffff60c01b191691909117600160c01b919093160291909117815560808401517fb10e2d527612073b26eecdfd717e6a320cf44b4afac2b0732d9fcbe2b7fa0cf783015560a084015193945084939092506111ad917fb10e2d527612073b26eecdfd717e6a320cf44b4afac2b0732d9fcbe2b7fa0cf8019060046116a1565b50503360009081526002602081815260409283902085518154928701519487015160608801516001600160a01b039092166001600160b01b031990941693909317600160a01b61ffff968716021763ffffffff60b01b1916600160b01b9386169390930261ffff60c01b191692909217600160c01b94909216939093021782556080840151600183015560a084015184935061124d9183019060046116a1565b50506040513391507f3771c6c388ae06ff764655adcf73f099db2bd7add01d0f526c0d915bde06748790611282908490611cb0565b60405180910390a250336000908152600360205260408120805460ff191660019081179091559055505050565b6002600054036113015760405162461bcd60e51b815260206004820152601f60248201527f5265656e7472616e637947756172643a207265656e7472616e742063616c6c006044820152606401610340565b6002600055565b6000805b60015481101561137257826001600160a01b03166001828154811061133357611333611997565b60009182526020909120600690910201546001600160a01b031614611372578161135c81611c2d565b925050808061136a90611c2d565b91505061130c565b5060006001828154811061138857611388611997565b60009182526020918290206040805160c08101825260069390930290910180546001600160a01b038116845261ffff600160a01b8204811695850195909552600160b01b8104851684840152600160c01b90049093166060830152600183015460808084019190915281519081019182905291929160a0840191600284019060049082845b81548152602001906001019080831161140d575050505050815250509050600180808054905061143d91906119e0565b8154811061144d5761144d611997565b90600052602060002090600602016001838154811061146e5761146e611997565b60009182526020909120825460069092020180546001600160a01b039092166001600160a01b031983168117825583546001600160b01b031990931617600160a01b9283900461ffff90811690930217808255835461ffff60b01b198216600160b01b9182900485169091029081178355845463ffffffff60b01b1990921661ffff60c01b1990911617600160c01b918290049093160291909117815560018083015490820155611527600280830190840160046116df565b50905050600180548061153c5761153c611cbf565b6000828152602081206006600019939093019283020180546001600160d01b0319168155600181018290556002810182905560038101829055600481018290556005015590556040516001600160a01b038416907f7fd58e021500601b8b1679b459905b6d15d0576fb6d7f38e5b36a69d38cdd373906115bd908490611cb0565b60405180910390a2505050565b600080805b60048160ff161015611697576007546001600160a01b031663e6abb2cc8660ff84166004811061160157611601611997565b6020020135866040518363ffffffff1660e01b815260040161162d929190918252602082015260400190565b600060405180830381865afa15801561164a573d6000803e3d6000fd5b505050506040513d6000823e601f3d908101601f191682016040526116729190810190611b6e565b608001516116839060ff1683611cd5565b91508061168f81611cf7565b9150506115cf565b5090505b92915050565b82600481019282156116cf579160200282015b828111156116cf5782518255916020019190600101906116b4565b506116db92915061170a565b5090565b82600481019282156116cf579182015b828111156116cf5782548255916001019190600101906116ef565b5b808211156116db576000815560010161170b565b6001600160a01b038116811461173457600080fd5b50565b60006020828403121561174957600080fd5b81356117548161171f565b9392505050565b80516001600160a01b0316825260208082015161ffff90811682850152604080840151821690850152606080840151909116908401526080808301519084015260a08281015190840160005b60048110156117c4578251825291830191908301906001016117a7565b505050505050565b6020808252825182820181905260009190848201906040850190845b8181101561180f576117fb83855161175b565b9284019261012092909201916001016117e8565b50909695505050505050565b6000806040838503121561182e57600080fd5b82356118398161171f565b915060208301356118498161171f565b809150509250929050565b806080810183101561169b57600080fd5b60008060a0838503121561187857600080fd5b82356118838161171f565b91506118928460208501611854565b90509250929050565b634e487b7160e01b600052602160045260246000fd5b60208101600383106118d357634e487b7160e01b600052602160045260246000fd5b91905290565b803561ffff811681146118eb57600080fd5b919050565b600080600060c0848603121561190557600080fd5b61190e846118d9565b925061191c602085016118d9565b915061192b8560408601611854565b90509250925092565b60006020828403121561194657600080fd5b8151801515811461175457600080fd5b60208082526021908201527f73656e646572277320737562736372697074696f6e20697320657870697265646040820152601760f91b606082015260800190565b634e487b7160e01b600052603260045260246000fd5b6000602082840312156119bf57600080fd5b81516117548161171f565b634e487b7160e01b600052601160045260246000fd5b8181038181111561169b5761169b6119ca565b634e487b7160e01b600052604160045260246000fd5b60405160e0810167ffffffffffffffff81118282101715611a2c57611a2c6119f3565b60405290565b604051601f8201601f1916810167ffffffffffffffff81118282101715611a5b57611a5b6119f3565b604052919050565b600082601f830112611a7457600080fd5b815167ffffffffffffffff811115611a8e57611a8e6119f3565b6020611aa2601f8301601f19168201611a32565b8281528582848701011115611ab657600080fd5b60005b83811015611ad4578581018301518282018401528201611ab9565b506000928101909101919091529392505050565b805160ff811681146118eb57600080fd5b600082601f830112611b0a57600080fd5b604051602080820182811067ffffffffffffffff82111715611b2e57611b2e6119f3565b6040528184820186811115611b4257600080fd5b855b81811015611b6257611b5581611ae8565b8352918301918301611b44565b50929695505050505050565b600060208284031215611b8057600080fd5b815167ffffffffffffffff80821115611b9857600080fd5b9083019060e08286031215611bac57600080fd5b611bb4611a09565b825181526020830151602082015260408301516040820152606083015182811115611bde57600080fd5b611bea87828601611a63565b606083015250611bfc60808401611ae8565b6080820152611c0d60a08401611ae8565b60a0820152611c1f8660c08501611af9565b60c082015295945050505050565b600060018201611c3f57611c3f6119ca565b5060010190565b6001600160a01b0387811682528616602080830191909152604082018690526060820185905261018082019060808301908560005b6004811015611c9857815184529282019290820190600101611c7b565b50505050608083610100840137979650505050505050565b610120810161169b828461175b565b634e487b7160e01b600052603160045260246000fd5b61ffff818116838216019080821115611cf057611cf06119ca565b5092915050565b600060ff821660ff8103611d0d57611d0d6119ca565b6001019291505056fea26469706673582212209f8ca2352c14b29f189d23cab027a595343462bb3dd3efaaa5032941bcef77d764736f6c63430008110033",
    "linkReferences": {}
  },
  "methodIdentifiers": {
    "cancelProposal()": "9070577f",
    "getMatchState(address)": "cfcdb86e",
    "getProposalList()": "346750f3",
    "isInBattle(address)": "57a4f251",
    "isInProposal(address)": "14124554",
    "isNonProposal(address)": "ad37c949",
    "proposeBattle(uint16,uint16,uint256[4])": "dc5d4e80",
    "requestChallenge(address,uint256[4])": "60d89348",
    "setIPLMBattleField(address,address)": "bb7daf04",
    "setNonProposal(address)": "00976b7c",
    "updateProposalState2NonProposal(address,address)": "443bb946"
  },
  "id": 30
}