{
  "abi": [
    {
      "inputs": [
        {
          "internalType": "string",
          "name": "reason",
          "type": "string"
        }
      ],
      "name": "ErrorWithLog",
      "type": "error"
    },
    {
      "anonymous": false,
      "inputs": [
        {
          "indexed": true,
          "internalType": "address",
          "name": "account",
          "type": "address"
        },
        {
          "indexed": false,
          "internalType": "uint256",
          "name": "tokenId",
          "type": "uint256"
        },
        {
          "components": [
            {
              "internalType": "bytes32",
              "name": "name",
              "type": "bytes32"
            },
            {
              "internalType": "uint256",
              "name": "imgId",
              "type": "uint256"
            },
            {
              "internalType": "uint256",
              "name": "fromBlock",
              "type": "uint256"
            },
            {
              "internalType": "string",
              "name": "characterType",
              "type": "string"
            },
            {
              "internalType": "uint8",
              "name": "level",
              "type": "uint8"
            },
            {
              "internalType": "uint8",
              "name": "rarity",
              "type": "uint8"
            },
            {
              "internalType": "uint8[1]",
              "name": "attributeIds",
              "type": "uint8[1]"
            }
          ],
          "indexed": false,
          "internalType": "struct IPLMData.CharacterInfo",
          "name": "characterInfo",
          "type": "tuple"
        }
      ],
      "name": "CharacterReceivedByUser",
      "type": "event"
    },
    {
      "inputs": [],
      "name": "coin",
      "outputs": [
        {
          "internalType": "contract IPLMCoin",
          "name": "",
          "type": "address"
        }
      ],
      "stateMutability": "view",
      "type": "function"
    },
    {
      "inputs": [
        {
          "internalType": "bytes32",
          "name": "name",
          "type": "bytes32"
        }
      ],
      "name": "gacha",
      "outputs": [],
      "stateMutability": "nonpayable",
      "type": "function"
    },
    {
      "inputs": [],
      "name": "getGachaFee",
      "outputs": [
        {
          "internalType": "uint256",
          "name": "",
          "type": "uint256"
        }
      ],
      "stateMutability": "pure",
      "type": "function"
    },
    {
      "inputs": [],
      "name": "token",
      "outputs": [
        {
          "internalType": "contract IPLMToken",
          "name": "",
          "type": "address"
        }
      ],
      "stateMutability": "view",
      "type": "function"
    }
  ],
  "bytecode": {
    "object": "0x608060405234801561001057600080fd5b5060016000556109fc806100256000396000f3fe608060405234801561001057600080fd5b506004361061004c5760003560e01c806310f3e0201461005157806311df99951461006657806395e1656614610096578063fc0c546a146100a5575b600080fd5b61006461005f366004610599565b6100b8565b005b600254610079906001600160a01b031681565b6040516001600160a01b0390911681526020015b60405180910390f35b6040516005815260200161008d565b600154610079906001600160a01b031681565b6100c0610540565b600254604051636eb1769f60e11b81523360048201523060248201526005916001600160a01b03169063dd62ed3e90604401602060405180830381865afa15801561010f573d6000803e3d6000fd5b505050506040513d601f19601f8201168201806040525081019061013391906105b2565b10156101915760405162461bcd60e51b815260206004820152602260248201527f636f696e20616c6c6f77616e636520696e73756666696369656e74202f676163604482015261686160f01b60648201526084015b60405180910390fd5b6002546040516370a0823160e01b81523360048201526005916001600160a01b0316906370a0823190602401602060405180830381865afa1580156101da573d6000803e3d6000fd5b505050506040513d601f19601f820116820180604052508101906101fe91906105b2565b101561024c5760405162461bcd60e51b815260206004820152601d60248201527f6e6f742073756666696369656e742062616c616e6365202f67616368610000006044820152606401610188565b60015460405163adf2cead60e01b8152600481018390526001600160a01b039091169063adf2cead906024016020604051808303816000875af19250505080156102b3575060408051601f3d908101601f191682019092526102b0918101906105b2565b60015b610305576102bf6105cb565b806308c379a0036102f957506102d3610650565b806102de57506102fb565b806040516301f5a21b60e21b8152600401610188919061072a565b505b3d6000803e3d6000fd5b6002546040516323b872dd60e01b8152336004820152306024820152600560448201526001600160a01b03909116906323b872dd906064016020604051808303816000875af1925050508015610378575060408051601f3d908101601f1916820190925261037591810190610744565b60015b61041c576103846105cb565b806308c379a0036102f95750610398610650565b806103a357506102fb565b600154604051630852cd8d60e31b8152600481018490526001600160a01b03909116906342966c6890602401600060405180830381600087803b1580156103e957600080fd5b505af11580156103fd573d6000803e3d6000fd5b50505050806040516301f5a21b60e21b8152600401610188919061072a565b506001546040516323b872dd60e01b8152306004820152336024820152604481018390526001600160a01b03909116906323b872dd90606401600060405180830381600087803b15801561046f57600080fd5b505af1158015610483573d6000803e3d6000fd5b5050600154604051634b0cafa360e11b8152600481018590523393507f676d814d17f8a1dd4200c4e0c47c9e507180e6fef4f2d0103a26ac0e31102b99925084916001600160a01b0316906396195f4690602401600060405180830381865afa1580156104f4573d6000803e3d6000fd5b505050506040513d6000823e601f3d908101601f1916820160405261051c919081019061086d565b60405161052a92919061092c565b60405180910390a25061053d6001600055565b50565b6002600054036105925760405162461bcd60e51b815260206004820152601f60248201527f5265656e7472616e637947756172643a207265656e7472616e742063616c6c006044820152606401610188565b6002600055565b6000602082840312156105ab57600080fd5b5035919050565b6000602082840312156105c457600080fd5b5051919050565b600060033d11156105e45760046000803e5060005160e01c5b90565b634e487b7160e01b600052604160045260246000fd5b60e0810167ffffffffffffffff8111828210171561061d5761061d6105e7565b60405250565b601f8201601f1916810167ffffffffffffffff81118282101715610649576106496105e7565b6040525050565b600060443d101561065e5790565b6040516003193d81016004833e81513d67ffffffffffffffff816024840111818411171561068e57505050505090565b82850191508151818111156106a65750505050505090565b843d87010160208285010111156106c05750505050505090565b6106cf60208286010187610623565b509095945050505050565b60005b838110156106f55781810151838201526020016106dd565b50506000910152565b600081518084526107168160208601602086016106da565b601f01601f19169290920160200192915050565b60208152600061073d60208301846106fe565b9392505050565b60006020828403121561075657600080fd5b8151801515811461073d57600080fd5b6040516105e4816105fd565b600082601f83011261078357600080fd5b815167ffffffffffffffff81111561079d5761079d6105e7565b6040516107b4601f8301601f191660200182610623565b8181528460208386010111156107c957600080fd5b6107da8260208301602087016106da565b949350505050565b805160ff811681146107f357600080fd5b919050565b600082601f83011261080957600080fd5b604051602080820182811067ffffffffffffffff8211171561082d5761082d6105e7565b604052818482018681111561084157600080fd5b855b8181101561086157610854816107e2565b8352918301918301610843565b50929695505050505050565b60006020828403121561087f57600080fd5b815167ffffffffffffffff8082111561089757600080fd5b9083019060e082860312156108ab57600080fd5b6108b3610766565b8251815260208301516020820152604083015160408201526060830151828111156108dd57600080fd5b6108e987828601610772565b6060830152506108fb608084016107e2565b608082015261090c60a084016107e2565b60a082015261091e8660c085016107f8565b60c082015295945050505050565b828152600060206040818401528351604084015280840151606084015260408401516080840152606084015160e060a085015261096d6101208501826106fe565b9050608085015160ff80821660c08701528060a08801511660e087015260c08701519150610100860160005b60018110156109b8578351831682529285019290850190600101610999565b50929897505050505050505056fea26469706673582212206d26558e323660e6def943f737509d8d22ad0bb02a30c5022a3dde856670b05364736f6c63430008110033",
    "linkReferences": {}
  },
  "methodIdentifiers": {
    "coin()": "11df9995",
    "gacha(bytes32)": "10f3e020",
    "getGachaFee()": "95e16566",
    "token()": "fc0c546a"
  },
  "id": 42
}