{
  "abi": [
    {
      "inputs": [
        {
          "internalType": "contract IPLMDealer",
          "name": "_dealer",
          "type": "address"
        },
        {
          "internalType": "contract IPLMToken",
          "name": "_token",
          "type": "address"
        }
      ],
      "stateMutability": "nonpayable",
      "type": "constructor"
    },
    {
      "anonymous": false,
      "inputs": [
        {
          "indexed": false,
          "internalType": "enum IPLMBattleField.PlayerId",
          "name": "cause",
          "type": "uint8"
        }
      ],
      "name": "BattleCanceled",
      "type": "event"
    },
    {
      "anonymous": false,
      "inputs": [
        {
          "indexed": false,
          "internalType": "uint8",
          "name": "numRounds",
          "type": "uint8"
        },
        {
          "indexed": false,
          "internalType": "bool",
          "name": "isDraw",
          "type": "bool"
        },
        {
          "indexed": false,
          "internalType": "enum IPLMBattleField.PlayerId",
          "name": "winner",
          "type": "uint8"
        },
        {
          "indexed": false,
          "internalType": "enum IPLMBattleField.PlayerId",
          "name": "loser",
          "type": "uint8"
        },
        {
          "indexed": false,
          "internalType": "uint8",
          "name": "winCount",
          "type": "uint8"
        },
        {
          "indexed": false,
          "internalType": "uint8",
          "name": "loseCount",
          "type": "uint8"
        }
      ],
      "name": "BattleResult",
      "type": "event"
    },
    {
      "anonymous": false,
      "inputs": [
        {
          "indexed": false,
          "internalType": "address",
          "name": "aliceAddr",
          "type": "address"
        },
        {
          "indexed": false,
          "internalType": "address",
          "name": "bobAddr",
          "type": "address"
        }
      ],
      "name": "BattleStarted",
      "type": "event"
    },
    {
      "anonymous": false,
      "inputs": [
        {
          "indexed": false,
          "internalType": "uint8",
          "name": "numRounds",
          "type": "uint8"
        },
        {
          "indexed": false,
          "internalType": "enum IPLMBattleField.PlayerId",
          "name": "playerId",
          "type": "uint8"
        }
      ],
      "name": "ChoiceCommitted",
      "type": "event"
    },
    {
      "anonymous": false,
      "inputs": [
        {
          "indexed": false,
          "internalType": "uint8",
          "name": "numRounds",
          "type": "uint8"
        },
        {
          "indexed": false,
          "internalType": "enum IPLMBattleField.PlayerId",
          "name": "playerId",
          "type": "uint8"
        },
        {
          "indexed": false,
          "internalType": "uint8",
          "name": "levelPoint",
          "type": "uint8"
        },
        {
          "indexed": false,
          "internalType": "enum IPLMBattleField.Choice",
          "name": "choice",
          "type": "uint8"
        }
      ],
      "name": "ChoiceRevealed",
      "type": "event"
    },
    {
      "anonymous": false,
      "inputs": [
        {
          "indexed": false,
          "internalType": "enum IPLMBattleField.PlayerId",
          "name": "cheater",
          "type": "uint8"
        },
        {
          "indexed": false,
          "internalType": "uint8",
          "name": "remainingLevelPoint",
          "type": "uint8"
        },
        {
          "indexed": false,
          "internalType": "uint8",
          "name": "cheaterLevelPoint",
          "type": "uint8"
        }
      ],
      "name": "ExceedingLevelPointCheatDetected",
      "type": "event"
    },
    {
      "anonymous": false,
      "inputs": [
        {
          "indexed": false,
          "internalType": "enum IPLMBattleField.PlayerId",
          "name": "playerId",
          "type": "uint8"
        }
      ],
      "name": "PlayerSeedCommitted",
      "type": "event"
    },
    {
      "anonymous": false,
      "inputs": [
        {
          "indexed": false,
          "internalType": "uint8",
          "name": "numRounds",
          "type": "uint8"
        },
        {
          "indexed": false,
          "internalType": "enum IPLMBattleField.PlayerId",
          "name": "playerId",
          "type": "uint8"
        },
        {
          "indexed": false,
          "internalType": "bytes32",
          "name": "playerSeed",
          "type": "bytes32"
        }
      ],
      "name": "PlayerSeedRevealed",
      "type": "event"
    },
    {
      "anonymous": false,
      "inputs": [
        {
          "indexed": false,
          "internalType": "enum IPLMBattleField.PlayerId",
          "name": "playerId",
          "type": "uint8"
        },
        {
          "indexed": false,
          "internalType": "bytes32",
          "name": "nonce",
          "type": "bytes32"
        }
      ],
      "name": "RandomSlotNounceGenerated",
      "type": "event"
    },
    {
      "anonymous": false,
      "inputs": [
        {
          "indexed": false,
          "internalType": "enum IPLMBattleField.PlayerId",
          "name": "cheater",
          "type": "uint8"
        },
        {
          "indexed": false,
          "internalType": "enum IPLMBattleField.Choice",
          "name": "targetSlot",
          "type": "uint8"
        }
      ],
      "name": "ReusingUsedSlotCheatDetected",
      "type": "event"
    },
    {
      "anonymous": false,
      "inputs": [
        {
          "indexed": false,
          "internalType": "uint8",
          "name": "numRounds",
          "type": "uint8"
        },
        {
          "indexed": false,
          "internalType": "bool",
          "name": "isDraw",
          "type": "bool"
        },
        {
          "indexed": false,
          "internalType": "enum IPLMBattleField.PlayerId",
          "name": "winner",
          "type": "uint8"
        },
        {
          "indexed": false,
          "internalType": "enum IPLMBattleField.PlayerId",
          "name": "loser",
          "type": "uint8"
        },
        {
          "indexed": false,
          "internalType": "uint32",
          "name": "winnerDamage",
          "type": "uint32"
        },
        {
          "indexed": false,
          "internalType": "uint32",
          "name": "loserDamage",
          "type": "uint32"
        }
      ],
      "name": "RoundResult",
      "type": "event"
    },
    {
      "anonymous": false,
      "inputs": [
        {
          "indexed": false,
          "internalType": "uint8",
          "name": "numRounds",
          "type": "uint8"
        },
        {
          "indexed": false,
          "internalType": "enum IPLMBattleField.PlayerId",
          "name": "lazyPlayer",
          "type": "uint8"
        }
      ],
      "name": "TimeOutAtChoiceCommitDetected",
      "type": "event"
    },
    {
      "anonymous": false,
      "inputs": [
        {
          "indexed": false,
          "internalType": "uint8",
          "name": "numRounds",
          "type": "uint8"
        },
        {
          "indexed": false,
          "internalType": "enum IPLMBattleField.PlayerId",
          "name": "lazyPlayer",
          "type": "uint8"
        }
      ],
      "name": "TimeOutAtChoiceRevealDetected",
      "type": "event"
    },
    {
      "anonymous": false,
      "inputs": [
        {
          "indexed": false,
          "internalType": "enum IPLMBattleField.PlayerId",
          "name": "lazyPlayer",
          "type": "uint8"
        }
      ],
      "name": "TimeOutAtPlayerSeedCommitDetected",
      "type": "event"
    },
    {
      "inputs": [
        {
          "internalType": "enum IPLMBattleField.PlayerId",
          "name": "playerId",
          "type": "uint8"
        },
        {
          "internalType": "bytes32",
          "name": "commitString",
          "type": "bytes32"
        }
      ],
      "name": "commitChoice",
      "outputs": [],
      "stateMutability": "nonpayable",
      "type": "function"
    },
    {
      "inputs": [
        {
          "internalType": "enum IPLMBattleField.PlayerId",
          "name": "playerId",
          "type": "uint8"
        },
        {
          "internalType": "bytes32",
          "name": "commitString",
          "type": "bytes32"
        }
      ],
      "name": "commitPlayerSeed",
      "outputs": [],
      "stateMutability": "nonpayable",
      "type": "function"
    },
    {
      "inputs": [],
      "name": "forceInitBattle",
      "outputs": [],
      "stateMutability": "nonpayable",
      "type": "function"
    },
    {
      "inputs": [],
      "name": "getBattleState",
      "outputs": [
        {
          "internalType": "enum IPLMBattleField.BattleState",
          "name": "",
          "type": "uint8"
        }
      ],
      "stateMutability": "view",
      "type": "function"
    },
    {
      "inputs": [
        {
          "internalType": "uint8",
          "name": "level",
          "type": "uint8"
        },
        {
          "internalType": "uint256",
          "name": "startBlock",
          "type": "uint256"
        }
      ],
      "name": "getBondLevelAtBattleStart",
      "outputs": [
        {
          "internalType": "uint32",
          "name": "",
          "type": "uint32"
        }
      ],
      "stateMutability": "view",
      "type": "function"
    },
    {
      "inputs": [
        {
          "internalType": "enum IPLMBattleField.PlayerId",
          "name": "playerId",
          "type": "uint8"
        }
      ],
      "name": "getFixedSlotCharInfo",
      "outputs": [
        {
          "components": [
            {
              "internalType": "bytes32",
              "name": "name",
              "type": "bytes32"
            },
            {
              "internalType": "uint256",
              "name": "imgId",
              "type": "uint256"
            },
            {
              "internalType": "uint256",
              "name": "fromBlock",
              "type": "uint256"
            },
            {
              "internalType": "string",
              "name": "characterType",
              "type": "string"
            },
            {
              "internalType": "uint8",
              "name": "level",
              "type": "uint8"
            },
            {
              "internalType": "uint8",
              "name": "rarity",
              "type": "uint8"
            },
            {
              "internalType": "uint8[1]",
              "name": "attributeIds",
              "type": "uint8[1]"
            }
          ],
          "internalType": "struct IPLMData.CharacterInfo[4]",
          "name": "",
          "type": "tuple[4]"
        }
      ],
      "stateMutability": "view",
      "type": "function"
    },
    {
      "inputs": [
        {
          "internalType": "enum IPLMBattleField.PlayerId",
          "name": "playerId",
          "type": "uint8"
        }
      ],
      "name": "getNonce",
      "outputs": [
        {
          "internalType": "bytes32",
          "name": "",
          "type": "bytes32"
        }
      ],
      "stateMutability": "view",
      "type": "function"
    },
    {
      "inputs": [
        {
          "internalType": "address",
          "name": "playerAddr",
          "type": "address"
        }
      ],
      "name": "getPlayerIdFromAddress",
      "outputs": [
        {
          "internalType": "enum IPLMBattleField.PlayerId",
          "name": "",
          "type": "uint8"
        }
      ],
      "stateMutability": "view",
      "type": "function"
    },
    {
      "inputs": [
        {
          "internalType": "enum IPLMBattleField.PlayerId",
          "name": "playerId",
          "type": "uint8"
        }
      ],
      "name": "getRandomSlotCharInfo",
      "outputs": [
        {
          "components": [
            {
              "internalType": "bytes32",
              "name": "name",
              "type": "bytes32"
            },
            {
              "internalType": "uint256",
              "name": "imgId",
              "type": "uint256"
            },
            {
              "internalType": "uint256",
              "name": "fromBlock",
              "type": "uint256"
            },
            {
              "internalType": "string",
              "name": "characterType",
              "type": "string"
            },
            {
              "internalType": "uint8",
              "name": "level",
              "type": "uint8"
            },
            {
              "internalType": "uint8",
              "name": "rarity",
              "type": "uint8"
            },
            {
              "internalType": "uint8[1]",
              "name": "attributeIds",
              "type": "uint8[1]"
            }
          ],
          "internalType": "struct IPLMData.CharacterInfo",
          "name": "",
          "type": "tuple"
        }
      ],
      "stateMutability": "view",
      "type": "function"
    },
    {
      "inputs": [
        {
          "internalType": "enum IPLMBattleField.PlayerId",
          "name": "playerId",
          "type": "uint8"
        }
      ],
      "name": "getRemainingLevel",
      "outputs": [
        {
          "internalType": "uint256",
          "name": "",
          "type": "uint256"
        }
      ],
      "stateMutability": "view",
      "type": "function"
    },
    {
      "inputs": [
        {
          "internalType": "enum IPLMBattleField.PlayerId",
          "name": "playerId",
          "type": "uint8"
        }
      ],
      "name": "getRemainingLevelPoint",
      "outputs": [
        {
          "internalType": "uint8",
          "name": "",
          "type": "uint8"
        }
      ],
      "stateMutability": "view",
      "type": "function"
    },
    {
      "inputs": [
        {
          "internalType": "enum IPLMBattleField.PlayerId",
          "name": "playerId",
          "type": "uint8"
        }
      ],
      "name": "getTotalSupplyAtBattleStart",
      "outputs": [
        {
          "internalType": "uint256",
          "name": "",
          "type": "uint256"
        }
      ],
      "stateMutability": "view",
      "type": "function"
    },
    {
      "inputs": [
        {
          "internalType": "enum IPLMBattleField.PlayerId",
          "name": "playerId",
          "type": "uint8"
        },
        {
          "internalType": "uint256",
          "name": "tokenId",
          "type": "uint256"
        }
      ],
      "name": "getVirtualRandomSlotCharInfo",
      "outputs": [
        {
          "components": [
            {
              "internalType": "bytes32",
              "name": "name",
              "type": "bytes32"
            },
            {
              "internalType": "uint256",
              "name": "imgId",
              "type": "uint256"
            },
            {
              "internalType": "uint256",
              "name": "fromBlock",
              "type": "uint256"
            },
            {
              "internalType": "string",
              "name": "characterType",
              "type": "string"
            },
            {
              "internalType": "uint8",
              "name": "level",
              "type": "uint8"
            },
            {
              "internalType": "uint8",
              "name": "rarity",
              "type": "uint8"
            },
            {
              "internalType": "uint8[1]",
              "name": "attributeIds",
              "type": "uint8[1]"
            }
          ],
          "internalType": "struct IPLMData.CharacterInfo",
          "name": "",
          "type": "tuple"
        }
      ],
      "stateMutability": "view",
      "type": "function"
    },
    {
      "inputs": [
        {
          "internalType": "enum IPLMBattleField.PlayerId",
          "name": "playerId",
          "type": "uint8"
        }
      ],
      "name": "reportLazyRevealment",
      "outputs": [],
      "stateMutability": "nonpayable",
      "type": "function"
    },
    {
      "inputs": [
        {
          "internalType": "enum IPLMBattleField.PlayerId",
          "name": "playerId",
          "type": "uint8"
        },
        {
          "internalType": "uint8",
          "name": "levelPoint",
          "type": "uint8"
        },
        {
          "internalType": "enum IPLMBattleField.Choice",
          "name": "choice",
          "type": "uint8"
        },
        {
          "internalType": "bytes32",
          "name": "bindingFactor",
          "type": "bytes32"
        }
      ],
      "name": "revealChoice",
      "outputs": [],
      "stateMutability": "nonpayable",
      "type": "function"
    },
    {
      "inputs": [
        {
          "internalType": "enum IPLMBattleField.PlayerId",
          "name": "playerId",
          "type": "uint8"
        },
        {
          "internalType": "bytes32",
          "name": "playerSeed",
          "type": "bytes32"
        }
      ],
      "name": "revealPlayerSeed",
      "outputs": [],
      "stateMutability": "nonpayable",
      "type": "function"
    },
    {
      "inputs": [
        {
          "internalType": "contract IPLMMatchOrganizer",
          "name": "_mo",
          "type": "address"
        },
        {
          "internalType": "address",
          "name": "_matchOrganizer",
          "type": "address"
        }
      ],
      "name": "setIPLMMatchOrganizer",
      "outputs": [],
      "stateMutability": "nonpayable",
      "type": "function"
    },
    {
      "inputs": [
        {
          "internalType": "address",
          "name": "aliceAddr",
          "type": "address"
        },
        {
          "internalType": "address",
          "name": "bobAddr",
          "type": "address"
        },
        {
          "internalType": "uint256",
          "name": "aliceBlockNum",
          "type": "uint256"
        },
        {
          "internalType": "uint256",
          "name": "bobBlockNum",
          "type": "uint256"
        },
        {
          "internalType": "uint256[4]",
          "name": "aliceFixedSlots",
          "type": "uint256[4]"
        },
        {
          "internalType": "uint256[4]",
          "name": "bobFixedSlots",
          "type": "uint256[4]"
        }
      ],
      "name": "startBattle",
      "outputs": [],
      "stateMutability": "nonpayable",
      "type": "function"
    }
  ],
  "bytecode": {
    "object": "0x60806040523480156200001157600080fd5b50604051620052be380380620052be833981016040819052620000349162000094565b6001600081905580546001600160a01b039384166001600160a01b0319918216179091556002805492909316918116919091179091556004805490911633179055620000d3565b6001600160a01b03811681146200009157600080fd5b50565b60008060408385031215620000a857600080fd5b8251620000b5816200007b565b6020840151909250620000c8816200007b565b809150509250929050565b6151db80620000e36000396000f3fe608060405234801561001057600080fd5b50600436106101165760003560e01c80638ca18dac116100a2578063a097e25911610071578063a097e25914610245578063bdc95f801461026d578063c2d71c0b1461028d578063c80b39fe146102a9578063f4fc6341146102bc57600080fd5b80638ca18dac146101f25780639585839f14610205578063966c92a21461021f5780639b5438bf1461023257600080fd5b80632d65a4ac116100e95780632d65a4ac14610169578063721db6c014610171578063740630d31461019a57806384f24a60146101ad5780638741808a146101d257600080fd5b8063181b113e1461011b57806319b6bf95146101305780631d21c32414610143578063258886bb14610156575b600080fd5b61012e610129366004614650565b6102cf565b005b61012e61013e3660046146a3565b610bc0565b61012e6101513660046146a3565b61109b565b61012e61016436600461478f565b611486565b61012e611d7b565b61018461017f3660046146a3565b611e72565b60405161019191906148df565b60405180910390f35b6101846101a83660046148f2565b611f1d565b6101c06101bb3660046148f2565b6120f1565b60405160ff9091168152602001610191565b6101e56101e036600461490d565b61213d565b6040516101919190614954565b61012e6102003660046146a3565b6122a6565b600554600160a01b900460ff166040516101919190614962565b61012e61022d36600461497c565b612734565b61012e6102403660046148f2565b6127bc565b6102586102533660046149b5565b612a33565b60405163ffffffff9091168152602001610191565b61028061027b3660046148f2565b612ac9565b60405161019191906149d3565b61029b6101bb3660046148f2565b604051908152602001610191565b61029b6102b73660046148f2565b612b25565b61029b6102ca3660046148f2565b612ba0565b60006102db6000612c5d565b60028111156102ec576102ec61492a565b14158015610315575060006103016001612c5d565b60028111156103125761031261492a565b14155b61033a5760405162461bcd60e51b815260040161033190614a20565b60405180910390fd5b6002600554600160a01b900460ff16600381111561035a5761035a61492a565b146103775760405162461bcd60e51b815260040161033190614a57565b83600081600181111561038c5761038c61492a565b14806103a9575060018160018111156103a7576103a761492a565b145b6103c55760405162461bcd60e51b815260040161033190614a8c565b600b60008260018111156103db576103db61492a565b60018111156103ec576103ec61492a565b81526020810191909152604001600020546001600160a01b031633146104245760405162461bcd60e51b815260040161033190614ab5565b84600161043082612ca9565b60028111156104415761044161492a565b146104b45760405162461bcd60e51b815260206004820152603960248201527f54686520706c61796572206861736e277420636f6d6d6974746564207468652060448201527f63686f69636520696e207468697320726f756e64207965742e000000000000006064820152608401610331565b60006104bf82612cef565b905060006104cc82612ca9565b905060008160028111156104e2576104e261492a565b1480156105155750600554600160a81b900460ff1660009081526007602052604090205461051290601e90614b14565b43115b15610597577f2b92c74da26720ec9bb99a0a305185aa9a31832a98ca708a752a2288a01744e3600560159054906101000a900460ff168360405161055a929190614b27565b60405180910390a161056b82612d18565b600080516020615186833981519152826040516105889190614954565b60405180910390a15050610bb8565b60018160028111156105ab576105ab61492a565b14806105c8575060028160028111156105c6576105c661492a565b145b61063a5760405162461bcd60e51b815260206004820152603f60248201527f54686520656e656d7920706c61796572206861736e277420636f6d6d6974746560448201527f64207468652063686f69636520696e207468697320726f756e64207965742e006064820152608401610331565b600586600581111561064e5761064e61492a565b036106ac5760405162461bcd60e51b815260206004820152602860248201527f43686f6963652e53637274206973206e6f7420616c6c6f776564207768656e206044820152673932bb32b0b6371760c11b6064820152608401610331565b60006106b789612cef565b600554600160a81b900460ff166000908152600860205260409020549091506106e290600f90614b14565b431115610793577f4d8b09d49e871c5f80c15e4fd5912337b4a5b2a7986216654de341a5c380d0ab600560159054906101000a900460ff168a604051610729929190614b27565b60405180910390a1600061073c82612ca9565b600281111561074d5761074d61492a565b0361075f5761075a612e25565b610768565b61076889612d18565b600080516020615186833981519152896040516107859190614954565b60405180910390a150610bb5565b60048760058111156107a7576107a761492a565b0361083b5760026107b78a612c5d565b60028111156107c8576107c861492a565b1461083b5760405162461bcd60e51b815260206004820152603860248201527f52616e2e20736c2e2063616e6e6f74206265207573656420626563617573652060448201527f706c72207364206e6f742072657665616c6564207965742e00000000000000006064820152608401610331565b600554600160a81b900460ff166000908152600960205260408120818b60018111156108695761086961492a565b600181111561087a5761087a61492a565b815260200190815260200160002090508060000154338a8a8a6040516020016108a69493929190614b3e565b60405160208183030381529060405280519060200120146109095760405162461bcd60e51b815260206004820152601d60248201527f436f6d6d6974206861736820646f65736e277420636f696e636964652e0000006044820152606401610331565b60006109148b6120f1565b90508060ff168a60ff161115610995577f3bc04bb259f3686c2dc9dc8c457a1e260850860a37cb0a9f0e5a88849a8668648b828c60405161095793929190614b8f565b60405180910390a16109688b612f3d565b6000805160206151868339815191528b6040516109859190614954565b60405180910390a1505050610bb5565b89600b60008d60018111156109ac576109ac61492a565b60018111156109bd576109bd61492a565b8152602001908152602001600020600a0160028282829054906101000a900460ff166109e99190614bb7565b92506101000a81548160ff021916908360ff16021790555060046005811115610a1457610a1461492a565b896005811115610a2657610a2661492a565b148015610a375750610a378b612f64565b80610a7557506004896005811115610a5157610a5161492a565b14158015610a755750610a758b8a6005811115610a7057610a7061492a565b612faf565b15610aab577f43f3933e493aaf930888af95b0af417f7170af37c3ece692e3f26548f585b9d58b8a604051610957929190614be0565b60018201805460ff8c1660ff198216811783558b929161ffff191617610100836005811115610adc57610adc61492a565b02179055507fc6b930fc95a9ca8979b377995ad9a5258a7106663bae29d0452937afef408a78600560159054906101000a900460ff168c8c8c604051610b259493929190614bfb565b60405180910390a16002600b60008d6001811115610b4557610b4561492a565b6001811115610b5657610b5661492a565b81526020810191909152604001600020600a01805460ff19166001836002811115610b8357610b8361492a565b02179055506002610b9384612ca9565b6002811115610ba457610ba461492a565b03610bb157610bb161306a565b5050505b50505b505050505050565b610bc8613894565b816000816001811115610bdd57610bdd61492a565b1480610bfa57506001816001811115610bf857610bf861492a565b145b610c165760405162461bcd60e51b815260040161033190614a8c565b600b6000826001811115610c2c57610c2c61492a565b6001811115610c3d57610c3d61492a565b81526020810191909152604001600020546001600160a01b03163314610c755760405162461bcd60e51b815260040161033190614ab5565b6001600554600160a01b900460ff166003811115610c9557610c9561492a565b14610ce25760405162461bcd60e51b815260206004820152601f60248201527f54686520626174746c652068617320616c726561647920737461727465642e006044820152606401610331565b6000610ced84612c5d565b6002811115610cfe57610cfe61492a565b14610d4b5760405162461bcd60e51b815260206004820152601f60248201527f54686520706c61796572536565642068617320616c7265616479207365742e006044820152606401610331565b6000610d5684612cef565b9050600f600654610d679190614b14565b431115610e07577f6f471476662af907129f33be5def71ead50de8bba9f758696720a07bec15bbb184604051610d9d9190614954565b60405180910390a16000610db082612ca9565b6002811115610dc157610dc161492a565b03610dd357610dce612e25565b610ddc565b610ddc84612d18565b60008051602061518683398151915284604051610df99190614954565b60405180910390a15061108c565b60405180604001604052808481526020016000801b815250600a6000866001811115610e3557610e3561492a565b6001811115610e4657610e4661492a565b815260200190815260200160002060008201518160000155602082015181600101559050507ff2de069f3613a526efeaadf9b6c1a17bab4b8c9c249855d6377218661d0ff98184604051610e9a9190614954565b60405180910390a16001600b6000866001811115610eba57610eba61492a565b6001811115610ecb57610ecb61492a565b81526020810191909152604001600020600901805462ff0000191662010000836002811115610efc57610efc61492a565b0217905550600073__$748984f45445581b67c67e62ffa2a70cbb$__6338e59f2c6040518163ffffffff1660e01b8152600401602060405180830381865af4158015610f4c573d6000803e3d6000fd5b505050506040513d601f19601f82011682018060405250810190610f709190614c28565b90507fb38c0642f6282b9e6983f8807a65204bb0fd1a8004e427f0ef2dd738d66d767e8582604051610fa3929190614c41565b60405180910390a180600b6000876001811115610fc257610fc261492a565b6001811115610fd357610fd361492a565b8152602001908152602001600020600701600101819055506001600b60008760018111156110035761100361492a565b60018111156110145761101461492a565b81526020810191909152604001600020600901805460ff1916911515919091179055600161104183612c5d565b60028111156110525761105261492a565b0361106b576005805460ff60a01b1916600160a11b1790555b5050600554600160a81b900460ff1660009081526007602052604090204390555b506110976001600055565b5050565b6110a3613894565b60006110af6000612c5d565b60028111156110c0576110c061492a565b141580156110e9575060006110d56001612c5d565b60028111156110e6576110e661492a565b14155b6111055760405162461bcd60e51b815260040161033190614a20565b6002600554600160a01b900460ff1660038111156111255761112561492a565b146111425760405162461bcd60e51b815260040161033190614a57565b8160008160018111156111575761115761492a565b1480611174575060018160018111156111725761117261492a565b145b6111905760405162461bcd60e51b815260040161033190614a8c565b600b60008260018111156111a6576111a661492a565b60018111156111b7576111b761492a565b81526020810191909152604001600020546001600160a01b031633146111ef5760405162461bcd60e51b815260040161033190614ab5565b60006111fa84612ca9565b600281111561120b5761120b61492a565b1461126a5760405162461bcd60e51b815260206004820152602960248201527f6e6f7420696e2074686520737461746520746f20636f6d6d697420696e20746860448201526834b9903937bab7321760b91b6064820152608401610331565b600061127584612cef565b600554600160a81b900460ff166000908152600760205260409020549091506112a090601e90614b14565b4311156112e7577f2b92c74da26720ec9bb99a0a305185aa9a31832a98ca708a752a2288a01744e3600560159054906101000a900460ff1685604051610d9d929190614b27565b604080516060810182528481526000602082015290810160059052600554600160a81b900460ff166000908152600960205260408120908660018111156113305761133061492a565b60018111156113415761134161492a565b81526020808201929092526040908101600020835181559183015160018301805460ff90921660ff198316811782559285015192909161ffff1916176101008360058111156113925761139261492a565b0217905550506005546040517f7c037f29d1a730af5aee8658cd6a69ac8656bbcf3e0448b54773d00e52ff4d2592506113d791600160a81b900460ff16908790614b27565b60405180910390a16001600b60008660018111156113f7576113f761492a565b60018111156114085761140861492a565b81526020810191909152604001600020600a01805460ff191660018360028111156114355761143561492a565b0217905550600161144582612ca9565b60028111156114565761145661492a565b0361147a57600554600160a81b900460ff1660009081526008602052604090204390555b50506110976001600055565b6000600554600160a01b900460ff1660038111156114a6576114a661492a565b146114f35760405162461bcd60e51b815260206004820152601e60248201527f426174746c65206973206e6f7420726561647920666f722073746172742e00006044820152606401610331565b6005546001600160a01b0316331461154d5760405162461bcd60e51b815260206004820152601c60248201527f73656e646572206973206e6f74206d617463684f7267616e697a6572000000006044820152606401610331565b6115556144b7565b61155d6144b7565b60005b600460ff821610156116e0576002546001600160a01b031663e6abb2cc8660ff84166004811061159257611592614c5c565b6020020151896040518363ffffffff1660e01b81526004016115be929190918252602082015260400190565b600060405180830381865afa1580156115db573d6000803e3d6000fd5b505050506040513d6000823e601f3d908101601f191682016040526116039190810190614d7c565b838260ff166004811061161857611618614c5c565b60200201526002546001600160a01b031663e6abb2cc8560ff84166004811061164357611643614c5c565b6020020151886040518363ffffffff1660e01b815260040161166f929190918252602082015260400190565b600060405180830381865afa15801561168c573d6000803e3d6000fd5b505050506040513d6000823e601f3d908101601f191682016040526116b49190810190614d7c565b828260ff16600481106116c9576116c9614c5c565b6020020152806116d881614e3b565b915050611560565b506002546040516364f9675960e11b81526000916001600160a01b03169063c9f2ceb2906117129086906004016149d3565b602060405180830381865afa15801561172f573d6000803e3d6000fd5b505050506040513d601f19601f820116820180604052508101906117539190614e5a565b6002546040516364f9675960e11b81529192506000916001600160a01b039091169063c9f2ceb2906117899086906004016149d3565b602060405180830381865afa1580156117a6573d6000803e3d6000fd5b505050506040513d601f19601f820116820180604052508101906117ca9190614e5a565b6040805160a0810191829052600254635720276d60e11b9092529192506000919081906001600160a01b031663ae404eda6118088960a485016149d3565b602060405180830381865afa158015611825573d6000803e3d6000fd5b505050506040513d601f19601f820116820180604052508101906118499190614e5a565b60ff16815260006020820181905260408201819052606082018190526080909101526040805160a0810191829052600254635720276d60e11b9092529192506000919081906001600160a01b031663ae404eda6118a98960a485016149d3565b602060405180830381865afa1580156118c6573d6000803e3d6000fd5b505050506040513d601f19601f820116820180604052508101906118ea9190614e5a565b60ff168152600060208201819052604082018190526060820181905260809091015260408051610100810182526001600160a01b038f16815260208082018e90528183018c9052825160808082018552600080835292820183905293810182905260608181018390528301529181018590529192509060a08101828152602001600060ff1681526020018660ff16815250905060006040518061010001604052808e6001600160a01b031681526020018c81526020018a815260200160405180608001604052806000151515158152602001600015151515815260200160001515151581526020016000151515158152508152602001848152602001600060028111156119f9576119f961492a565b8152602001600060ff1681526020018660ff16815250905081600b6000806001811115611a2857611a2861492a565b6001811115611a3957611a3961492a565b81526020808201929092526040908101600020835181546001600160a01b0319166001600160a01b03909116178155918301516001830155820151611a8490600283019060046144e4565b506060820151611a9a9060068301906004614522565b50608082810151805160078401805460ff90921660ff19909216919091178155602082015160088501556040820151600985018054606085015115156101000261ff00199315159390931661ffff19909116179190911780825593830151929391929162ff0000191662010000836002811115611b1957611b1961492a565b0217905550505060a0820151600a8201805460ff19166001836002811115611b4357611b4361492a565b021790555060c0820151600a909101805460e09093015160ff908116620100000262ff00001991909316610100021662ffff00199093169290921717905580600b6000600180811115611b9857611b9861492a565b81526020808201929092526040908101600020835181546001600160a01b0319166001600160a01b03909116178155918301516001830155820151611be390600283019060046144e4565b506060820151611bf99060068301906004614522565b50608082810151805160078401805460ff90921660ff19909216919091178155602082015160088501556040820151600985018054606085015115156101000261ff00199315159390931661ffff19909116179190911780825593830151929391929162ff0000191662010000836002811115611c7857611c7861492a565b0217905550505060a0820151600a8201805460ff19166001836002811115611ca257611ca261492a565b021790555060c0820151600a909101805460e09093015160ff908116620100000262ff00001991909316610100021662ffff001990931692909217179055600580546001919060ff60a01b1916600160a01b830217905550436006819055506000600560156101000a81548160ff021916908360ff1602179055507fa76e6d663a586ece11280d871cfa26b2444c81582c048f5895b390faae40a3e18e8e604051611d639291906001600160a01b0392831681529116602082015260400190565b60405180910390a15050505050505050505050505050565b6005805460ff60a01b191690556003546001600160a01b031662976b7c611da260006138ed565b6040516001600160e01b031960e084901b1681526001600160a01b039091166004820152602401600060405180830381600087803b158015611de357600080fd5b505af1158015611df7573d6000803e3d6000fd5b50506003546001600160a01b0316915062976b7c9050611e1760016138ed565b6040516001600160e01b031960e084901b1681526001600160a01b039091166004820152602401600060405180830381600087803b158015611e5857600080fd5b505af1158015611e6c573d6000803e3d6000fd5b50505050565b611e7a6145af565b6002546000906001600160a01b031663e6abb2cc84611e9887613936565b6040516001600160e01b031960e085901b16815260048101929092526024820152604401600060405180830381865afa158015611ed9573d6000803e3d6000fd5b505050506040513d6000823e601f3d908101601f19168201604052611f019190810190614d7c565b9050611f0c84613978565b60ff16608082015290505b92915050565b611f256145af565b6002611f3083612c5d565b6002811115611f4157611f4161492a565b14611fa95760405162461bcd60e51b815260206004820152603260248201527f52616e646f6d20736c6f742063686172616374657220696e666f20686173206e60448201527137ba103232ba32b936b4b732b2103cb2ba1760711b6064820152608401610331565b600073__$748984f45445581b67c67e62ffa2a70cbb$__6302d8d7d0611fce85612ba0565b611fd7866139be565b611fe087612b25565b6040516001600160e01b031960e086901b168152600481019390935260248301919091526044820152606401602060405180830381865af4158015612029573d6000803e3d6000fd5b505050506040513d601f19601f8201168201806040525081019061204d9190614c28565b6002549091506000906001600160a01b031663e6abb2cc8361206e87613936565b6040516001600160e01b031960e085901b16815260048101929092526024820152604401600060405180830381865afa1580156120af573d6000803e3d6000fd5b505050506040513d6000823e601f3d908101601f191682016040526120d79190810190614d7c565b90506120e284613978565b60ff1660808201529392505050565b6000600b60008360018111156121095761210961492a565b600181111561211a5761211a61492a565b81526020810191909152604001600020600a015462010000900460ff1692915050565b604080516001600160601b0319606084811b8216602080850191909152845180850360140181526034850186528051908201206000808052600b8084527fdf7de25b7f1fd6d0b5205f0e18f1f35bd7b8d84cce336588d184533ce43a6f7654851b8616605488015287516048818903018152606888018952805190850120600183529084527f72c6bfb7988af3a1efa6568f02a999bc52252641c659d85961ca3d372b57d5cf5490941b90941660888601528551607c818703018152609c9095019095528351930192909220909291908183148061221a57508083145b61228c5760405162461bcd60e51b815260206004820152603c60248201527f54686520706c617965722064657369676e6174656420627920706c617965724160448201527f646472657373206973206e6f7420696e2074686520626174746c652e000000006064820152608401610331565b81831461229a57600161229d565b60005b95945050505050565b60006122b26000612c5d565b60028111156122c3576122c361492a565b141580156122ec575060006122d86001612c5d565b60028111156122e9576122e961492a565b14155b6123085760405162461bcd60e51b815260040161033190614a20565b6002600554600160a01b900460ff1660038111156123285761232861492a565b146123455760405162461bcd60e51b815260040161033190614a57565b81600081600181111561235a5761235a61492a565b1480612377575060018160018111156123755761237561492a565b145b6123935760405162461bcd60e51b815260040161033190614a8c565b600b60008260018111156123a9576123a961492a565b60018111156123ba576123ba61492a565b81526020810191909152604001600020546001600160a01b031633146123f25760405162461bcd60e51b815260040161033190614ab5565b8260016123fe82612c5d565b600281111561240f5761240f61492a565b146124795760405162461bcd60e51b815260206004820152603460248201527f54686520636f6d6d6974206f662072616e646f6d20736c6f742068617320616c6044820152733932b0b23c903132b2b7103932bb32b0b632b21760611b6064820152608401610331565b600061248482612cef565b9050600161249183612ca9565b60028111156124a2576124a261492a565b1480156124eb575060016124b582612ca9565b60028111156124c6576124c661492a565b14806124eb575060026124d882612ca9565b60028111156124e9576124e961492a565b145b6125525760405162461bcd60e51b815260206004820152603260248201527f416c696365206f7220426f6220686173206e6f7420636f6d6d6974746564206860448201527134b997b432b91031b437b4b1b2903cb2ba1760711b6064820152608401610331565b836125b15760405162461bcd60e51b815260206004820152602960248201527f62797465733332283029206973206e6f7420616c6c6f77656420666f7220706c60448201526830bcb2b929b2b2b21760b91b6064820152608401610331565b6000600a60008760018111156125c9576125c961492a565b60018111156125da576125da61492a565b815260200190815260200160002090508060000154338660405160200161261a92919060609290921b6001600160601b0319168252601482015260340190565b604051602081830303815290604052805190602001201461267d5760405162461bcd60e51b815260206004820152601d60248201527f436f6d6d6974206861736820646f65736e277420636f696e636964652e0000006044820152606401610331565b600181018590556005546040517f790ec34edf8d60e7ce1f5a243b99fef7da6eb89eb970b08f6dd69b5b1dfe75ff916126c591600160a81b90910460ff169089908990614e77565b60405180910390a16002600b60008860018111156126e5576126e561492a565b60018111156126f6576126f661492a565b81526020810191909152604001600020600901805462ff00001916620100008360028111156127275761272761492a565b0217905550505050505050565b6004546001600160a01b0316331461278e5760405162461bcd60e51b815260206004820152601860248201527f73656e646572206973206e6f7420706f6c796c656d6d657200000000000000006044820152606401610331565b600380546001600160a01b039384166001600160a01b03199182161790915560058054929093169116179055565b60006127c86000612c5d565b60028111156127d9576127d961492a565b14158015612802575060006127ee6001612c5d565b60028111156127ff576127ff61492a565b14155b61281e5760405162461bcd60e51b815260040161033190614a20565b6002600554600160a01b900460ff16600381111561283e5761283e61492a565b1461285b5760405162461bcd60e51b815260040161033190614a57565b8060008160018111156128705761287061492a565b148061288d5750600181600181111561288b5761288b61492a565b145b6128a95760405162461bcd60e51b815260040161033190614a8c565b600b60008260018111156128bf576128bf61492a565b60018111156128d0576128d061492a565b81526020810191909152604001600020546001600160a01b031633146129085760405162461bcd60e51b815260040161033190614ab5565b600061291383612cef565b9050600161292861292385612cef565b612ca9565b60028111156129395761293961492a565b14801561296c5750600554600160a81b900460ff1660009081526008602052604090205461296990600f90614b14565b43115b6129b85760405162461bcd60e51b815260206004820152601960248201527f436865636b2074686973207265702e2069732076616c69642e000000000000006044820152606401610331565b7f4d8b09d49e871c5f80c15e4fd5912337b4a5b2a7986216654de341a5c380d0ab600560159054906101000a900460ff16826040516129f8929190614b27565b60405180910390a1612a0981612d18565b60008051602061518683398151915283604051612a269190614954565b60405180910390a1505050565b6002546000906001600160a01b031663fe7869c48484612a536001613936565b6040516001600160e01b031960e086901b16815260ff909316600484015260248301919091526044820152606401602060405180830381865afa158015612a9e573d6000803e3d6000fd5b505050506040513d601f19601f82011682018060405250810190612ac29190614e9c565b9392505050565b612ad16144b7565b612ad96144b7565b60005b600460ff82161015612b1e57612af28482613a4b565b828260ff1660048110612b0757612b07614c5c565b602002015280612b1681614e3b565b915050612adc565b5092915050565b6002546000906001600160a01b0316629f7e21612b4184613936565b6040518263ffffffff1660e01b8152600401612b5f91815260200190565b602060405180830381865afa158015612b7c573d6000803e3d6000fd5b505050506040513d601f19601f82011682018060405250810190611f179190614c28565b6000600b6000836001811115612bb857612bb861492a565b6001811115612bc957612bc961492a565b815260208101919091526040016000206009015460ff16612c1c5760405162461bcd60e51b815260206004820152600d60248201526c3737903737b731b29039b2ba1760991b6044820152606401610331565b600b6000836001811115612c3257612c3261492a565b6001811115612c4357612c4361492a565b815260208101919091526040016000206008015492915050565b6000600b6000836001811115612c7557612c7561492a565b6001811115612c8657612c8661492a565b815260208101919091526040016000206009015462010000900460ff1692915050565b6000600b6000836001811115612cc157612cc161492a565b6001811115612cd257612cd261492a565b81526020810191909152604001600020600a015460ff1692915050565b600080826001811115612d0457612d0461492a565b14612d10576000611f17565b600192915050565b6001546001600160a01b031663ea98af85612d32836138ed565b612d3f600261a8c0614ec2565b6040516001600160e01b031960e085901b1681526001600160a01b0390921660048301526024820152604401600060405180830381600087803b158015612d8557600080fd5b505af1158015612d99573d6000803e3d6000fd5b50506001546001600160a01b031691506321c02f819050612dc1612dbc84612cef565b6138ed565b6040516001600160e01b031960e084901b1681526001600160a01b039091166004820152602401600060405180830381600087803b158015612e0257600080fd5b505af1158015612e16573d6000803e3d6000fd5b50505050612e22613ae0565b50565b6001546001600160a01b031663ea98af85612e4060006138ed565b612e4d600261a8c0614ec2565b6040516001600160e01b031960e085901b1681526001600160a01b0390921660048301526024820152604401600060405180830381600087803b158015612e9357600080fd5b505af1158015612ea7573d6000803e3d6000fd5b5050600180546001600160a01b0316925063ea98af859150612ec8906138ed565b612ed5600261a8c0614ec2565b6040516001600160e01b031960e085901b1681526001600160a01b0390921660048301526024820152604401600060405180830381600087803b158015612f1b57600080fd5b505af1158015612f2f573d6000803e3d6000fd5b50505050612f3b613ae0565b565b6001546001600160a01b031663ea98af85612f57836138ed565b612d3f600a61a8c0614ec2565b6000600b6000836001811115612f7c57612f7c61492a565b6001811115612f8d57612f8d61492a565b8152602081019190915260400160002060090154610100900460ff1692915050565b6000600460ff8316106130005760405162461bcd60e51b815260206004820152601960248201527824b73b30b634b2103334bc32b21039b637ba1034b73232bc1760391b6044820152606401610331565b600b60008460018111156130165761301661492a565b60018111156130275761302761492a565b81526020019081526020016000206006018260ff166004811061304c5761304c614c5c565b602081049091015460ff601f9092166101000a900416905092915050565b613072613894565b600061307e6000612c5d565b600281111561308f5761308f61492a565b141580156130b8575060006130a46001612c5d565b60028111156130b5576130b561492a565b14155b6130d45760405162461bcd60e51b815260040161033190614a20565b6002600554600160a01b900460ff1660038111156130f4576130f461492a565b146131115760405162461bcd60e51b815260040161033190614a57565b600261311d6000612ca9565b600281111561312e5761312e61492a565b148015613155575060026131426001612ca9565b60028111156131535761315361492a565b145b6131d55760405162461bcd60e51b815260206004820152604560248201527f426f74682070616c796573206861766520746f2072657665616c20746865697260448201527f2063686f69636573206265666f726520657865637574696e67207468652062616064820152643a3a36329760d91b608482015260a401610331565b6131df6000613ba8565b6131e96001613ba8565b60006131f56000613d46565b905060006132036001613d46565b600254608084015160408501519293506000926001600160a01b039092169163fe7869c491906132336001613936565b6040516001600160e01b031960e086901b16815260ff909316600484015260248301919091526044820152606401602060405180830381865afa15801561327e573d6000803e3d6000fd5b505050506040513d601f19601f820116820180604052508101906132a29190614e9c565b60025460055460ff600160a81b90910481166000818152600960209081526040808320838052909152808220600101549051633fa9b6db60e01b815295965090946001600160a01b0390941693633fa9b6db9361330b93928a9291169088908a90600401614ed9565b602060405180830381865afa158015613328573d6000803e3d6000fd5b505050506040513d601f19601f8201168201806040525081019061334c9190614e9c565b600254608085015160408601519293506000926001600160a01b039092169163fe7869c4919061337c6001613936565b6040516001600160e01b031960e086901b16815260ff909316600484015260248301919091526044820152606401602060405180830381865afa1580156133c7573d6000803e3d6000fd5b505050506040513d601f19601f820116820180604052508101906133eb9190614e9c565b60025460055460ff600160a81b9091048116600081815260096020908152604080832060018085529252808320909101549051633fa9b6db60e01b815295965090946001600160a01b0390941693633fa9b6db9361345593928b9291169088908d90600401614ed9565b602060405180830381865afa158015613472573d6000803e3d6000fd5b505050506040513d601f19601f820116820180604052508101906134969190614e9c565b90508063ffffffff168363ffffffff16111561355c5760008052600b6020527fdf7de25b7f1fd6d0b5205f0e18f1f35bd7b8d84cce336588d184533ce43a6f808054610100900460ff169060016134ec83614e3b565b91906101000a81548160ff021916908360ff160217905550507f4a9550107bc708ff1ec210bb0d40da1422d053a4f236a3f5af10bd327a2f7b2c600560159054906101000a900460ff166000806001878660405161354f96959493929190614f28565b60405180910390a1613669565b8063ffffffff168363ffffffff1610156136155760016000819052600b6020527f72c6bfb7988af3a1efa6568f02a999bc52252641c659d85961ca3d372b57d5d98054610100900460ff16916135b183614e3b565b91906101000a81548160ff021916908360ff160217905550507f4a9550107bc708ff1ec210bb0d40da1422d053a4f236a3f5af10bd327a2f7b2c600560159054906101000a900460ff16600060016000858860405161354f96959493929190614f28565b7f4a9550107bc708ff1ec210bb0d40da1422d053a4f236a3f5af10bd327a2f7b2c600560159054906101000a900460ff16600160006001878660405161366096959493929190614f28565b60405180910390a15b60058054600160a81b900460ff1690601561368383614e3b565b91906101000a81548160ff021916908360ff1602179055505060006136a86000613eaa565b905060006136b66001613eaa565b905060008160ff168360ff16116136d6576136d18383614bb7565b6136e0565b6136e08284614bb7565b905060ff8316600314806136f7575060ff82166003145b8061370d575060058054600160a81b900460ff16145b806137385750600560159054906101000a900460ff16600561372f9190614bb7565b60ff168160ff16115b1561380e576005805460ff60a01b1916600360a01b179055613758613ef5565b60ff838116908316818114916000911115613774576001613777565b60005b9050600061378482612cef565b9050600061379183613eaa565b9050600061379e83613eaa565b6005549091507f6650716d59b2f4a8c84aeedec63cca6dc9adb419764b39436130f77f49b27631906137dc90600190600160a81b900460ff16614bb7565b86868686866040516137f396959493929190614f75565b60405180910390a1505050505050505050505050505061388a565b50507fdf7de25b7f1fd6d0b5205f0e18f1f35bd7b8d84cce336588d184533ce43a6f80805460ff199081169091557f72c6bfb7988af3a1efa6568f02a999bc52252641c659d85961ca3d372b57d5d9805490911690555050600554600160a81b900460ff16600090815260076020526040902043905550505050505b612f3b6001600055565b6002600054036138e65760405162461bcd60e51b815260206004820152601f60248201527f5265656e7472616e637947756172643a207265656e7472616e742063616c6c006044820152606401610331565b6002600055565b6000600b60008360018111156139055761390561492a565b60018111156139165761391661492a565b81526020810191909152604001600020546001600160a01b031692915050565b6000600b600083600181111561394e5761394e61492a565b600181111561395f5761395f61492a565b8152602001908152602001600020600101549050919050565b6000600b60008360018111156139905761399061492a565b60018111156139a1576139a161492a565b815260208101919091526040016000206007015460ff1692915050565b600060026139cb83612c5d565b60028111156139dc576139dc61492a565b14613a355760405162461bcd60e51b815260206004820152602360248201527f72616e642e20736c2e206861736e2774206265656e2072657665616c6564207960448201526232ba1760e91b6064820152608401610331565b600a600083600181111561394e5761394e61492a565b613a536145af565b6002546001600160a01b031663e6abb2cc613a6e8585614089565b613a7786613936565b6040516001600160e01b031960e085901b16815260048101929092526024820152604401600060405180830381865afa158015613ab8573d6000803e3d6000fd5b505050506040513d6000823e601f3d908101601f19168201604052612ac29190810190614d7c565b600354600b6020527fdf7de25b7f1fd6d0b5205f0e18f1f35bd7b8d84cce336588d184533ce43a6f7654600160009081527f72c6bfb7988af3a1efa6568f02a999bc52252641c659d85961ca3d372b57d5cf546040805163221ddca360e11b81526001600160a01b039485166004820152918416602483015251929093169263443bb946926044808301939282900301818387803b158015613b8157600080fd5b505af1158015613b95573d6000803e3d6000fd5b50506005805460ff60a01b191690555050565b600554600160a81b900460ff16600090815260096020526040812081836001811115613bd657613bd661492a565b6001811115613be757613be761492a565b8152602081019190915260400160002060010154610100900460ff1690506004816005811115613c1957613c1961492a565b03613c74576001600b6000846001811115613c3657613c3661492a565b6001811115613c4757613c4761492a565b8152602081019190915260400160002060090180549115156101000261ff00199092169190911790555050565b6005816005811115613c8857613c8861492a565b03613cc45760405162461bcd60e51b815260206004820152600c60248201526b556e726561636861626c652160a01b6044820152606401610331565b6001600b6000846001811115613cdc57613cdc61492a565b6001811115613ced57613ced61492a565b8152602001908152602001600020600601826005811115613d1057613d1061492a565b60ff1660048110613d2357613d23614c5c565b602091828204019190066101000a81548160ff0219169083151502179055505050565b613d4e6145af565b6000826001811115613d6257613d6261492a565b1480613d7f57506001826001811115613d7d57613d7d61492a565b145b613dbf5760405162461bcd60e51b815260206004820152601160248201527024b73b30b634b210383630bcb2b924b21760791b6044820152606401610331565b600554600160a81b900460ff16600090815260096020526040812081846001811115613ded57613ded61492a565b6001811115613dfe57613dfe61492a565b8152602081019190915260400160002060010154610100900460ff1690506004816005811115613e3057613e3061492a565b03613e3e57612ac283611f1d565b6005816005811115613e5257613e5261492a565b03613e8f5760405162461bcd60e51b815260206004820152600d60248201526c556e726561636861626c65202160981b6044820152606401610331565b612ac283826005811115613ea557613ea561492a565b613a4b565b6000600b6000836001811115613ec257613ec261492a565b6001811115613ed357613ed361492a565b81526020810191909152604001600020600a0154610100900460ff1692915050565b6003600554600160a01b900460ff166003811115613f1557613f1561492a565b14613f625760405162461bcd60e51b815260206004820152601760248201527f5468697320626174746c65206973206f6e676f696e672e0000000000000000006044820152606401610331565b6000613f6e6000613eaa565b90506000613f7c6001613eaa565b90508060ff168260ff161115613f9d57613f986000600161412f565b613fbf565b8060ff168260ff161015613fb757613f986001600061412f565b613fbf614247565b600354600b6020527fdf7de25b7f1fd6d0b5205f0e18f1f35bd7b8d84cce336588d184533ce43a6f7654600160009081527f72c6bfb7988af3a1efa6568f02a999bc52252641c659d85961ca3d372b57d5cf546040805163221ddca360e11b81526001600160a01b039485166004820152918416602483015251929093169263443bb946926044808301939282900301818387803b15801561406057600080fd5b505af1158015614074573d6000803e3d6000fd5b50506005805460ff60a01b1916905550505050565b6000600460ff8316106140da5760405162461bcd60e51b815260206004820152601960248201527824b73b30b634b2103334bc32b21039b637ba1034b73232bc1760391b6044820152606401610331565b600b60008460018111156140f0576140f061492a565b60018111156141015761410161492a565b81526020019081526020016000206002018260ff166004811061412657614126614c5c565b01549392505050565b600061413a836143f4565b90506000614147836143f4565b90506000600361415c61ffff84166002614fbe565b614167906066614fe8565b6141719190615120565b61418061ffff84166033614fbe565b61418a9190614fbe565b9050600060036141a161ffff808616908716614fe8565b6141ac906066614fe8565b6141b69190615120565b905060006141c48284615137565b60015465ffffffffffff9190911691506001600160a01b0316638b8afcd76141eb896138ed565b6040516001600160e01b031960e084901b1681526001600160a01b03909116600482015260248101849052604401600060405180830381600087803b15801561423357600080fd5b505af1158015610bb1573d6000803e3d6000fd5b600061425360006143f4565b9050600061426160016143f4565b90506000600361427661ffff85166002614fbe565b614281906066614fe8565b61428b9190615120565b61429a61ffff85166033614fbe565b6142a49190614fbe565b9050600060036142b961ffff85166002614fbe565b6142c4906066614fe8565b6142ce9190615120565b6142dd61ffff85166033614fbe565b6142e79190614fbe565b9050600060036142fe61ffff808716908816614fe8565b614309906066614fe8565b6143139190615120565b9050600060036143238386615137565b61432d9190615137565b65ffffffffffff169050600060036143458486615137565b61434f9190615137565b60015465ffffffffffff9190911691506001600160a01b0316638b8afcd761437760006138ed565b6040516001600160e01b031960e084901b1681526001600160a01b03909116600482015260248101859052604401600060405180830381600087803b1580156143bf57600080fd5b505af11580156143d3573d6000803e3d6000fd5b5050600180546001600160a01b03169250638b8afcd791506141eb906138ed565b600080805b600460ff82161015612b1e576002546001600160a01b031663e6abb2cc6144208684614089565b61442987613936565b6040516001600160e01b031960e085901b16815260048101929092526024820152604401600060405180830381865afa15801561446a573d6000803e3d6000fd5b505050506040513d6000823e601f3d908101601f191682016040526144929190810190614d7c565b608001516144a39060ff168361516a565b9150806144af81614e3b565b9150506143f9565b60405180608001604052806004905b6144ce6145af565b8152602001906001900390816144c65790505090565b8260048101928215614512579160200282015b828111156145125782518255916020019190600101906144f7565b5061451e9291506145fa565b5090565b6001830191839082156145125791602002820160005b8382111561457557835183826101000a81548160ff0219169083151502179055509260200192600101602081600001049283019260010302614538565b80156145a25782816101000a81549060ff0219169055600101602081600001049283019260010302614575565b505061451e9291506145fa565b6040518060e0016040528060008019168152602001600081526020016000815260200160608152602001600060ff168152602001600060ff1681526020016145f561460f565b905290565b5b8082111561451e57600081556001016145fb565b60405180602001604052806001906020820280368337509192915050565b80356002811061463c57600080fd5b919050565b60ff81168114612e2257600080fd5b6000806000806080858703121561466657600080fd5b61466f8561462d565b9350602085013561467f81614641565b925060408501356006811061469357600080fd5b9396929550929360600135925050565b600080604083850312156146b657600080fd5b6146bf8361462d565b946020939093013593505050565b6001600160a01b0381168114612e2257600080fd5b634e487b7160e01b600052604160045260246000fd5b60405160e0810167ffffffffffffffff8111828210171561471b5761471b6146e2565b60405290565b600082601f83011261473257600080fd5b6040516080810181811067ffffffffffffffff82111715614755576147556146e2565b60405280608084018581111561476a57600080fd5b845b8181101561478457803583526020928301920161476c565b509195945050505050565b60008060008060008061018087890312156147a957600080fd5b86356147b4816146cd565b955060208701356147c4816146cd565b945060408701359350606087013592506147e18860808901614721565b91506147f1886101008901614721565b90509295509295509295565b60005b83811015614818578181015183820152602001614800565b50506000910152565b8060005b6001811015611e6c57815160ff16845260209384019390910190600101614825565b8051825260208101516020830152604081015160408301526000606082015160e0606085015280518060e086015261010061488882828801602086016147fd565b6080850151925061489e608087018460ff169052565b60a085015192506148b460a087018460ff169052565b60c085015192506148c860c0870184614821565b80601f19601f840116870101935050505092915050565b602081526000612ac26020830184614847565b60006020828403121561490457600080fd5b612ac28261462d565b60006020828403121561491f57600080fd5b8135612ac2816146cd565b634e487b7160e01b600052602160045260246000fd5b600281106149505761495061492a565b9052565b60208101611f178284614940565b60208101600483106149765761497661492a565b91905290565b6000806040838503121561498f57600080fd5b823561499a816146cd565b915060208301356149aa816146cd565b809150509250929050565b600080604083850312156149c857600080fd5b82356146bf81614641565b602080825260009060a0830183820185845b6004811015614a1457601f19878503018352614a02848351614847565b935091840191908401906001016149e5565b50919695505050505050565b60208082526019908201527f72616e6420736c2e20686176656e277420736574207965742e00000000000000604082015260600190565b6020808252818101527f626174746c6520726f756e64206861736e27742073746172746564207965742e604082015260600190565b6020808252600f908201526e24b73b30b634b21038363cb924b21760891b604082015260600190565b60208082526029908201527f5468652063616c6c657220706c7972206973206e6f74207468652076616c69646040820152681030b1b1b7bab73a1760b91b606082015260800190565b634e487b7160e01b600052601160045260246000fd5b80820180821115611f1757611f17614afe565b60ff8316815260408101612ac26020830184614940565b606085901b6001600160601b031916815260f884901b6001600160f81b0319166014820152600060068410614b7557614b7561492a565b5060f89290921b6015830152601682015260360192915050565b60608101614b9d8286614940565b60ff8416602083015260ff83166040830152949350505050565b60ff8281168282160390811115611f1757611f17614afe565b600681106149505761495061492a565b60408101614bee8285614940565b612ac26020830184614bd0565b60ff8516815260808101614c126020830186614940565b60ff8416604083015261229d6060830184614bd0565b600060208284031215614c3a57600080fd5b5051919050565b60408101614c4f8285614940565b8260208301529392505050565b634e487b7160e01b600052603260045260246000fd5b600082601f830112614c8357600080fd5b815167ffffffffffffffff80821115614c9e57614c9e6146e2565b604051601f8301601f19908116603f01168101908282118183101715614cc657614cc66146e2565b81604052838152866020858801011115614cdf57600080fd5b614cf08460208301602089016147fd565b9695505050505050565b805161463c81614641565b600082601f830112614d1657600080fd5b604051602080820182811067ffffffffffffffff82111715614d3a57614d3a6146e2565b6040528184820186811115614d4e57600080fd5b855b81811015614d70578051614d6381614641565b8352918301918301614d50565b50929695505050505050565b600060208284031215614d8e57600080fd5b815167ffffffffffffffff80821115614da657600080fd5b9083019060e08286031215614dba57600080fd5b614dc26146f8565b825181526020830151602082015260408301516040820152606083015182811115614dec57600080fd5b614df887828601614c72565b606083015250614e0a60808401614cfa565b6080820152614e1b60a08401614cfa565b60a0820152614e2d8660c08501614d05565b60c082015295945050505050565b600060ff821660ff8103614e5157614e51614afe565b60010192915050565b600060208284031215614e6c57600080fd5b8151612ac281614641565b60ff8416815260608101614e8e6020830185614940565b826040830152949350505050565b600060208284031215614eae57600080fd5b815163ffffffff81168114612ac257600080fd5b8082028115828204841417611f1757611f17614afe565b60ff8616815260a060208201526000614ef560a0830187614847565b60ff8616604084015263ffffffff851660608401528281036080840152614f1c8185614847565b98975050505050505050565b60ff87168152851515602082015260c08101614f476040830187614940565b614f546060830186614940565b63ffffffff808516608084015280841660a084015250979650505050505050565b60ff87168152851515602082015260c08101614f946040830187614940565b614fa16060830186614940565b60ff8416608083015260ff831660a0830152979650505050505050565b65ffffffffffff818116838216028082169190828114614fe057614fe0614afe565b505092915050565b65ffffffffffff818116838216019080821115612b1e57612b1e614afe565b600181815b80851115615046578165ffffffffffff0482111561502c5761502c614afe565b8085161561503957918102915b93841c939080029061500c565b509250929050565b60008261505d57506001611f17565b8161506a57506000611f17565b8160018114615080576002811461508a576150bd565b6001915050611f17565b60ff84111561509b5761509b614afe565b6001841b915065ffffffffffff8211156150b7576150b7614afe565b50611f17565b5060208310610133831016604e8410600b84101617156150f6575081810a65ffffffffffff8111156150f1576150f1614afe565b611f17565b6151008383615007565b8065ffffffffffff0482111561511857615118614afe565b029392505050565b6000612ac260ff841665ffffffffffff841661504e565b600065ffffffffffff8084168061515e57634e487b7160e01b600052601260045260246000fd5b92169190910492915050565b61ffff818116838216019080821115612b1e57612b1e614afe56fee027f9be9c1460982665a522a9f921be6740545ff3b624b1c0d9eb14b243af3ba26469706673582212209faf9b76e08be53dd397d374a9c303413ac9d247d634424a8439abd73c2d78c364736f6c63430008110033",
    "linkReferences": {
      "src/lib/PLMSeeder.sol": {
        "PLMSeeder": [
          {
            "start": 4072,
            "length": 20
          },
          {
            "start": 8336,
            "length": 20
          }
        ]
      }
    }
  },
  "methodIdentifiers": {
    "commitChoice(uint8,bytes32)": "1d21c324",
    "commitPlayerSeed(uint8,bytes32)": "19b6bf95",
    "forceInitBattle()": "2d65a4ac",
    "getBattleState()": "9585839f",
    "getBondLevelAtBattleStart(uint8,uint256)": "a097e259",
    "getFixedSlotCharInfo(uint8)": "bdc95f80",
    "getNonce(uint8)": "f4fc6341",
    "getPlayerIdFromAddress(address)": "8741808a",
    "getRandomSlotCharInfo(uint8)": "740630d3",
    "getRemainingLevel(uint8)": "c2d71c0b",
    "getRemainingLevelPoint(uint8)": "84f24a60",
    "getTotalSupplyAtBattleStart(uint8)": "c80b39fe",
    "getVirtualRandomSlotCharInfo(uint8,uint256)": "721db6c0",
    "reportLazyRevealment(uint8)": "9b5438bf",
    "revealChoice(uint8,uint8,uint8,bytes32)": "181b113e",
    "revealPlayerSeed(uint8,bytes32)": "8ca18dac",
    "setIPLMMatchOrganizer(address,address)": "966c92a2",
    "startBattle(address,address,uint256,uint256,uint256[4],uint256[4])": "258886bb"
  },
  "id": 40
}