{
  "abi": [
    {
      "inputs": [
        {
          "internalType": "contract IPLMCoin",
          "name": "_coin",
          "type": "address"
        },
        {
          "internalType": "uint256",
          "name": "_maxSupply",
          "type": "uint256"
        }
      ],
      "stateMutability": "nonpayable",
      "type": "constructor"
    },
    {
      "inputs": [
        {
          "internalType": "string",
          "name": "reason",
          "type": "string"
        }
      ],
      "name": "ErrorWithLog",
      "type": "error"
    },
    {
      "anonymous": false,
      "inputs": [
        {
          "indexed": true,
          "internalType": "address",
          "name": "owner",
          "type": "address"
        },
        {
          "indexed": true,
          "internalType": "address",
          "name": "approved",
          "type": "address"
        },
        {
          "indexed": true,
          "internalType": "uint256",
          "name": "tokenId",
          "type": "uint256"
        }
      ],
      "name": "Approval",
      "type": "event"
    },
    {
      "anonymous": false,
      "inputs": [
        {
          "indexed": true,
          "internalType": "address",
          "name": "owner",
          "type": "address"
        },
        {
          "indexed": true,
          "internalType": "address",
          "name": "operator",
          "type": "address"
        },
        {
          "indexed": false,
          "internalType": "bool",
          "name": "approved",
          "type": "bool"
        }
      ],
      "name": "ApprovalForAll",
      "type": "event"
    },
    {
      "anonymous": false,
      "inputs": [
        {
          "indexed": true,
          "internalType": "uint256",
          "name": "tokenId",
          "type": "uint256"
        },
        {
          "components": [
            {
              "internalType": "bytes32",
              "name": "name",
              "type": "bytes32"
            },
            {
              "internalType": "uint256",
              "name": "imgId",
              "type": "uint256"
            },
            {
              "internalType": "uint256",
              "name": "fromBlock",
              "type": "uint256"
            },
            {
              "internalType": "string",
              "name": "characterType",
              "type": "string"
            },
            {
              "internalType": "uint8",
              "name": "level",
              "type": "uint8"
            },
            {
              "internalType": "uint8",
              "name": "rarity",
              "type": "uint8"
            },
            {
              "internalType": "uint8[1]",
              "name": "attributeIds",
              "type": "uint8[1]"
            }
          ],
          "indexed": false,
          "internalType": "struct IPLMData.CharacterInfo",
          "name": "oldCharacterInfo",
          "type": "tuple"
        },
        {
          "components": [
            {
              "internalType": "bytes32",
              "name": "name",
              "type": "bytes32"
            },
            {
              "internalType": "uint256",
              "name": "imgId",
              "type": "uint256"
            },
            {
              "internalType": "uint256",
              "name": "fromBlock",
              "type": "uint256"
            },
            {
              "internalType": "string",
              "name": "characterType",
              "type": "string"
            },
            {
              "internalType": "uint8",
              "name": "level",
              "type": "uint8"
            },
            {
              "internalType": "uint8",
              "name": "rarity",
              "type": "uint8"
            },
            {
              "internalType": "uint8[1]",
              "name": "attributeIds",
              "type": "uint8[1]"
            }
          ],
          "indexed": false,
          "internalType": "struct IPLMData.CharacterInfo",
          "name": "newCharacterInfo",
          "type": "tuple"
        }
      ],
      "name": "CharacterInfoChanged",
      "type": "event"
    },
    {
      "anonymous": false,
      "inputs": [
        {
          "indexed": true,
          "internalType": "address",
          "name": "from",
          "type": "address"
        },
        {
          "indexed": true,
          "internalType": "address",
          "name": "to",
          "type": "address"
        },
        {
          "indexed": true,
          "internalType": "uint256",
          "name": "tokenId",
          "type": "uint256"
        }
      ],
      "name": "Transfer",
      "type": "event"
    },
    {
      "anonymous": false,
      "inputs": [
        {
          "components": [
            {
              "internalType": "bytes32",
              "name": "name",
              "type": "bytes32"
            },
            {
              "internalType": "uint256",
              "name": "imgId",
              "type": "uint256"
            },
            {
              "internalType": "uint256",
              "name": "fromBlock",
              "type": "uint256"
            },
            {
              "internalType": "string",
              "name": "characterType",
              "type": "string"
            },
            {
              "internalType": "uint8",
              "name": "level",
              "type": "uint8"
            },
            {
              "internalType": "uint8",
              "name": "rarity",
              "type": "uint8"
            },
            {
              "internalType": "uint8[1]",
              "name": "attributeIds",
              "type": "uint8[1]"
            }
          ],
          "indexed": true,
          "internalType": "struct IPLMData.CharacterInfo",
          "name": "characterInfo",
          "type": "tuple"
        }
      ],
      "name": "levelUped",
      "type": "event"
    },
    {
      "inputs": [
        {
          "internalType": "address",
          "name": "to",
          "type": "address"
        },
        {
          "internalType": "uint256",
          "name": "tokenId",
          "type": "uint256"
        }
      ],
      "name": "approve",
      "outputs": [],
      "stateMutability": "nonpayable",
      "type": "function"
    },
    {
      "inputs": [
        {
          "internalType": "uint256",
          "name": "",
          "type": "uint256"
        }
      ],
      "name": "attributeOddsPerRarity",
      "outputs": [
        {
          "internalType": "uint8",
          "name": "",
          "type": "uint8"
        }
      ],
      "stateMutability": "view",
      "type": "function"
    },
    {
      "inputs": [
        {
          "internalType": "uint256",
          "name": "",
          "type": "uint256"
        }
      ],
      "name": "attributeRarities",
      "outputs": [
        {
          "internalType": "uint8",
          "name": "",
          "type": "uint8"
        }
      ],
      "stateMutability": "view",
      "type": "function"
    },
    {
      "inputs": [
        {
          "internalType": "address",
          "name": "owner",
          "type": "address"
        }
      ],
      "name": "balanceOf",
      "outputs": [
        {
          "internalType": "uint256",
          "name": "",
          "type": "uint256"
        }
      ],
      "stateMutability": "view",
      "type": "function"
    },
    {
      "inputs": [
        {
          "internalType": "uint256",
          "name": "tokenId",
          "type": "uint256"
        }
      ],
      "name": "burn",
      "outputs": [],
      "stateMutability": "nonpayable",
      "type": "function"
    },
    {
      "inputs": [
        {
          "internalType": "uint8",
          "name": "level",
          "type": "uint8"
        },
        {
          "internalType": "uint256",
          "name": "startBlock",
          "type": "uint256"
        }
      ],
      "name": "calcCurrentBondLevel",
      "outputs": [
        {
          "internalType": "uint32",
          "name": "",
          "type": "uint32"
        }
      ],
      "stateMutability": "view",
      "type": "function"
    },
    {
      "inputs": [
        {
          "components": [
            {
              "internalType": "bytes32",
              "name": "name",
              "type": "bytes32"
            },
            {
              "internalType": "uint256",
              "name": "imgId",
              "type": "uint256"
            },
            {
              "internalType": "uint256",
              "name": "fromBlock",
              "type": "uint256"
            },
            {
              "internalType": "string",
              "name": "characterType",
              "type": "string"
            },
            {
              "internalType": "uint8",
              "name": "level",
              "type": "uint8"
            },
            {
              "internalType": "uint8",
              "name": "rarity",
              "type": "uint8"
            },
            {
              "internalType": "uint8[1]",
              "name": "attributeIds",
              "type": "uint8[1]"
            }
          ],
          "internalType": "struct IPLMData.CharacterInfo[4]",
          "name": "charInfos",
          "type": "tuple[4]"
        }
      ],
      "name": "calcLevelPoint",
      "outputs": [
        {
          "internalType": "uint8",
          "name": "",
          "type": "uint8"
        }
      ],
      "stateMutability": "pure",
      "type": "function"
    },
    {
      "inputs": [
        {
          "internalType": "uint8",
          "name": "numRounds",
          "type": "uint8"
        },
        {
          "components": [
            {
              "internalType": "bytes32",
              "name": "name",
              "type": "bytes32"
            },
            {
              "internalType": "uint256",
              "name": "imgId",
              "type": "uint256"
            },
            {
              "internalType": "uint256",
              "name": "fromBlock",
              "type": "uint256"
            },
            {
              "internalType": "string",
              "name": "characterType",
              "type": "string"
            },
            {
              "internalType": "uint8",
              "name": "level",
              "type": "uint8"
            },
            {
              "internalType": "uint8",
              "name": "rarity",
              "type": "uint8"
            },
            {
              "internalType": "uint8[1]",
              "name": "attributeIds",
              "type": "uint8[1]"
            }
          ],
          "internalType": "struct IPLMData.CharacterInfo",
          "name": "player1Char",
          "type": "tuple"
        },
        {
          "internalType": "uint8",
          "name": "player1LevelPoint",
          "type": "uint8"
        },
        {
          "internalType": "uint32",
          "name": "player1BondLevel",
          "type": "uint32"
        },
        {
          "components": [
            {
              "internalType": "bytes32",
              "name": "name",
              "type": "bytes32"
            },
            {
              "internalType": "uint256",
              "name": "imgId",
              "type": "uint256"
            },
            {
              "internalType": "uint256",
              "name": "fromBlock",
              "type": "uint256"
            },
            {
              "internalType": "string",
              "name": "characterType",
              "type": "string"
            },
            {
              "internalType": "uint8",
              "name": "level",
              "type": "uint8"
            },
            {
              "internalType": "uint8",
              "name": "rarity",
              "type": "uint8"
            },
            {
              "internalType": "uint8[1]",
              "name": "attributeIds",
              "type": "uint8[1]"
            }
          ],
          "internalType": "struct IPLMData.CharacterInfo",
          "name": "player2Char",
          "type": "tuple"
        }
      ],
      "name": "calcPower",
      "outputs": [
        {
          "internalType": "uint32",
          "name": "",
          "type": "uint32"
        }
      ],
      "stateMutability": "view",
      "type": "function"
    },
    {
      "inputs": [
        {
          "internalType": "uint8",
          "name": "level",
          "type": "uint8"
        },
        {
          "internalType": "uint256",
          "name": "startBlock",
          "type": "uint256"
        },
        {
          "internalType": "uint256",
          "name": "lastBlock",
          "type": "uint256"
        }
      ],
      "name": "calcPriorBondLevel",
      "outputs": [
        {
          "internalType": "uint32",
          "name": "",
          "type": "uint32"
        }
      ],
      "stateMutability": "pure",
      "type": "function"
    },
    {
      "inputs": [
        {
          "components": [
            {
              "internalType": "bytes32",
              "name": "name",
              "type": "bytes32"
            },
            {
              "internalType": "uint256",
              "name": "imgId",
              "type": "uint256"
            },
            {
              "internalType": "uint256",
              "name": "fromBlock",
              "type": "uint256"
            },
            {
              "internalType": "string",
              "name": "characterType",
              "type": "string"
            },
            {
              "internalType": "uint8",
              "name": "level",
              "type": "uint8"
            },
            {
              "internalType": "uint8",
              "name": "rarity",
              "type": "uint8"
            },
            {
              "internalType": "uint8[1]",
              "name": "attributeIds",
              "type": "uint8[1]"
            }
          ],
          "internalType": "struct IPLMData.CharacterInfo[4]",
          "name": "charInfos",
          "type": "tuple[4]"
        }
      ],
      "name": "calcRandomSlotLevel",
      "outputs": [
        {
          "internalType": "uint8",
          "name": "",
          "type": "uint8"
        }
      ],
      "stateMutability": "pure",
      "type": "function"
    },
    {
      "inputs": [
        {
          "internalType": "uint256",
          "name": "",
          "type": "uint256"
        }
      ],
      "name": "characterTypeOdds",
      "outputs": [
        {
          "internalType": "uint8",
          "name": "",
          "type": "uint8"
        }
      ],
      "stateMutability": "view",
      "type": "function"
    },
    {
      "inputs": [
        {
          "internalType": "uint256",
          "name": "",
          "type": "uint256"
        }
      ],
      "name": "characterTypes",
      "outputs": [
        {
          "internalType": "string",
          "name": "",
          "type": "string"
        }
      ],
      "stateMutability": "view",
      "type": "function"
    },
    {
      "inputs": [],
      "name": "countAttributes",
      "outputs": [
        {
          "internalType": "uint256",
          "name": "",
          "type": "uint256"
        }
      ],
      "stateMutability": "view",
      "type": "function"
    },
    {
      "inputs": [],
      "name": "countCharacterTypes",
      "outputs": [
        {
          "internalType": "uint256",
          "name": "",
          "type": "uint256"
        }
      ],
      "stateMutability": "view",
      "type": "function"
    },
    {
      "inputs": [],
      "name": "getAllCharacterInfo",
      "outputs": [
        {
          "components": [
            {
              "internalType": "bytes32",
              "name": "name",
              "type": "bytes32"
            },
            {
              "internalType": "uint256",
              "name": "imgId",
              "type": "uint256"
            },
            {
              "internalType": "uint256",
              "name": "fromBlock",
              "type": "uint256"
            },
            {
              "internalType": "string",
              "name": "characterType",
              "type": "string"
            },
            {
              "internalType": "uint8",
              "name": "level",
              "type": "uint8"
            },
            {
              "internalType": "uint8",
              "name": "rarity",
              "type": "uint8"
            },
            {
              "internalType": "uint8[1]",
              "name": "attributeIds",
              "type": "uint8[1]"
            }
          ],
          "internalType": "struct IPLMData.CharacterInfo[]",
          "name": "",
          "type": "tuple[]"
        }
      ],
      "stateMutability": "view",
      "type": "function"
    },
    {
      "inputs": [
        {
          "internalType": "address",
          "name": "account",
          "type": "address"
        }
      ],
      "name": "getAllTokenOwned",
      "outputs": [
        {
          "internalType": "uint256[]",
          "name": "",
          "type": "uint256[]"
        }
      ],
      "stateMutability": "view",
      "type": "function"
    },
    {
      "inputs": [
        {
          "internalType": "uint256",
          "name": "tokenId",
          "type": "uint256"
        }
      ],
      "name": "getApproved",
      "outputs": [
        {
          "internalType": "address",
          "name": "",
          "type": "address"
        }
      ],
      "stateMutability": "view",
      "type": "function"
    },
    {
      "inputs": [],
      "name": "getAttributeRarities",
      "outputs": [
        {
          "internalType": "uint8[]",
          "name": "",
          "type": "uint8[]"
        }
      ],
      "stateMutability": "view",
      "type": "function"
    },
    {
      "inputs": [],
      "name": "getCharacterTypes",
      "outputs": [
        {
          "internalType": "string[]",
          "name": "",
          "type": "string[]"
        }
      ],
      "stateMutability": "view",
      "type": "function"
    },
    {
      "inputs": [],
      "name": "getCumulativeAttributeOdds",
      "outputs": [
        {
          "internalType": "uint8[]",
          "name": "",
          "type": "uint8[]"
        }
      ],
      "stateMutability": "view",
      "type": "function"
    },
    {
      "inputs": [],
      "name": "getCumulativeCharacterTypeOdds",
      "outputs": [
        {
          "internalType": "uint8[]",
          "name": "",
          "type": "uint8[]"
        }
      ],
      "stateMutability": "view",
      "type": "function"
    },
    {
      "inputs": [
        {
          "internalType": "uint256",
          "name": "tokenId",
          "type": "uint256"
        }
      ],
      "name": "getCurrentCharacterInfo",
      "outputs": [
        {
          "components": [
            {
              "internalType": "bytes32",
              "name": "name",
              "type": "bytes32"
            },
            {
              "internalType": "uint256",
              "name": "imgId",
              "type": "uint256"
            },
            {
              "internalType": "uint256",
              "name": "fromBlock",
              "type": "uint256"
            },
            {
              "internalType": "string",
              "name": "characterType",
              "type": "string"
            },
            {
              "internalType": "uint8",
              "name": "level",
              "type": "uint8"
            },
            {
              "internalType": "uint8",
              "name": "rarity",
              "type": "uint8"
            },
            {
              "internalType": "uint8[1]",
              "name": "attributeIds",
              "type": "uint8[1]"
            }
          ],
          "internalType": "struct IPLMData.CharacterInfo",
          "name": "",
          "type": "tuple"
        }
      ],
      "stateMutability": "view",
      "type": "function"
    },
    {
      "inputs": [],
      "name": "getDealer",
      "outputs": [
        {
          "internalType": "address",
          "name": "",
          "type": "address"
        }
      ],
      "stateMutability": "view",
      "type": "function"
    },
    {
      "inputs": [
        {
          "internalType": "uint256",
          "name": "tokenId",
          "type": "uint256"
        }
      ],
      "name": "getElapsedFromBlock",
      "outputs": [
        {
          "internalType": "uint256",
          "name": "",
          "type": "uint256"
        }
      ],
      "stateMutability": "view",
      "type": "function"
    },
    {
      "inputs": [
        {
          "internalType": "uint256",
          "name": "imgId",
          "type": "uint256"
        }
      ],
      "name": "getImgURI",
      "outputs": [
        {
          "internalType": "string",
          "name": "",
          "type": "string"
        }
      ],
      "stateMutability": "view",
      "type": "function"
    },
    {
      "inputs": [
        {
          "internalType": "uint256",
          "name": "tokenId",
          "type": "uint256"
        }
      ],
      "name": "getNecessaryExp",
      "outputs": [
        {
          "internalType": "uint256",
          "name": "",
          "type": "uint256"
        }
      ],
      "stateMutability": "view",
      "type": "function"
    },
    {
      "inputs": [],
      "name": "getNumImg",
      "outputs": [
        {
          "internalType": "uint256",
          "name": "",
          "type": "uint256"
        }
      ],
      "stateMutability": "view",
      "type": "function"
    },
    {
      "inputs": [
        {
          "internalType": "uint256",
          "name": "amount",
          "type": "uint256"
        }
      ],
      "name": "getPoolingPercentage",
      "outputs": [
        {
          "internalType": "uint256",
          "name": "",
          "type": "uint256"
        }
      ],
      "stateMutability": "view",
      "type": "function"
    },
    {
      "inputs": [
        {
          "internalType": "uint256",
          "name": "tokenId",
          "type": "uint256"
        },
        {
          "internalType": "uint256",
          "name": "blockNumber",
          "type": "uint256"
        }
      ],
      "name": "getPriorCharacterInfo",
      "outputs": [
        {
          "components": [
            {
              "internalType": "bytes32",
              "name": "name",
              "type": "bytes32"
            },
            {
              "internalType": "uint256",
              "name": "imgId",
              "type": "uint256"
            },
            {
              "internalType": "uint256",
              "name": "fromBlock",
              "type": "uint256"
            },
            {
              "internalType": "string",
              "name": "characterType",
              "type": "string"
            },
            {
              "internalType": "uint8",
              "name": "level",
              "type": "uint8"
            },
            {
              "internalType": "uint8",
              "name": "rarity",
              "type": "uint8"
            },
            {
              "internalType": "uint8[1]",
              "name": "attributeIds",
              "type": "uint8[1]"
            }
          ],
          "internalType": "struct IPLMData.CharacterInfo",
          "name": "",
          "type": "tuple"
        }
      ],
      "stateMutability": "view",
      "type": "function"
    },
    {
      "inputs": [
        {
          "internalType": "uint256",
          "name": "blockNumber",
          "type": "uint256"
        }
      ],
      "name": "getPriorTotalSupply",
      "outputs": [
        {
          "internalType": "uint256",
          "name": "",
          "type": "uint256"
        }
      ],
      "stateMutability": "view",
      "type": "function"
    },
    {
      "inputs": [
        {
          "internalType": "address",
          "name": "owner",
          "type": "address"
        },
        {
          "internalType": "address",
          "name": "operator",
          "type": "address"
        }
      ],
      "name": "isApprovedForAll",
      "outputs": [
        {
          "internalType": "bool",
          "name": "",
          "type": "bool"
        }
      ],
      "stateMutability": "view",
      "type": "function"
    },
    {
      "inputs": [
        {
          "internalType": "bytes32",
          "name": "name",
          "type": "bytes32"
        }
      ],
      "name": "mint",
      "outputs": [
        {
          "internalType": "uint256",
          "name": "",
          "type": "uint256"
        }
      ],
      "stateMutability": "nonpayable",
      "type": "function"
    },
    {
      "inputs": [],
      "name": "name",
      "outputs": [
        {
          "internalType": "string",
          "name": "",
          "type": "string"
        }
      ],
      "stateMutability": "view",
      "type": "function"
    },
    {
      "inputs": [
        {
          "internalType": "uint256",
          "name": "",
          "type": "uint256"
        }
      ],
      "name": "numCharInfoCheckpoints",
      "outputs": [
        {
          "internalType": "uint32",
          "name": "",
          "type": "uint32"
        }
      ],
      "stateMutability": "view",
      "type": "function"
    },
    {
      "inputs": [
        {
          "internalType": "uint256",
          "name": "tokenId",
          "type": "uint256"
        }
      ],
      "name": "ownerOf",
      "outputs": [
        {
          "internalType": "address",
          "name": "",
          "type": "address"
        }
      ],
      "stateMutability": "view",
      "type": "function"
    },
    {
      "inputs": [
        {
          "internalType": "uint256",
          "name": "",
          "type": "uint256"
        }
      ],
      "name": "poolingPercentageTable",
      "outputs": [
        {
          "internalType": "uint256",
          "name": "",
          "type": "uint256"
        }
      ],
      "stateMutability": "view",
      "type": "function"
    },
    {
      "inputs": [
        {
          "internalType": "address",
          "name": "from",
          "type": "address"
        },
        {
          "internalType": "address",
          "name": "to",
          "type": "address"
        },
        {
          "internalType": "uint256",
          "name": "tokenId",
          "type": "uint256"
        }
      ],
      "name": "safeTransferFrom",
      "outputs": [],
      "stateMutability": "nonpayable",
      "type": "function"
    },
    {
      "inputs": [
        {
          "internalType": "address",
          "name": "from",
          "type": "address"
        },
        {
          "internalType": "address",
          "name": "to",
          "type": "address"
        },
        {
          "internalType": "uint256",
          "name": "tokenId",
          "type": "uint256"
        },
        {
          "internalType": "bytes",
          "name": "data",
          "type": "bytes"
        }
      ],
      "name": "safeTransferFrom",
      "outputs": [],
      "stateMutability": "nonpayable",
      "type": "function"
    },
    {
      "inputs": [
        {
          "internalType": "address",
          "name": "operator",
          "type": "address"
        },
        {
          "internalType": "bool",
          "name": "approved",
          "type": "bool"
        }
      ],
      "name": "setApprovalForAll",
      "outputs": [],
      "stateMutability": "nonpayable",
      "type": "function"
    },
    {
      "inputs": [
        {
          "internalType": "string",
          "name": "_newBaseImgURI",
          "type": "string"
        }
      ],
      "name": "setBaseImgURI",
      "outputs": [],
      "stateMutability": "nonpayable",
      "type": "function"
    },
    {
      "inputs": [
        {
          "internalType": "address",
          "name": "newDealer",
          "type": "address"
        }
      ],
      "name": "setDealer",
      "outputs": [],
      "stateMutability": "nonpayable",
      "type": "function"
    },
    {
      "inputs": [
        {
          "internalType": "uint256",
          "name": "_numImg",
          "type": "uint256"
        }
      ],
      "name": "setNumImg",
      "outputs": [],
      "stateMutability": "nonpayable",
      "type": "function"
    },
    {
      "inputs": [
        {
          "internalType": "bytes4",
          "name": "interfaceId",
          "type": "bytes4"
        }
      ],
      "name": "supportsInterface",
      "outputs": [
        {
          "internalType": "bool",
          "name": "",
          "type": "bool"
        }
      ],
      "stateMutability": "view",
      "type": "function"
    },
    {
      "inputs": [],
      "name": "symbol",
      "outputs": [
        {
          "internalType": "string",
          "name": "",
          "type": "string"
        }
      ],
      "stateMutability": "view",
      "type": "function"
    },
    {
      "inputs": [
        {
          "internalType": "uint256",
          "name": "index",
          "type": "uint256"
        }
      ],
      "name": "tokenByIndex",
      "outputs": [
        {
          "internalType": "uint256",
          "name": "",
          "type": "uint256"
        }
      ],
      "stateMutability": "view",
      "type": "function"
    },
    {
      "inputs": [
        {
          "internalType": "address",
          "name": "owner",
          "type": "address"
        },
        {
          "internalType": "uint256",
          "name": "index",
          "type": "uint256"
        }
      ],
      "name": "tokenOfOwnerByIndex",
      "outputs": [
        {
          "internalType": "uint256",
          "name": "",
          "type": "uint256"
        }
      ],
      "stateMutability": "view",
      "type": "function"
    },
    {
      "inputs": [
        {
          "internalType": "uint256",
          "name": "tokenId",
          "type": "uint256"
        }
      ],
      "name": "tokenURI",
      "outputs": [
        {
          "internalType": "string",
          "name": "",
          "type": "string"
        }
      ],
      "stateMutability": "view",
      "type": "function"
    },
    {
      "inputs": [],
      "name": "totalSupply",
      "outputs": [
        {
          "internalType": "uint256",
          "name": "",
          "type": "uint256"
        }
      ],
      "stateMutability": "view",
      "type": "function"
    },
    {
      "inputs": [
        {
          "internalType": "address",
          "name": "from",
          "type": "address"
        },
        {
          "internalType": "address",
          "name": "to",
          "type": "address"
        },
        {
          "internalType": "uint256",
          "name": "tokenId",
          "type": "uint256"
        }
      ],
      "name": "transferFrom",
      "outputs": [],
      "stateMutability": "nonpayable",
      "type": "function"
    },
    {
      "inputs": [
        {
          "internalType": "uint256",
          "name": "tokenId",
          "type": "uint256"
        }
      ],
      "name": "updateLevel",
      "outputs": [],
      "stateMutability": "nonpayable",
      "type": "function"
    }
  ],
  "bytecode": {
    "object": "0x600460e0908152634669726560e01b610100526080908152600561012081815264477261737360d81b6101405260a0526101a0604052610160908152642bb0ba32b960d91b6101805260c0526200005b90600a90600362000285565b5060408051606081018252600180825260208201819052918101919091526200008990600b906003620002e2565b50604080516101408101825260018082526004602083018190526003938301849052606083018490526080830193909352600260a0830181905260c083015260e08201526101008101919091526005610120820152620000ee90600c90600a620002e2565b506040805160a08101825260238152601e6020820152601491810191909152600a60608201526005608082018190526200012b91600d91620002e2565b506026600e556040805160e08101825260058152600a60208201526014918101919091526017606082015260216080820152602860a0820152602d60c08201526200017b90600f9060076200038b565b506013805460ff60a01b19169055604080516080810190915260488082526200613e6020830139601690620001b19082620004ed565b506000601755348015620001c457600080fd5b506040516200618638038062006186833981016040819052620001e791620005b9565b60405180604001604052806009815260200168506f6c796c656d6d6160b81b81525060405180604001604052806003815260200162504c4d60e81b8152508160009081620002369190620004ed565b506001620002458282620004ed565b505060016010555060118054336001600160a01b031991821617909155601580549091166001600160a01b039390931692909217909155601455620005f5565b828054828255906000526020600020908101928215620002d0579160200282015b82811115620002d05782518290620002bf9082620004ed565b5091602001919060010190620002a6565b50620002de929150620003ce565b5090565b82805482825590600052602060002090601f016020900481019282156200037d5791602002820160005b838211156200034c57835183826101000a81548160ff021916908360ff16021790555092602001926001016020816000010492830192600103026200030c565b80156200037b5782816101000a81549060ff02191690556001016020816000010492830192600103026200034c565b505b50620002de929150620003ef565b8280548282559060005260206000209081019282156200037d579160200282015b828111156200037d578251829060ff16905591602001919060010190620003ac565b80821115620002de576000620003e5828262000406565b50600101620003ce565b5b80821115620002de5760008155600101620003f0565b50805462000414906200045e565b6000825580601f1062000425575050565b601f016020900490600052602060002090810190620004459190620003ef565b50565b634e487b7160e01b600052604160045260246000fd5b600181811c908216806200047357607f821691505b6020821081036200049457634e487b7160e01b600052602260045260246000fd5b50919050565b601f821115620004e857600081815260208120601f850160051c81016020861015620004c35750805b601f850160051c820191505b81811015620004e457828155600101620004cf565b5050505b505050565b81516001600160401b0381111562000509576200050962000448565b62000521816200051a84546200045e565b846200049a565b602080601f831160018114620005595760008415620005405750858301515b600019600386901b1c1916600185901b178555620004e4565b600085815260208120601f198616915b828110156200058a5788860151825594840194600190910190840162000569565b5085821015620005a95787850151600019600388901b60f8161c191681555b5050505050600190811b01905550565b60008060408385031215620005cd57600080fd5b82516001600160a01b0381168114620005e557600080fd5b6020939093015192949293505050565b615b3980620006056000396000f3fe608060405234801561001057600080fd5b50600436106102d55760003560e01c806367a2f53e11610182578063ae404eda116100e9578063c87b56dd116100a2578063ccc58f0e1161007c578063ccc58f0e1461068e578063e6abb2cc146106a1578063e985e9c5146106b4578063fe7869c4146106f057600080fd5b8063c87b56dd14610655578063c91ff61414610668578063c9f2ceb21461067b57600080fd5b8063ae404eda146105f9578063b229bd4e1461060c578063b44528f214610614578063b88d4fde14610627578063b9dfbd361461063a578063c0cd479c1461064257600080fd5b806395d89b411161013b57806395d89b411461059257806396195f461461059a578063996b39fd146105ba5780639cf6d1af146105c2578063a22cb465146105d3578063adf2cead146105e657600080fd5b806367a2f53e1461051e57806370a0823114610533578063861ca327146105465780638f1f1936146105595780638fe3e0b21461056c57806392e0150b1461057f57600080fd5b806323b872dd1161024157806342966c68116101fa5780634f6ccce7116101d45780634f6ccce7146104c55780636352211e146104d8578063635aca77146104eb57806367034fbe1461050b57600080fd5b806342966c681461048a57806343c7243d1461049d57806346561ec6146104b257600080fd5b806323b872dd1461042e5780632908238a146104415780632f745c59146104495780633f82c72b1461045c5780633fa9b6db1461046457806342842e0e1461047757600080fd5b806318160ddd1161029357806318160ddd1461038b5780631a62cd23146103935780631c481466146103a65780631d46edb5146103e15780631e665f32146104065780631fc18f2f1461041957600080fd5b80629f7e21146102da57806301ffc9a71461030057806306fdde031461032357806307a7682b14610338578063081812fc1461034b578063095ea7b314610376575b600080fd5b6102ed6102e83660046147a8565b610703565b6040519081526020015b60405180910390f35b61031361030e3660046147d7565b6107b2565b60405190151581526020016102f7565b61032b6107dd565b6040516102f79190614844565b6102ed6103463660046147a8565b61086f565b61035e6103593660046147a8565b6109f0565b6040516001600160a01b0390911681526020016102f7565b61038961038436600461486e565b610a17565b005b6008546102ed565b6102ed6103a13660046147a8565b610b2c565b6103cc6103b43660046147a8565b60196020526000908152604090205463ffffffff1681565b60405163ffffffff90911681526020016102f7565b6103f46103ef3660046147a8565b610b4a565b60405160ff90911681526020016102f7565b610389610414366004614898565b610b7e565b610421610bde565b6040516102f791906148b3565b61038961043c3660046148fa565b610d99565b610421610dca565b6102ed61045736600461486e565b610e3f565b600e546102ed565b6103cc610472366004614957565b610ed5565b6103896104853660046148fa565b61131d565b6103896104983660046147a8565b611338565b6104a56113c2565b6040516102f79190614a89565b6103cc6104c0366004614ade565b61146d565b6102ed6104d33660046147a8565b61147a565b61035e6104e63660046147a8565b6114fb565b6104fe6104f9366004614898565b61155b565b6040516102f79190614afc565b610389610519366004614b34565b6115fc565b610526611633565b6040516102f79190614ba5565b6102ed610541366004614898565b61170c565b6103896105543660046147a8565b611792565b6103f46105673660046147a8565b6117c1565b6102ed61057a3660046147a8565b6117d1565b61038961058d3660046147a8565b6117f2565b61032b611b38565b6105ad6105a83660046147a8565b611b47565b6040516102f79190614bfa565b600a546102ed565b6012546001600160a01b031661035e565b6103896105e1366004614c1b565b611d25565b6102ed6105f43660046147a8565b611d34565b6103f4610607366004614c52565b611de4565b600c546102ed565b6102ed6106223660046147a8565b611e52565b610389610635366004614cce565b611e6b565b610421611ea3565b61032b6106503660046147a8565b61226b565b61032b6106633660046147a8565b6122c3565b6103f46106763660046147a8565b612523565b6103f4610689366004614c52565b612533565b61032b61069c3660046147a8565b6125d2565b6105ad6106af366004614d91565b61267e565b6103136106c2366004614db3565b6001600160a01b03918216600090815260056020908152604080832093909416825291909152205460ff1690565b6103cc6106fe366004614de6565b6128b6565b6000804383106107745760405162461bcd60e51b815260206004820152603160248201527f504c4d546f6b656e3a3a6765745072696f72546f6b656e537570706c793a206e6044820152701bdd081e595d0819195d195c9b5a5b9959607a1b60648201526084015b60405180910390fd5b600080610780856128c3565b91509150806107925750909392505050565b5063ffffffff166000908152601a60205260409020600101549392505050565b60006001600160e01b0319821663780e9d6360e01b14806107d757506107d782612a46565b92915050565b6060600080546107ec90614e1b565b80601f016020809104026020016040519081016040528092919081815260200182805461081890614e1b565b80156108655780601f1061083a57610100808354040283529160200191610865565b820191906000526020600020905b81548152906001019060200180831161084857829003601f168201915b5050505050905090565b600081600010801561088a57506804563918244f4000008211155b156108b557600f6000815481106108a3576108a3614e4f565b90600052602060002001549050919050565b816804563918244f4000001080156108d657506808ac7230489e8000008211155b156108ef57600f6001815481106108a3576108a3614e4f565b816808ac7230489e8000001080156109105750680ad78ebc5ac62000008211155b1561092957600f6002815481106108a3576108a3614e4f565b81680ad78ebc5ac620000010801561094a5750680d02ab486cedc000008211155b1561096357600f6003815481106108a3576108a3614e4f565b81680d02ab486cedc000001080156109845750680f2dc7d47f156000008211155b1561099d57600f6004815481106108a3576108a3614e4f565b81680f2dc7d47f156000001080156109be5750681158e460913d0000008211155b156109d757600f6005815481106108a3576108a3614e4f565b600f6006815481106108a3576108a3614e4f565b919050565b60006109fb82612a96565b506000908152600460205260409020546001600160a01b031690565b6000610a22826114fb565b9050806001600160a01b0316836001600160a01b031603610a8f5760405162461bcd60e51b815260206004820152602160248201527f4552433732313a20617070726f76616c20746f2063757272656e74206f776e656044820152603960f91b606482015260840161076b565b336001600160a01b0382161480610aab5750610aab81336106c2565b610b1d5760405162461bcd60e51b815260206004820152603d60248201527f4552433732313a20617070726f76652063616c6c6572206973206e6f7420746f60448201527f6b656e206f776e6572206f7220617070726f76656420666f7220616c6c000000606482015260840161076b565b610b278383612af5565b505050565b600080610b3883611b47565b9050610b4381612b63565b9392505050565b600c8181548110610b5a57600080fd5b9060005260206000209060209182820401919006915054906101000a900460ff1681565b6011546001600160a01b03163314610ba85760405162461bcd60e51b815260040161076b90614e65565b6013805460ff60a01b1916600160a01b179055601280546001600160a01b039092166001600160a01b0319909216919091179055565b600b54600a5460609114610c4e5760405162461bcd60e51b815260206004820152603160248201527f63686172616374657254797065732e6c656e67746820213d20636861726163746044820152700cae4a8f2e0ca9ec8c8e65cd8cadccee8d607b1b606482015260840161076b565b600a546000816001600160401b03811115610c6b57610c6b614c8c565b604051908082528060200260200182016040528015610c94578160200160208202803683370190505b509050600b600081548110610cab57610cab614e4f565b90600052602060002090602091828204019190069054906101000a900460ff1681600081518110610cde57610cde614e4f565b60ff9092166020928302919091019091015260015b82811015610d9257600b8181548110610d0e57610d0e614e4f565b60009182526020918290209181049091015460ff601f9092166101000a90041682610d3a600184614ec7565b81518110610d4a57610d4a614e4f565b6020026020010151610d5c9190614eda565b828281518110610d6e57610d6e614e4f565b60ff9092166020928302919091019091015280610d8a81614ef3565b915050610cf3565b5092915050565b610da33382612b79565b610dbf5760405162461bcd60e51b815260040161076b90614f0c565b610b27838383612bf7565b6060600c80548060200260200160405190810160405280929190818152602001828054801561086557602002820191906000526020600020906000905b825461010083900a900460ff16815260206001928301818104948501949093039092029101808411610e075790505050505050905090565b6000610e4a8361170c565b8210610eac5760405162461bcd60e51b815260206004820152602b60248201527f455243373231456e756d657261626c653a206f776e657220696e646578206f7560448201526a74206f6620626f756e647360a81b606482015260840161076b565b506001600160a01b03919091166000908152600660209081526040808320938352929052205490565b6000614000600a8280610f00610eee60608b018b614f59565b610efb60608a018a614f59565b612d68565b60ff9182169350169050600083610f1d60a08c0160808d01614f9f565b610f279190614fbc565b60ff169050610f36601e612f2b565b15610f4857610f458882614fd8565b90505b610f5860e08b0160c08c01614f9f565b60ff16600003610f9357610f6c848a614fbc565b610f799060ff1682614fd8565b9050610f8c8163ffffffff168484612fb1565b905061130f565b610fa360e08b0160c08c01614f9f565b60ff1660010361101557610fb7848a614fbc565b610fc49060ff1682614fd8565b9050610fd660a0880160808901614f9f565b60ff16610fe960a08c0160808d01614f9f565b60ff16036110045761100163ffffffff861684614ff5565b92505b610f8c8163ffffffff168484612fb1565b61102560e08b0160c08c01614f9f565b60ff1660020361108f57611039848a614fbc565b6110469060ff1682614fd8565b9050611052601e612f2b565b15611004576110628b600f61500c565b61106f9060ff1684614ff5565b925061107c600a83614ff5565b9150610f8c8163ffffffff168484612fb1565b61109f60e08b0160c08c01614f9f565b60ff166003036110b357610f6c848a614fbc565b6110c360e08b0160c08c01614f9f565b60ff16600403611115576110de8163ffffffff168484612fb1565b905061110b6110ed858b614fbc565b60ff166110fb85600f614ff5565b61110685600a614ff5565b612fb1565b610f8c9082614fd8565b61112560e08b0160c08c01614f9f565b60ff1660050361116257611139848a614fbc565b6111469060ff1682614fd8565b90506111526014612f2b565b156110045761106f600c84614ff5565b61117260e08b0160c08c01614f9f565b60ff1660060361119357611186848a614fbc565b610f8c9060ff1682614fd8565b6111a360e08b0160c08c01614f9f565b60ff166007036111e5576111b7848a614fbc565b6111c49060ff1682614fd8565b90506111d06005612f2b565b156110045761100163ffffffff861684614ff5565b6111f560e08b0160c08c01614f9f565b60ff1660080361120957610f6c848a614fbc565b61121960e08b0160c08c01614f9f565b60ff166009036112e25761122d848a614fbc565b61123a9060ff1682614fd8565b905061124c60a08b0160808c01614f9f565b60ff1661125f60a0890160808a01614f9f565b60ff16111561100457600061127a60a08c0160808d01614f9f565b61128a60a08a0160808b01614f9f565b611294919061500c565b9050600a8160ff16111580156112b857506112b86112b382600a614fbc565b612f2b565b156112d0576112cd63ffffffff871685614ff5565b93505b50610f8c8163ffffffff168484612fb1565b6112ec848a614fbc565b6112f99060ff1682614fd8565b905061130c8163ffffffff168484612fb1565b90505b9a9950505050505050505050565b610b2783838360405180602001604052806000815250611e6b565b601354600160a01b900460ff1661138c5760405162461bcd60e51b81526020600482015260186024820152773232b0b632b9103430b9903737ba103132b2b71039b2ba1760411b604482015260640161076b565b6012546001600160a01b031633146113b65760405162461bcd60e51b815260040161076b90615025565b6113bf81612fc8565b50565b606060006017546001600160401b038111156113e0576113e0614c8c565b60405190808252806020026020018201604052801561141957816020015b611406614697565b8152602001906001900390816113fe5790505b50905060005b601754811015611467576114376105a882600161506d565b82828151811061144957611449614e4f565b6020026020010181905250808061145f90614ef3565b91505061141f565b50919050565b6000610b4383834361306b565b600061148560085490565b82106114e85760405162461bcd60e51b815260206004820152602c60248201527f455243373231456e756d657261626c653a20676c6f62616c20696e646578206f60448201526b7574206f6620626f756e647360a01b606482015260840161076b565b600882815481106108a3576108a3614e4f565b6000818152600260205260408120546001600160a01b0316806107d75760405162461bcd60e51b8152602060048201526018602482015277115490cdcc8c4e881a5b9d985b1a59081d1bdad95b88125160421b604482015260640161076b565b606060006115688361170c565b90506000816001600160401b0381111561158457611584614c8c565b6040519080825280602002602001820160405280156115ad578160200160208202803683370190505b50905060005b828110156115f4576115c53382610e3f565b8282815181106115d7576115d7614e4f565b6020908102919091010152806115ec81614ef3565b9150506115b3565b509392505050565b6011546001600160a01b031633146116265760405162461bcd60e51b815260040161076b90614e65565b6016610b278284836150ce565b6060600a805480602002602001604051908101604052809291908181526020016000905b8282101561170357838290600052602060002001805461167690614e1b565b80601f01602080910402602001604051908101604052809291908181526020018280546116a290614e1b565b80156116ef5780601f106116c4576101008083540402835291602001916116ef565b820191906000526020600020905b8154815290600101906020018083116116d257829003601f168201915b505050505081526020019060010190611657565b50505050905090565b60006001600160a01b0382166117765760405162461bcd60e51b815260206004820152602960248201527f4552433732313a2061646472657373207a65726f206973206e6f7420612076616044820152683634b21037bbb732b960b91b606482015260840161076b565b506001600160a01b031660009081526003602052604090205490565b6011546001600160a01b031633146117bc5760405162461bcd60e51b815260040161076b90614e65565b600e55565b600d8181548110610b5a57600080fd5b600f81815481106117e157600080fd5b600091825260209091200154905081565b6117fa6130c0565b611803816114fb565b6001600160a01b0316336001600160a01b0316146118805760405162461bcd60e51b815260206004820152603460248201527f5065726d697373696f6e2064656e6965642e2053656e646572206973206e6f746044820152731037bbb732b91037b3103a3434b9903a37b5b2b760611b606482015260840161076b565b60ff61188b82611b47565b6080015160ff1611156118d05760405162461bcd60e51b815260206004820152600d60248201526c3632bb32b61034b99036b0bc1760991b604482015260640161076b565b60006118db82610b2c565b601554604051636eb1769f60e11b815233600482015230602482015291925082916001600160a01b039091169063dd62ed3e90604401602060405180830381865afa15801561192e573d6000803e3d6000fd5b505050506040513d601f19601f82011682018060405250810190611952919061518d565b10156119a05760405162461bcd60e51b815260206004820152601960248201527f6e6f7420656e6f75676820436f696e20616c6c6f77616e636500000000000000604482015260640161076b565b6015546040516370a0823160e01b815233600482015282916001600160a01b0316906370a0823190602401602060405180830381865afa1580156119e8573d6000803e3d6000fd5b505050506040513d601f19601f82011682018060405250810190611a0c919061518d565b1015611a5a5760405162461bcd60e51b815260206004820152601f60248201527f6e6f7420656e6f75676820636f696e20746f20757064617465206c6576656c00604482015260640161076b565b6015546011546040516323b872dd60e01b81523360048201526001600160a01b039182166024820152604481018490529116906323b872dd906064016020604051808303816000875af1925050508015611ad1575060408051601f3d908101601f19168201909252611ace918101906151a6565b60015b611b2357611add6151c3565b806308c379a003611b175750611af16151df565b80611afc5750611b19565b806040516301f5a21b60e21b815260040161076b9190614844565b505b3d6000803e3d6000fd5b50611b2d82613119565b506113bf6001601055565b6060600180546107ec90614e1b565b611b4f614697565b6040805160e081018252600080825260208083018290528284018290528351808201855282815260608401526080830182905260a083018290528351808201855282815260c084015285825260199052919091205463ffffffff1680611bb55781611d1d565b600084815260186020526040812090611bcf600184615268565b63ffffffff1663ffffffff1681526020019081526020016000206001016040518060e0016040529081600082015481526020016001820154815260200160028201548152602001600382018054611c2590614e1b565b80601f0160208091040260200160405190810160405280929190818152602001828054611c5190614e1b565b8015611c9e5780601f10611c7357610100808354040283529160200191611c9e565b820191906000526020600020905b815481529060010190602001808311611c8157829003601f168201915b5050509183525050600482015460ff808216602080850191909152610100909204166040808401919091528051918201908190526060909201916005840190600190826000855b825461010083900a900460ff16815260206001928301818104948501949093039092029101808411611ce55790505050505050815250505b949350505050565b611d30338383613308565b5050565b601354600090600160a01b900460ff16611d8b5760405162461bcd60e51b81526020600482015260186024820152773232b0b632b9103430b9903737ba103132b2b71039b2ba1760411b604482015260640161076b565b6012546001600160a01b03163314611db55760405162461bcd60e51b815260040161076b90615025565b60178054906000611dc583614ef3565b90915550506012546017546107d7916001600160a01b031690846133d6565b600080805b6004811015611e4657838160048110611e0457611e04614e4f565b602002810190611e149190615285565b611e259060a0810190608001614f9f565b611e329060ff16836152a5565b915080611e3e81614ef3565b915050611de9565b50610b436004826152d6565b6000611e5d82611b47565b604001516107d79043614ec7565b611e753383612b79565b611e915760405162461bcd60e51b815260040161076b90614f0c565b611e9d84848484613589565b50505050565b600d546060906000816001600160401b03811115611ec357611ec3614c8c565b604051908082528060200260200182016040528015611eec578160200160208202803683370190505b50905060005b82811015611f2b576000828281518110611f0e57611f0e614e4f565b602090810291909101015280611f2381614ef3565b915050611ef2565b50600c5460005b81811015611fb757826001600c8381548110611f5057611f50614e4f565b90600052602060002090602091828204019190069054906101000a900460ff16611f7a919061500c565b60ff1681518110611f8d57611f8d614e4f565b602002602001018051809190611fa290614ef3565b90525080611faf81614ef3565b915050611f32565b506000816001600160401b03811115611fd257611fd2614c8c565b604051908082528060200260200182016040528015611ffb578160200160208202803683370190505b509050826001600c60008154811061201557612015614e4f565b90600052602060002090602091828204019190069054906101000a900460ff1661203f919061500c565b60ff168151811061205257612052614e4f565b6020026020010151600d6001600c60008154811061207257612072614e4f565b90600052602060002090602091828204019190069054906101000a900460ff1661209c919061500c565b60ff16815481106120af576120af614e4f565b90600052602060002090602091828204019190069054906101000a900460ff1660ff166120dc91906152f7565b6120e7906001614eda565b816000815181106120fa576120fa614e4f565b60ff9092166020928302919091019091015260015b8281101561226257836001600c838154811061212d5761212d614e4f565b90600052602060002090602091828204019190069054906101000a900460ff16612157919061500c565b60ff168151811061216a5761216a614e4f565b6020026020010151600d6001600c848154811061218957612189614e4f565b90600052602060002090602091828204019190069054906101000a900460ff166121b3919061500c565b60ff16815481106121c6576121c6614e4f565b90600052602060002090602091828204019190069054906101000a900460ff1660ff166121f391906152f7565b826121ff600184614ec7565b8151811061220f5761220f614e4f565b60200260200101516122219190614eda565b61222c906001614eda565b82828151811061223e5761223e614e4f565b60ff909216602092830291909101909101528061225a81614ef3565b91505061210f565b50949350505050565b606060006122776135bc565b511161229257604051806020016040528060008152506107d7565b601661229d836135cb565b6040516020016122ae92919061530b565b60405160208183030381529060405292915050565b6000818152600260205260409020546060906001600160a01b03166123225760405162461bcd60e51b81526020600482015260156024820152741d1bdad95b925908191bd95cdb89dd08195e1a5cdd605a1b604482015260640161076b565b600061232d83611b47565b9050600061233a846135cb565b82516040805160208101929092520160408051601f198184030181529082905261236792916020016153a1565b60408051601f19818403018152828201825260018352605b60f81b602084810191909152606086015192519194506123a39284929091016153ee565b6040516020818303038152906040529050806123c5846080015160ff166135cb565b6040516020016123d6929190615460565b6040516020818303038152906040529050806123f88460a0015160ff166135cb565b6040516020016124099291906154d5565b604051602081830303815290604052905060005b600160ff8216101561249f5781612440612438836001614eda565b60ff166135cb565b6124698660c001518460ff166001811061245c5761245c614e4f565b602002015160ff166135cb565b60405160200161247b9392919061554b565b60405160208183030381529060405291508080612497906155e1565b91505061241d565b50806040516020016124b19190615600565b60405160208183030381529060405290506124fa826124d3856020015161226b565b836040516020016124e693929190615625565b60405160208183030381529060405261365d565b60405160200161250a91906156db565b6040516020818303038152906040529350505050919050565b600b8181548110610b5a57600080fd5b600080805b60048160ff161015610d92578160ff16848260ff166004811061255d5761255d614e4f565b60200281019061256d9190615285565b61257e9060a0810190608001614f9f565b60ff1611156125c057838160ff166004811061259c5761259c614e4f565b6020028101906125ac9190615285565b6125bd9060a0810190608001614f9f565b91505b806125ca816155e1565b915050612538565b600a81815481106125e257600080fd5b9060005260206000200160009150905080546125fd90614e1b565b80601f016020809104026020016040519081016040528092919081815260200182805461262990614e1b565b80156126765780601f1061264b57610100808354040283529160200191612676565b820191906000526020600020905b81548152906001019060200180831161265957829003601f168201915b505050505081565b612686614697565b6040805160e081018252600080825260208083018290528284018290528351808201855282815260608401526080830182905260a083018290528351908101909352825260c08101919091524383106127385760405162461bcd60e51b815260206004820152602e60248201527f504c4d546f6b656e3a3a6765745072696f7243686172496e666f3a206e6f742060448201526d1e595d0819195d195c9b5a5b995960921b606482015260840161076b565b60008061274586866137af565b9150915080612759578293505050506107d7565b600086815260186020908152604080832063ffffffff86168452825291829020825160e081018452600182018054825260028301549382019390935260038201549381019390935260040180546060840191906127b590614e1b565b80601f01602080910402602001604051908101604052809291908181526020018280546127e190614e1b565b801561282e5780601f106128035761010080835404028352916020019161282e565b820191906000526020600020905b81548152906001019060200180831161281157829003601f168201915b5050509183525050600482015460ff808216602080850191909152610100909204166040808401919091528051918201908190526060909201916005840190600190826000855b825461010083900a900460ff1681526020600192830181810494850194909303909202910180841161287557905050505050508152505093505050506107d7565b6000611d1d84848461306b565b601b54600090819063ffffffff1681036128e257506000928392509050565b601b548390601a906000906128ff9060019063ffffffff16615268565b63ffffffff1681526020810191909152604001600020541161293a57601b546129309060019063ffffffff16615268565b9360019350915050565b60008052601a6020527fb75ecc04ed35f89790e98640e901bda41eceff0cb896cf2765fb6976802537505483101561297757506000928392509050565b601b5460009081906129919060019063ffffffff16615268565b90505b8163ffffffff168163ffffffff161115612a3b57600060026129b68484615268565b6129c09190615720565b6129ca9083615268565b63ffffffff81166000908152601a6020908152604091829020825180840190935280548084526001909101549183019190915291925090879003612a15575095600195509350505050565b8051871115612a2657819350612a34565b612a31600183615268565b92505b5050612994565b509360019350915050565b60006001600160e01b031982166380ac58cd60e01b1480612a7757506001600160e01b03198216635b5e139f60e01b145b806107d757506301ffc9a760e01b6001600160e01b03198316146107d7565b6000818152600260205260409020546001600160a01b03166113bf5760405162461bcd60e51b8152602060048201526018602482015277115490cdcc8c4e881a5b9d985b1a59081d1bdad95b88125160421b604482015260640161076b565b600081815260046020526040902080546001600160a01b0319166001600160a01b0384169081179091558190612b2a826114fb565b6001600160a01b03167f8c5be1e5ebec7d5bd14f71427d1e84f3dd0314c0f7b2291e5b200ac8c7c3b92560405160405180910390a45050565b60006002826080015160ff166107d7919061581b565b600080612b85836114fb565b9050806001600160a01b0316846001600160a01b03161480612bcc57506001600160a01b0380821660009081526005602090815260408083209388168352929052205460ff165b80611d1d5750836001600160a01b0316612be5846109f0565b6001600160a01b031614949350505050565b826001600160a01b0316612c0a826114fb565b6001600160a01b031614612c305760405162461bcd60e51b815260040161076b9061582a565b6001600160a01b038216612c925760405162461bcd60e51b8152602060048201526024808201527f4552433732313a207472616e7366657220746f20746865207a65726f206164646044820152637265737360e01b606482015260840161076b565b612c9f8383836001613a70565b826001600160a01b0316612cb2826114fb565b6001600160a01b031614612cd85760405162461bcd60e51b815260040161076b9061582a565b600081815260046020908152604080832080546001600160a01b03199081169091556001600160a01b0387811680865260038552838620805460001901905590871680865283862080546001019055868652600290945282852080549092168417909155905184937fddf252ad1be2c89b69c2b068fc378daa952ba7f163c4a11628f55a4df523b3ef91a4505050565b60008060008686604051602001612d8092919061586f565b60405160208183030381529060405280519060200120905060008585604051602001612dad92919061586f565b6040516020818303038152906040528051906020012090506000604051602001612de190636669726560e01b815260040190565b6040516020818303038152906040528051906020012090506000604051602001612e169064677261737360d81b815260050190565b6040516020818303038152906040528051906020012090506000604051602001612e4b90643bb0ba32b960d91b815260050190565b604051602081830303815290604052805190602001209050838503612e7b57600180965096505050505050612f22565b8285148015612e8957508184145b80612e9d57508185148015612e9d57508084145b80612eb157508085148015612eb157508284145b15612ec857600c600a965096505050505050612f22565b8284148015612ed657508185145b80612eea57508184148015612eea57508085145b80612efe57508084148015612efe57508285145b15612f15576008600a965096505050505050612f22565b6001809650965050505050505b94509492505050565b60008160ff16606473__$748984f45445581b67c67e62ffa2a70cbb$__6338e59f2c6040518163ffffffff1660e01b8152600401602060405180830381865af4158015612f7c573d6000803e3d6000fd5b505050506040513d601f19601f82011682018060405250810190612fa0919061518d565b612faa919061587f565b1092915050565b600081612fbe8486614ff5565b611d1d91906152f7565b6000612fd3826114fb565b9050612fe3816000846001613a70565b612fec826114fb565b600083815260046020908152604080832080546001600160a01b03199081169091556001600160a01b0385168085526003845282852080546000190190558785526002909352818420805490911690555192935084927fddf252ad1be2c89b69c2b068fc378daa952ba7f163c4a11628f55a4df523b3ef908390a45050565b60006032818161307b8686614ec7565b61308591906152f7565b9050613092866002614fbc565b60ff168163ffffffff16106130b4576130ac866002614fbc565b60ff166130b6565b805b9695505050505050565b6002601054036131125760405162461bcd60e51b815260206004820152601f60248201527f5265656e7472616e637947756172643a207265656e7472616e742063616c6c00604482015260640161076b565b6002601055565b6000818152601960209081526040808320546018909252822063ffffffff909116919081613148600185615268565b63ffffffff1663ffffffff1681526020019081526020016000206001016040518060e001604052908160008201548152602001600182015481526020016002820154815260200160038201805461319e90614e1b565b80601f01602080910402602001604051908101604052809291908181526020018280546131ca90614e1b565b80156132175780601f106131ec57610100808354040283529160200191613217565b820191906000526020600020905b8154815290600101906020018083116131fa57829003601f168201915b5050509183525050600482015460ff808216602080850191909152610100909204166040808401919091528051918201908190526060909201916005840190600190826000855b825461010083900a900460ff1681526020600192830181810494850194909303909202910180841161325e579050505050505081525050905060006040518060e0016040528083600001518152602001836020015181526020018360400151815260200183606001518152602001836080015160016132dd9190614eda565b60ff1681526020018360a0015160ff1681526020018360c001518152509050611e9d84848484613c67565b816001600160a01b0316836001600160a01b0316036133695760405162461bcd60e51b815260206004820152601960248201527f4552433732313a20617070726f766520746f2063616c6c657200000000000000604482015260640161076b565b6001600160a01b03838116600081815260056020908152604080832094871680845294825291829020805460ff191686151590811790915591519182527f17307eab39ab6107e8899845ad3d59bd9653f200f220920489ca2b5937696c31910160405180910390a3505050565b604051634bd3412360e01b815260048101839052306024820152600090819073__$748984f45445581b67c67e62ffa2a70cbb$__90634bd3412390604401606060405180830381865af4158015613431573d6000803e3d6000fd5b505050506040513d601f19601f820116820180604052508101906134559190615893565b90506000613461611633565b905060006040518060e001604052808681526020018460000151815260200143815260200183856020015160ff168151811061349f5761349f614e4f565b60200260200101518152602001600160ff1681526020016134dc85602001516040518060200160405280886040015160ff1660ff16815250613e8d565b60ff908116825260408051602081810183528883015190931681529282019290925260008981526019825282812054835160e0810185528281528084018390528085018390528451808501865283815260608201526080810183905260a08101839052845193840190945290825260c083019190915291925063ffffffff9091169061356a88838386613c67565b613572613ed0565b61357c8989613fcd565b5095979650505050505050565b613594848484612bf7565b6135a084848484614166565b611e9d5760405162461bcd60e51b815260040161076b906158fb565b6060601680546107ec90614e1b565b606060006135d883614267565b60010190506000816001600160401b038111156135f7576135f7614c8c565b6040519080825280601f01601f191660200182016040528015613621576020820181803683370190505b5090508181016020015b600019016f181899199a1a9b1b9c1cb0b131b232b360811b600a86061a8153600a850494508461362b57509392505050565b6060815160000361367c57505060408051602081019091526000815290565b6000604051806060016040528060408152602001615ac460409139905060006003845160026136ab919061506d565b6136b591906152f7565b6136c0906004614ff5565b6001600160401b038111156136d7576136d7614c8c565b6040519080825280601f01601f191660200182016040528015613701576020820181803683370190505b509050600182016020820185865187015b8082101561376d576003820191508151603f8160121c168501518453600184019350603f81600c1c168501518453600184019350603f8160061c168501518453600184019350603f8116850151845350600183019250613712565b5050600386510660018114613789576002811461379c576137a4565b603d6001830353603d60028303536137a4565b603d60018303535b509195945050505050565b600082815260196020526040812054819063ffffffff168082036137da576000809250925050613a69565b600085815260186020526040812085916137f5600185615268565b63ffffffff168152602081019190915260400160002054116138285761381c600182615268565b60019250925050613a69565b6000858152601860209081526040808320838052909152902054841015613856576000809250925050613a69565b600080613864600184615268565b90505b8163ffffffff168163ffffffff161115613a6057600060026138898484615268565b6138939190615720565b61389d9083615268565b90506000601860008a815260200190815260200160002060008363ffffffff1663ffffffff16815260200190815260200160002060405180604001604052908160008201548152602001600182016040518060e001604052908160008201548152602001600182015481526020016002820154815260200160038201805461392490614e1b565b80601f016020809104026020016040519081016040528092919081815260200182805461395090614e1b565b801561399d5780601f106139725761010080835404028352916020019161399d565b820191906000526020600020905b81548152906001019060200180831161398057829003601f168201915b5050509183525050600482015460ff808216602080850191909152610100909204166040808401919091528051918201908190526060909201916005840190600190826000855b825461010083900a900460ff168152602060019283018181049485019490930390920291018084116139e45750505092909352505050915250508051909150889003613a3a5750945060019350613a6992505050565b8051881115613a4b57819350613a59565b613a56600183615268565b92505b5050613867565b50925060019150505b9250929050565b613a7c8484848461433f565b60008281526019602090815260408083205460189092528220849263ffffffff909216919081613aad600185615268565b63ffffffff1663ffffffff1681526020019081526020016000206001016040518060e0016040529081600082015481526020016001820154815260200160028201548152602001600382018054613b0390614e1b565b80601f0160208091040260200160405190810160405280929190818152602001828054613b2f90614e1b565b8015613b7c5780601f10613b5157610100808354040283529160200191613b7c565b820191906000526020600020905b815481529060010190602001808311613b5f57829003601f168201915b5050509183525050600482015460ff808216602080850191909152610100909204166040808401919091528051918201908190526060909201916005840190600190826000855b825461010083900a900460ff16815260206001928301818104948501949093039092029101808411613bc3579050505050505081525050905060006040518060e00160405280836000015181526020018360200151815260200143815260200183606001518152602001836080015160ff1681526020018360a0015160ff1681526020018360c001518152509050613c5d84848484613c67565b5050505050505050565b60008363ffffffff16118015613cac575060008481526018602052604081204391613c93600187615268565b63ffffffff168152602081019190915260400160002054145b15613d675760008481526018602052604081208291613ccc600187615268565b63ffffffff1663ffffffff1681526020019081526020016000206001016000820151816000015560208201518160010155604082015181600201556060820151816003019081613d1c919061594d565b50608082015160048201805460a085015160ff9081166101000261ffff1990921693169290921791909117905560c0820151613d5e90600583019060016146e2565b50905050613e4d565b604080518082018252438152602080820184815260008881526018835284812063ffffffff8916825283528490208351815590518051600183019081559281015160028301559384015160038201556060840151929390929091906004840190613dd1908261594d565b50608082015160048201805460a085015160ff9081166101000261ffff1990921693169290921791909117905560c0820151613e1390600583019060016146e2565b505050905050826001613e269190614fd8565b6000858152601960205260409020805463ffffffff191663ffffffff929092169190911790555b837ff32f7dd691245e5dc93047ba671616f3afee04519c907bd6df680a73e8c11ac58383604051613e7f929190615a0c565b60405180910390a250505050565b8051600c805460009260ff16908110613ea857613ea8614e4f565b90600052602060002090602091828204019190069054906101000a900460ff16905092915050565b601b5463ffffffff1615801590613f185750601b544390601a90600090613eff9060019063ffffffff16615268565b63ffffffff168152602081019190915260400160002054145b15613f5757600854601b54601a90600090613f3b9060019063ffffffff16615268565b63ffffffff168152602081019190915260400160002060010155565b6040518060400160405280438152602001613f7160085490565b9052601b805463ffffffff9081166000908152601a6020908152604082208551815594015160019094019390935581541691613fac83615a3a565b91906101000a81548163ffffffff021916908363ffffffff16021790555050565b6001600160a01b0382166140235760405162461bcd60e51b815260206004820181905260248201527f4552433732313a206d696e7420746f20746865207a65726f2061646472657373604482015260640161076b565b6000818152600260205260409020546001600160a01b0316156140885760405162461bcd60e51b815260206004820152601c60248201527f4552433732313a20746f6b656e20616c7265616479206d696e74656400000000604482015260640161076b565b614096600083836001613a70565b6000818152600260205260409020546001600160a01b0316156140fb5760405162461bcd60e51b815260206004820152601c60248201527f4552433732313a20746f6b656e20616c7265616479206d696e74656400000000604482015260640161076b565b6001600160a01b038216600081815260036020908152604080832080546001019055848352600290915280822080546001600160a01b0319168417905551839291907fddf252ad1be2c89b69c2b068fc378daa952ba7f163c4a11628f55a4df523b3ef908290a45050565b60006001600160a01b0384163b1561425c57604051630a85bd0160e11b81526001600160a01b0385169063150b7a02906141aa903390899088908890600401615a5d565b6020604051808303816000875af19250505080156141e5575060408051601f3d908101601f191682019092526141e291810190615a90565b60015b614242573d808015614213576040519150601f19603f3d011682016040523d82523d6000602084013e614218565b606091505b50805160000361423a5760405162461bcd60e51b815260040161076b906158fb565b805181602001fd5b6001600160e01b031916630a85bd0160e11b149050611d1d565b506001949350505050565b60008072184f03e93ff9f4daa797ed6e38ed64bf6a1f0160401b83106142a65772184f03e93ff9f4daa797ed6e38ed64bf6a1f0160401b830492506040015b6d04ee2d6d415b85acef810000000083106142d2576d04ee2d6d415b85acef8100000000830492506020015b662386f26fc1000083106142f057662386f26fc10000830492506010015b6305f5e1008310614308576305f5e100830492506008015b612710831061431c57612710830492506004015b6064831061432e576064830492506002015b600a83106107d75760010192915050565b61434b8484848461447f565b60018111156143ba5760405162461bcd60e51b815260206004820152603560248201527f455243373231456e756d657261626c653a20636f6e7365637574697665207472604482015274185b9cd9995c9cc81b9bdd081cdd5c1c1bdc9d1959605a1b606482015260840161076b565b816001600160a01b0385166144165761441181600880546000838152600960205260408120829055600182018355919091527ff3f7a9fe364faab93b216da50a3214154f22a0a2b415b23a84c8169e8b636ee30155565b614439565b836001600160a01b0316856001600160a01b031614614439576144398582614507565b6001600160a01b03841661445557614450816145a4565b614478565b846001600160a01b0316846001600160a01b031614614478576144788482614653565b5050505050565b6001811115611e9d576001600160a01b038416156144c5576001600160a01b038416600090815260036020526040812080548392906144bf908490614ec7565b90915550505b6001600160a01b03831615611e9d576001600160a01b038316600090815260036020526040812080548392906144fc90849061506d565b909155505050505050565b600060016145148461170c565b61451e9190614ec7565b600083815260076020526040902054909150808214614571576001600160a01b03841660009081526006602090815260408083208584528252808320548484528184208190558352600790915290208190555b5060009182526007602090815260408084208490556001600160a01b039094168352600681528383209183525290812055565b6008546000906145b690600190614ec7565b600083815260096020526040812054600880549394509092849081106145de576145de614e4f565b9060005260206000200154905080600883815481106145ff576145ff614e4f565b600091825260208083209091019290925582815260099091526040808220849055858252812055600880548061463757614637615aad565b6001900381819060005260206000200160009055905550505050565b600061465e8361170c565b6001600160a01b039093166000908152600660209081526040808320868452825280832085905593825260079052919091209190915550565b6040518060e0016040528060008019168152602001600081526020016000815260200160608152602001600060ff168152602001600060ff1681526020016146dd614775565b905290565b6001830191839082156147655791602002820160005b8382111561473657835183826101000a81548160ff021916908360ff16021790555092602001926001016020816000010492830192600103026146f8565b80156147635782816101000a81549060ff0219169055600101602081600001049283019260010302614736565b505b50614771929150614793565b5090565b60405180602001604052806001906020820280368337509192915050565b5b808211156147715760008155600101614794565b6000602082840312156147ba57600080fd5b5035919050565b6001600160e01b0319811681146113bf57600080fd5b6000602082840312156147e957600080fd5b8135610b43816147c1565b60005b8381101561480f5781810151838201526020016147f7565b50506000910152565b600081518084526148308160208601602086016147f4565b601f01601f19169290920160200192915050565b602081526000610b436020830184614818565b80356001600160a01b03811681146109eb57600080fd5b6000806040838503121561488157600080fd5b61488a83614857565b946020939093013593505050565b6000602082840312156148aa57600080fd5b610b4382614857565b6020808252825182820181905260009190848201906040850190845b818110156148ee57835160ff16835292840192918401916001016148cf565b50909695505050505050565b60008060006060848603121561490f57600080fd5b61491884614857565b925061492660208501614857565b9150604084013590509250925092565b60ff811681146113bf57600080fd5b600060e0828403121561146757600080fd5b600080600080600060a0868803121561496f57600080fd5b853561497a81614936565b945060208601356001600160401b038082111561499657600080fd5b6149a289838a01614945565b9550604088013591506149b482614936565b90935060608701359063ffffffff821682146149cf57600080fd5b909250608087013590808211156149e557600080fd5b506149f288828901614945565b9150509295509295909350565b8051825260006020808301518185015260408301516040850152606083015160e06060860152614a3260e0860182614818565b9050608084015160ff80821660808801528060a08701511660a088015260c0860151915060c0870160005b6001811015614a7c578351831682529285019290850190600101614a5d565b5092979650505050505050565b6000602080830181845280855180835260408601915060408160051b870101925083870160005b82811015614a7c57603f19888603018452614acc8583516149ff565b94509285019290850190600101614ab0565b60008060408385031215614af157600080fd5b823561488a81614936565b6020808252825182820181905260009190848201906040850190845b818110156148ee57835183529284019291840191600101614b18565b60008060208385031215614b4757600080fd5b82356001600160401b0380821115614b5e57600080fd5b818501915085601f830112614b7257600080fd5b813581811115614b8157600080fd5b866020828501011115614b9357600080fd5b60209290920196919550909350505050565b6000602080830181845280855180835260408601915060408160051b870101925083870160005b82811015614a7c57603f19888603018452614be8858351614818565b94509285019290850190600101614bcc565b602081526000610b4360208301846149ff565b80151581146113bf57600080fd5b60008060408385031215614c2e57600080fd5b614c3783614857565b91506020830135614c4781614c0d565b809150509250929050565b600060208284031215614c6457600080fd5b81356001600160401b03811115614c7a57600080fd5b820160808101841015610b4357600080fd5b634e487b7160e01b600052604160045260246000fd5b601f8201601f191681016001600160401b0381118282101715614cc757614cc7614c8c565b6040525050565b60008060008060808587031215614ce457600080fd5b614ced85614857565b93506020614cfc818701614857565b93506040860135925060608601356001600160401b0380821115614d1f57600080fd5b818801915088601f830112614d3357600080fd5b813581811115614d4557614d45614c8c565b6040519150614d5d601f8201601f1916850183614ca2565b8082528984828501011115614d7157600080fd5b808484018584013760008482840101525080935050505092959194509250565b60008060408385031215614da457600080fd5b50508035926020909101359150565b60008060408385031215614dc657600080fd5b614dcf83614857565b9150614ddd60208401614857565b90509250929050565b600080600060608486031215614dfb57600080fd5b8335614e0681614936565b95602085013595506040909401359392505050565b600181811c90821680614e2f57607f821691505b60208210810361146757634e487b7160e01b600052602260045260246000fd5b634e487b7160e01b600052603260045260246000fd5b6020808252602c908201527f5065726d697373696f6e2064656e6965642e2053656e646572206973206e6f7460408201526b103837b63cb632b6b6b2b91760a11b606082015260800190565b634e487b7160e01b600052601160045260246000fd5b818103818111156107d7576107d7614eb1565b60ff81811683821601908111156107d7576107d7614eb1565b600060018201614f0557614f05614eb1565b5060010190565b6020808252602d908201527f4552433732313a2063616c6c6572206973206e6f7420746f6b656e206f776e6560408201526c1c881bdc88185c1c1c9bdd9959609a1b606082015260800190565b6000808335601e19843603018112614f7057600080fd5b8301803591506001600160401b03821115614f8a57600080fd5b602001915036819003821315613a6957600080fd5b600060208284031215614fb157600080fd5b8135610b4381614936565b60ff8181168382160290811690818114610d9257610d92614eb1565b63ffffffff818116838216019080821115610d9257610d92614eb1565b80820281158282048414176107d7576107d7614eb1565b60ff82811682821603908111156107d7576107d7614eb1565b60208082526028908201527f5065726d697373696f6e2064656e6965642e2053656e646572206973206e6f74604082015267103232b0b632b91760c11b606082015260800190565b808201808211156107d7576107d7614eb1565b601f821115610b2757600081815260208120601f850160051c810160208610156150a75750805b601f850160051c820191505b818110156150c6578281556001016150b3565b505050505050565b6001600160401b038311156150e5576150e5614c8c565b6150f9836150f38354614e1b565b83615080565b6000601f84116001811461512d57600085156151155750838201355b600019600387901b1c1916600186901b178355614478565b600083815260209020601f19861690835b8281101561515e578685013582556020948501946001909201910161513e565b508682101561517b5760001960f88860031b161c19848701351681555b505060018560011b0183555050505050565b60006020828403121561519f57600080fd5b5051919050565b6000602082840312156151b857600080fd5b8151610b4381614c0d565b600060033d11156151dc5760046000803e5060005160e01c5b90565b600060443d10156151ed5790565b6040516003193d81016004833e81513d6001600160401b03816024840111818411171561521c57505050505090565b82850191508151818111156152345750505050505090565b843d870101602082850101111561524e5750505050505090565b61525d60208286010187614ca2565b509095945050505050565b63ffffffff828116828216039080821115610d9257610d92614eb1565b6000823560de1983360301811261529b57600080fd5b9190910192915050565b61ffff818116838216019080821115610d9257610d92614eb1565b634e487b7160e01b600052601260045260246000fd5b600061ffff808416806152eb576152eb6152c0565b92169190910492915050565b600082615306576153066152c0565b500490565b600080845461531981614e1b565b60018281168015615331576001811461534657615375565b60ff1984168752821515830287019450615375565b8860005260208060002060005b8581101561536c5781548a820152908401908201615353565b50505082870194505b5050505083516153898183602088016147f4565b632e706e6760e01b9101908152600401949350505050565b64504c4d202360d81b8152600083516153c18160058501602088016147f4565b600160fd1b60059184019182015283516153e28160068401602088016147f4565b01600601949350505050565b600083516154008184602088016147f4565b80830190507f7b2274726169745f74797065223a202254797065222c202276616c7565223a208152601160f91b602082015283516154458160218401602088016147f4565b61227d60f01b60219290910191820152602301949350505050565b600083516154728184602088016147f4565b80830190507f2c207b2274726169745f74797065223a20224c6576656c222c202276616c7565815263111d101160e11b602082015283516154ba8160248401602088016147f4565b61227d60f01b60249290910191820152602601949350505050565b600083516154e78184602088016147f4565b80830190507f2c207b2274726169745f74797065223a2022526172697479222c202276616c7581526432911d101160d91b602082015283516155308160258401602088016147f4565b61227d60f01b60259290910191820152602701949350505050565b6000845161555d8184602089016147f4565b7f2c207b2274726169745f74797065223a20226174747269627574652023000000908301908152845161559781601d8401602089016147f4565b6c111610113b30b63ab2911d101160991b601d929091019182015283516155c581602a8401602088016147f4565b61227d60f01b602a9290910191820152602c0195945050505050565b600060ff821660ff81036155f7576155f7614eb1565b60010192915050565b600082516156128184602087016147f4565b605d60f81b920191825250600101919050565b607b60f81b815268113730b6b2911d101160b91b6001820152835160009061565481600a8501602089016147f4565b601160f91b600a9184019182018190526b16101134b6b0b3b2911d101160a11b600b830152855161568c816017850160208a016147f4565b60179201918201526f016101130ba3a3934b13aba32b9911d160851b601882015283516156c08160288401602088016147f4565b607d60f81b6028929091019182015260290195945050505050565b7f646174613a6170706c69636174696f6e2f6a736f6e3b6261736536342c00000081526000825161571381601d8501602087016147f4565b91909101601d0192915050565b600063ffffffff808416806152eb576152eb6152c0565b600181815b8085111561577257816000190482111561575857615758614eb1565b8085161561576557918102915b93841c939080029061573c565b509250929050565b600082615789575060016107d7565b81615796575060006107d7565b81600181146157ac57600281146157b6576157d2565b60019150506107d7565b60ff8411156157c7576157c7614eb1565b50506001821b6107d7565b5060208310610133831016604e8410600b84101617156157f5575081810a6107d7565b6157ff8383615737565b806000190482111561581357615813614eb1565b029392505050565b6000610b4360ff84168361577a565b60208082526025908201527f4552433732313a207472616e736665722066726f6d20696e636f72726563742060408201526437bbb732b960d91b606082015260800190565b8183823760009101908152919050565b60008261588e5761588e6152c0565b500690565b6000606082840312156158a557600080fd5b604051606081018181106001600160401b03821117156158c7576158c7614c8c565b6040528251815260208301516158dc81614936565b602082015260408301516158ef81614936565b60408201529392505050565b60208082526032908201527f4552433732313a207472616e7366657220746f206e6f6e20455243373231526560408201527131b2b4bb32b91034b6b83632b6b2b73a32b960711b606082015260800190565b81516001600160401b0381111561596657615966614c8c565b61597a816159748454614e1b565b84615080565b602080601f8311600181146159af57600084156159975750858301515b600019600386901b1c1916600185901b1785556150c6565b600085815260208120601f198616915b828110156159de578886015182559484019460019091019084016159bf565b50858210156159fc5787850151600019600388901b60f8161c191681555b5050505050600190811b01905550565b604081526000615a1f60408301856149ff565b8281036020840152615a3181856149ff565b95945050505050565b600063ffffffff808316818103615a5357615a53614eb1565b6001019392505050565b6001600160a01b03858116825284166020820152604081018390526080606082018190526000906130b690830184614818565b600060208284031215615aa257600080fd5b8151610b43816147c1565b634e487b7160e01b600052603160045260246000fdfe4142434445464748494a4b4c4d4e4f505152535455565758595a6162636465666768696a6b6c6d6e6f707172737475767778797a303132333435363738392b2fa264697066735822122057ba4b028b05f726bdd5cf368609a95701424e27d36176d60eb785bc178b4a5e64736f6c6343000811003368747470733a2f2f7261772e67697468756275736572636f6e74656e742e636f6d2f7465616d2d7469737369732f706f6c796c656d6d612d696d672f6d61696e2f696d616765732f",
    "linkReferences": {
      "src/lib/PLMSeeder.sol": {
        "PLMSeeder": [
          {
            "start": 13626,
            "length": 20
          },
          {
            "start": 14844,
            "length": 20
          }
        ]
      }
    }
  },
  "methodIdentifiers": {
    "approve(address,uint256)": "095ea7b3",
    "attributeOddsPerRarity(uint256)": "8f1f1936",
    "attributeRarities(uint256)": "1d46edb5",
    "balanceOf(address)": "70a08231",
    "burn(uint256)": "42966c68",
    "calcCurrentBondLevel(uint8,uint256)": "46561ec6",
    "calcLevelPoint((bytes32,uint256,uint256,string,uint8,uint8,uint8[1])[4])": "c9f2ceb2",
    "calcPower(uint8,(bytes32,uint256,uint256,string,uint8,uint8,uint8[1]),uint8,uint32,(bytes32,uint256,uint256,string,uint8,uint8,uint8[1]))": "3fa9b6db",
    "calcPriorBondLevel(uint8,uint256,uint256)": "fe7869c4",
    "calcRandomSlotLevel((bytes32,uint256,uint256,string,uint8,uint8,uint8[1])[4])": "ae404eda",
    "characterTypeOdds(uint256)": "c91ff614",
    "characterTypes(uint256)": "ccc58f0e",
    "countAttributes()": "b229bd4e",
    "countCharacterTypes()": "996b39fd",
    "getAllCharacterInfo()": "43c7243d",
    "getAllTokenOwned(address)": "635aca77",
    "getApproved(uint256)": "081812fc",
    "getAttributeRarities()": "2908238a",
    "getCharacterTypes()": "67a2f53e",
    "getCumulativeAttributeOdds()": "b9dfbd36",
    "getCumulativeCharacterTypeOdds()": "1fc18f2f",
    "getCurrentCharacterInfo(uint256)": "96195f46",
    "getDealer()": "9cf6d1af",
    "getElapsedFromBlock(uint256)": "b44528f2",
    "getImgURI(uint256)": "c0cd479c",
    "getNecessaryExp(uint256)": "1a62cd23",
    "getNumImg()": "3f82c72b",
    "getPoolingPercentage(uint256)": "07a7682b",
    "getPriorCharacterInfo(uint256,uint256)": "e6abb2cc",
    "getPriorTotalSupply(uint256)": "009f7e21",
    "isApprovedForAll(address,address)": "e985e9c5",
    "mint(bytes32)": "adf2cead",
    "name()": "06fdde03",
    "numCharInfoCheckpoints(uint256)": "1c481466",
    "ownerOf(uint256)": "6352211e",
    "poolingPercentageTable(uint256)": "8fe3e0b2",
    "safeTransferFrom(address,address,uint256)": "42842e0e",
    "safeTransferFrom(address,address,uint256,bytes)": "b88d4fde",
    "setApprovalForAll(address,bool)": "a22cb465",
    "setBaseImgURI(string)": "67034fbe",
    "setDealer(address)": "1e665f32",
    "setNumImg(uint256)": "861ca327",
    "supportsInterface(bytes4)": "01ffc9a7",
    "symbol()": "95d89b41",
    "tokenByIndex(uint256)": "4f6ccce7",
    "tokenOfOwnerByIndex(address,uint256)": "2f745c59",
    "tokenURI(uint256)": "c87b56dd",
    "totalSupply()": "18160ddd",
    "transferFrom(address,address,uint256)": "23b872dd",
    "updateLevel(uint256)": "92e0150b"
  },
  "id": 31
}