{
  "abi": [
    {
      "inputs": [],
      "name": "generateRandomSlotNonce",
      "outputs": [
        {
          "internalType": "bytes32",
          "name": "",
          "type": "bytes32"
        }
      ],
      "stateMutability": "view",
      "type": "function"
    },
    {
      "inputs": [
        {
          "internalType": "uint256",
          "name": "tokenId",
          "type": "uint256"
        },
        {
          "internalType": "contract IPLMData",
          "name": "data",
          "type": "IPLMData"
        }
      ],
      "name": "generateSeed",
      "outputs": [
        {
          "components": [
            {
              "internalType": "uint256",
              "name": "imgId",
              "type": "uint256"
            },
            {
              "internalType": "uint8",
              "name": "characterType",
              "type": "uint8"
            },
            {
              "internalType": "uint8",
              "name": "attribute",
              "type": "uint8"
            }
          ],
          "internalType": "struct PLMSeeder.Seed",
          "name": "",
          "type": "tuple"
        }
      ],
      "stateMutability": "view",
      "type": "function"
    },
    {
      "inputs": [
        {
          "internalType": "bytes32",
          "name": "nonce",
          "type": "bytes32"
        },
        {
          "internalType": "bytes32",
          "name": "playerSeed",
          "type": "bytes32"
        },
        {
          "internalType": "uint256",
          "name": "totalSupply",
          "type": "uint256"
        }
      ],
      "name": "getRandomSlotTokenId",
      "outputs": [
        {
          "internalType": "uint256",
          "name": "",
          "type": "uint256"
        }
      ],
      "stateMutability": "pure",
      "type": "function"
    }
  ],
  "bytecode": {
    "object": "0x6106bf61003a600b82828239805160001a60731461002d57634e487b7160e01b600052600060045260246000fd5b30600052607381538281f3fe730000000000000000000000000000000000000000301460806040526004361061004b5760003560e01c806302d8d7d01461005057806338e59f2c146100765780634bd341231461007e575b600080fd5b61006361005e36600461046b565b6100be565b6040519081526020015b60405180910390f35b610063610115565b61009161008c366004610497565b610149565b604080518251815260208084015160ff90811691830191909152928201519092169082015260600161006d565b6000808285856040516020016100de929190918252602082015260400190565b6040516020818303038152906040528051906020012060001c61010191906104d3565b61010c90600161050b565b95945050505050565b600061012260014361051e565b60408051914060208301520160405160208183030381529060405280519060200120905090565b604080516060810182526000808252602082018190529181018290529061016f8461032b565b90506000836001600160a01b0316633f82c72b6040518163ffffffff1660e01b8152600401602060405180830381865afa1580156101b1573d6000803e3d6000fd5b505050506040513d601f19601f820116820180604052508101906101d59190610531565b905060006101ec6101e787600161050b565b61032b565b90506000856001600160a01b0316631fc18f2f6040518163ffffffff1660e01b8152600401600060405180830381865afa15801561022e573d6000803e3d6000fd5b505050506040513d6000823e601f3d908101601f191682016040526102569190810190610576565b905060006102686101e789600261050b565b90506000876001600160a01b031663b9dfbd366040518163ffffffff1660e01b8152600401600060405180830381865afa1580156102aa573d6000803e3d6000fd5b505050506040513d6000823e601f3d908101601f191682016040526102d29190810190610576565b9050604051806060016040528086886102eb91906104d3565b6102f690600161050b565b81526020016103058686610369565b60ff1681526020016103178484610369565b60ff16905296505050505050505b92915050565b600061033860014361051e565b6040805191406020830152810183905260600160408051601f19818403018152919052805160209091012092915050565b600080826001845161037b919061051e565b8151811061038b5761038b61063b565b6020026020010151905060008160ff16856103a691906104d3565b9050836000815181106103bb576103bb61063b565b602002602001015160ff168110156103d857600092505050610325565b60015b84518160ff16101561045f5781856103f4600184610651565b60ff16815181106104075761040761063b565b602002602001015160ff161115801561043e5750848160ff16815181106104305761043061063b565b602002602001015160ff1682105b1561044d579250610325915050565b806104578161066a565b9150506103db565b50600095945050505050565b60008060006060848603121561048057600080fd5b505081359360208301359350604090920135919050565b600080604083850312156104aa57600080fd5b8235915060208301356001600160a01b03811681146104c857600080fd5b809150509250929050565b6000826104f057634e487b7160e01b600052601260045260246000fd5b500690565b634e487b7160e01b600052601160045260246000fd5b80820180821115610325576103256104f5565b81810381811115610325576103256104f5565b60006020828403121561054357600080fd5b5051919050565b634e487b7160e01b600052604160045260246000fd5b805160ff8116811461057157600080fd5b919050565b6000602080838503121561058957600080fd5b825167ffffffffffffffff808211156105a157600080fd5b818501915085601f8301126105b557600080fd5b8151818111156105c7576105c761054a565b8060051b604051601f19603f830116810181811085821117156105ec576105ec61054a565b60405291825284820192508381018501918883111561060a57600080fd5b938501935b8285101561062f5761062085610560565b8452938501939285019261060f565b98975050505050505050565b634e487b7160e01b600052603260045260246000fd5b60ff8281168282160390811115610325576103256104f5565b600060ff821660ff8103610680576106806104f5565b6001019291505056fea2646970667358221220341d5f521c1cc4d35398b647d6ce2f2f2be583a8a820c32423c62f06b81fb05d64736f6c63430008110033",
    "linkReferences": {}
  },
  "methodIdentifiers": {
    "generateRandomSlotNonce()": "38e59f2c",
    "generateSeed(uint256,IPLMData)": "4bd34123",
    "getRandomSlotTokenId(bytes32,bytes32,uint256)": "02d8d7d0"
  },
  "id": 39
}