{
  "abi": [
    {
      "inputs": [
        {
          "internalType": "contract IPLMToken",
          "name": "_token",
          "type": "address"
        },
        {
          "internalType": "contract IPLMCoin",
          "name": "_coin",
          "type": "address"
        }
      ],
      "stateMutability": "nonpayable",
      "type": "constructor"
    },
    {
      "inputs": [
        {
          "internalType": "string",
          "name": "reason",
          "type": "string"
        }
      ],
      "name": "ErrorWithLog",
      "type": "error"
    },
    {
      "anonymous": false,
      "inputs": [
        {
          "indexed": true,
          "internalType": "address",
          "name": "charger",
          "type": "address"
        },
        {
          "indexed": false,
          "internalType": "uint256",
          "name": "chargeAmount",
          "type": "uint256"
        },
        {
          "indexed": false,
          "internalType": "uint256",
          "name": "poolingAmount",
          "type": "uint256"
        }
      ],
      "name": "AccountCharged",
      "type": "event"
    },
    {
      "anonymous": false,
      "inputs": [
        {
          "indexed": true,
          "internalType": "address",
          "name": "account",
          "type": "address"
        },
        {
          "indexed": false,
          "internalType": "uint256",
          "name": "tokenId",
          "type": "uint256"
        },
        {
          "components": [
            {
              "internalType": "bytes32",
              "name": "name",
              "type": "bytes32"
            },
            {
              "internalType": "uint256",
              "name": "imgId",
              "type": "uint256"
            },
            {
              "internalType": "uint256",
              "name": "fromBlock",
              "type": "uint256"
            },
            {
              "internalType": "string",
              "name": "characterType",
              "type": "string"
            },
            {
              "internalType": "uint8",
              "name": "level",
              "type": "uint8"
            },
            {
              "internalType": "uint8",
              "name": "rarity",
              "type": "uint8"
            },
            {
              "internalType": "uint8[1]",
              "name": "attributeIds",
              "type": "uint8[1]"
            }
          ],
          "indexed": false,
          "internalType": "struct IPLMData.CharacterInfo",
          "name": "characterInfo",
          "type": "tuple"
        }
      ],
      "name": "CharacterReceivedByUser",
      "type": "event"
    },
    {
      "anonymous": false,
      "inputs": [
        {
          "indexed": false,
          "internalType": "address",
          "name": "account",
          "type": "address"
        },
        {
          "indexed": false,
          "internalType": "uint256",
          "name": "beforeBlock",
          "type": "uint256"
        },
        {
          "indexed": false,
          "internalType": "uint256",
          "name": "extendedBlock",
          "type": "uint256"
        }
      ],
      "name": "SubscExtended",
      "type": "event"
    },
    {
      "anonymous": false,
      "inputs": [
        {
          "indexed": false,
          "internalType": "address",
          "name": "account",
          "type": "address"
        },
        {
          "indexed": false,
          "internalType": "uint256",
          "name": "beforeBlock",
          "type": "uint256"
        },
        {
          "indexed": false,
          "internalType": "uint256",
          "name": "shortenedBlock",
          "type": "uint256"
        }
      ],
      "name": "SubscShortened",
      "type": "event"
    },
    {
      "inputs": [],
      "name": "balanceOfMatic",
      "outputs": [
        {
          "internalType": "uint256",
          "name": "",
          "type": "uint256"
        }
      ],
      "stateMutability": "view",
      "type": "function"
    },
    {
      "inputs": [
        {
          "internalType": "address",
          "name": "account",
          "type": "address"
        },
        {
          "internalType": "uint256",
          "name": "banPeriod",
          "type": "uint256"
        }
      ],
      "name": "banAccount",
      "outputs": [],
      "stateMutability": "nonpayable",
      "type": "function"
    },
    {
      "inputs": [],
      "name": "charge",
      "outputs": [],
      "stateMutability": "payable",
      "type": "function"
    },
    {
      "inputs": [],
      "name": "coin",
      "outputs": [
        {
          "internalType": "contract IPLMCoin",
          "name": "",
          "type": "address"
        }
      ],
      "stateMutability": "view",
      "type": "function"
    },
    {
      "inputs": [
        {
          "internalType": "address",
          "name": "player",
          "type": "address"
        }
      ],
      "name": "consumeStaminaForBattle",
      "outputs": [],
      "stateMutability": "nonpayable",
      "type": "function"
    },
    {
      "inputs": [],
      "name": "extendSubscPeriod",
      "outputs": [],
      "stateMutability": "nonpayable",
      "type": "function"
    },
    {
      "inputs": [
        {
          "internalType": "bytes32",
          "name": "name",
          "type": "bytes32"
        }
      ],
      "name": "gacha",
      "outputs": [],
      "stateMutability": "nonpayable",
      "type": "function"
    },
    {
      "inputs": [
        {
          "internalType": "address",
          "name": "player",
          "type": "address"
        }
      ],
      "name": "getCurrentStamina",
      "outputs": [
        {
          "internalType": "uint8",
          "name": "",
          "type": "uint8"
        }
      ],
      "stateMutability": "view",
      "type": "function"
    },
    {
      "inputs": [],
      "name": "getGachaFee",
      "outputs": [
        {
          "internalType": "uint256",
          "name": "",
          "type": "uint256"
        }
      ],
      "stateMutability": "pure",
      "type": "function"
    },
    {
      "inputs": [],
      "name": "getRestoreStaminaFee",
      "outputs": [
        {
          "internalType": "uint8",
          "name": "",
          "type": "uint8"
        }
      ],
      "stateMutability": "pure",
      "type": "function"
    },
    {
      "inputs": [],
      "name": "getStaminaMax",
      "outputs": [
        {
          "internalType": "uint8",
          "name": "",
          "type": "uint8"
        }
      ],
      "stateMutability": "pure",
      "type": "function"
    },
    {
      "inputs": [],
      "name": "getStaminaPerBattle",
      "outputs": [
        {
          "internalType": "uint8",
          "name": "",
          "type": "uint8"
        }
      ],
      "stateMutability": "pure",
      "type": "function"
    },
    {
      "inputs": [
        {
          "internalType": "address",
          "name": "account",
          "type": "address"
        }
      ],
      "name": "getSubscExpiredBlock",
      "outputs": [
        {
          "internalType": "uint256",
          "name": "",
          "type": "uint256"
        }
      ],
      "stateMutability": "view",
      "type": "function"
    },
    {
      "inputs": [],
      "name": "getSubscFeePerUnitPeriod",
      "outputs": [
        {
          "internalType": "uint256",
          "name": "",
          "type": "uint256"
        }
      ],
      "stateMutability": "pure",
      "type": "function"
    },
    {
      "inputs": [
        {
          "internalType": "address",
          "name": "account",
          "type": "address"
        }
      ],
      "name": "getSubscRemainingBlockNum",
      "outputs": [
        {
          "internalType": "uint256",
          "name": "",
          "type": "uint256"
        }
      ],
      "stateMutability": "view",
      "type": "function"
    },
    {
      "inputs": [],
      "name": "getSubscUnitPeriodBlockNum",
      "outputs": [
        {
          "internalType": "uint256",
          "name": "",
          "type": "uint256"
        }
      ],
      "stateMutability": "pure",
      "type": "function"
    },
    {
      "inputs": [
        {
          "internalType": "uint256",
          "name": "amount",
          "type": "uint256"
        }
      ],
      "name": "mintAdditionalCoin",
      "outputs": [],
      "stateMutability": "nonpayable",
      "type": "function"
    },
    {
      "inputs": [
        {
          "internalType": "address",
          "name": "winner",
          "type": "address"
        },
        {
          "internalType": "uint256",
          "name": "amount",
          "type": "uint256"
        }
      ],
      "name": "payReward",
      "outputs": [],
      "stateMutability": "nonpayable",
      "type": "function"
    },
    {
      "inputs": [
        {
          "internalType": "address",
          "name": "player",
          "type": "address"
        }
      ],
      "name": "refundStaminaForBattle",
      "outputs": [],
      "stateMutability": "nonpayable",
      "type": "function"
    },
    {
      "inputs": [
        {
          "internalType": "address",
          "name": "player",
          "type": "address"
        }
      ],
      "name": "restoreFullStamina",
      "outputs": [],
      "stateMutability": "nonpayable",
      "type": "function"
    },
    {
      "inputs": [
        {
          "internalType": "address",
          "name": "_battleField",
          "type": "address"
        }
      ],
      "name": "setBattleField",
      "outputs": [],
      "stateMutability": "nonpayable",
      "type": "function"
    },
    {
      "inputs": [
        {
          "internalType": "address",
          "name": "_matchOrganizer",
          "type": "address"
        }
      ],
      "name": "setMatchOrganizer",
      "outputs": [],
      "stateMutability": "nonpayable",
      "type": "function"
    },
    {
      "inputs": [
        {
          "internalType": "address",
          "name": "account",
          "type": "address"
        }
      ],
      "name": "subscIsExpired",
      "outputs": [
        {
          "internalType": "bool",
          "name": "",
          "type": "bool"
        }
      ],
      "stateMutability": "view",
      "type": "function"
    },
    {
      "inputs": [],
      "name": "token",
      "outputs": [
        {
          "internalType": "contract IPLMToken",
          "name": "",
          "type": "address"
        }
      ],
      "stateMutability": "view",
      "type": "function"
    },
    {
      "inputs": [
        {
          "internalType": "uint256",
          "name": "amount",
          "type": "uint256"
        }
      ],
      "name": "withdraw",
      "outputs": [],
      "stateMutability": "nonpayable",
      "type": "function"
    }
  ],
  "bytecode": {
    "object": "0x60806040526006805461ffff60a01b191690553480156200001f57600080fd5b5060405162001e2138038062001e218339810160408190526200004291620000a8565b60016000819055600380546001600160a01b031990811630179091556004805482163317905581546001600160a01b039485169082161790915560028054929093169116179055620000e7565b6001600160a01b0381168114620000a557600080fd5b50565b60008060408385031215620000bc57600080fd5b8251620000c9816200008f565b6020840151909250620000dc816200008f565b809150509250929050565b611d2a80620000f76000396000f3fe6080604052600436106101665760003560e01c806388b0575c116100d1578063b056bd4a1161008a578063e58d4aab11610064578063e58d4aab146103f8578063ea98af851461040c578063ede51bf21461042c578063fc0c546a1461044057600080fd5b8063b056bd4a146103a2578063c3a22996146103c2578063cc633ec3146103e257600080fd5b806388b0575c146103065780638b8afcd71461031b5780638d6f6e9c1461033b57806395e165661461035b578063a5c8bc351461036f578063af6dfe921461038f57600080fd5b8063551619131161012357806355161913146102585780635c3cc3fe1461026057806364c73a76146102805780636d4f6e35146102a05780637a2c10e9146102c257806388012f55146102d657600080fd5b806310f3e0201461016b57806311df99951461018d57806321c02f81146101ca57806328110735146101ea5780632a9e6613146102185780632e1a7d4d14610238575b600080fd5b34801561017757600080fd5b5061018b610186366004611779565b610460565b005b34801561019957600080fd5b506002546101ad906001600160a01b031681565b6040516001600160a01b0390911681526020015b60405180910390f35b3480156101d657600080fd5b5061018b6101e53660046117a9565b6108e9565b3480156101f657600080fd5b5061020a6102053660046117a9565b610a11565b6040519081526020016101c1565b34801561022457600080fd5b5061018b610233366004611779565b610a2c565b34801561024457600080fd5b5061018b610253366004611779565b610ab7565b61018b610bdd565b34801561026c57600080fd5b5061018b61027b3660046117a9565b610d27565b34801561028c57600080fd5b5061018b61029b3660046117a9565b610d7b565b3480156102ac57600080fd5b5060055b60405160ff90911681526020016101c1565b3480156102ce57600080fd5b50600a6102b0565b3480156102e257600080fd5b506102f66102f13660046117a9565b610f64565b60405190151581526020016101c1565b34801561031257600080fd5b5061018b610f77565b34801561032757600080fd5b5061018b6103363660046117c4565b6110dc565b34801561034757600080fd5b5061020a6103563660046117a9565b6110ea565b34801561036757600080fd5b50600561020a565b34801561037b57600080fd5b506102b061038a3660046117a9565b61111f565b34801561039b57600080fd5b504761020a565b3480156103ae57600080fd5b5061018b6103bd3660046117a9565b6111a2565b3480156103ce57600080fd5b5061018b6103dd3660046117a9565b611349565b3480156103ee57600080fd5b506213c68061020a565b34801561040457600080fd5b50600a61020a565b34801561041857600080fd5b5061018b6104273660046117c4565b6113a9565b34801561043857600080fd5b5060646102b0565b34801561044c57600080fd5b506001546101ad906001600160a01b031681565b610468611474565b600254604051636eb1769f60e11b81523360048201523060248201526005916001600160a01b03169063dd62ed3e90604401602060405180830381865afa1580156104b7573d6000803e3d6000fd5b505050506040513d601f19601f820116820180604052508101906104db91906117ee565b10156105395760405162461bcd60e51b815260206004820152602260248201527f636f696e20616c6c6f77616e636520696e73756666696369656e74202f676163604482015261686160f01b60648201526084015b60405180910390fd5b6002546040516370a0823160e01b81523360048201526005916001600160a01b0316906370a0823190602401602060405180830381865afa158015610582573d6000803e3d6000fd5b505050506040513d601f19601f820116820180604052508101906105a691906117ee565b10156105f45760405162461bcd60e51b815260206004820152601d60248201527f6e6f742073756666696369656e742062616c616e6365202f67616368610000006044820152606401610530565b60015460405163adf2cead60e01b8152600481018390526001600160a01b039091169063adf2cead906024016020604051808303816000875af192505050801561065b575060408051601f3d908101601f19168201909252610658918101906117ee565b60015b6106ad57610667611807565b806308c379a0036106a1575061067b611866565b8061068657506106a3565b806040516301f5a21b60e21b81526004016105309190611940565b505b3d6000803e3d6000fd5b6002546040516323b872dd60e01b8152336004820152306024820152600560448201526001600160a01b03909116906323b872dd906064016020604051808303816000875af1925050508015610720575060408051601f3d908101601f1916820190925261071d91810190611953565b60015b6107c45761072c611807565b806308c379a0036106a15750610740611866565b8061074b57506106a3565b600154604051630852cd8d60e31b8152600481018490526001600160a01b03909116906342966c6890602401600060405180830381600087803b15801561079157600080fd5b505af11580156107a5573d6000803e3d6000fd5b50505050806040516301f5a21b60e21b81526004016105309190611940565b506001546040516323b872dd60e01b8152306004820152336024820152604481018390526001600160a01b03909116906323b872dd90606401600060405180830381600087803b15801561081757600080fd5b505af115801561082b573d6000803e3d6000fd5b5050600154604051634b0cafa360e11b8152600481018590523393507f676d814d17f8a1dd4200c4e0c47c9e507180e6fef4f2d0103a26ac0e31102b99925084916001600160a01b0316906396195f4690602401600060405180830381865afa15801561089c573d6000803e3d6000fd5b505050506040513d6000823e601f3d908101601f191682016040526108c49190810190611a94565b6040516108d2929190611b53565b60405180910390a2505b6108e66001600055565b50565b600654600160a81b900460ff166109425760405162461bcd60e51b815260206004820152601d60248201527f626174746c654669656c6420686173206e6f74206265656e207365742e0000006044820152606401610530565b6006546001600160a01b0316331461099c5760405162461bcd60e51b815260206004820152601960248201527f73656e646572206973206e6f7420626174746c654669656c64000000000000006044820152606401610530565b60006109b7436109ae60016064611c03565b61ffff166114cd565b6001600160a01b038316600090815260086020526040812054919250906109e4906109ae6001600a611c03565b90506109f082826114f0565b6001600160a01b039093166000908152600860205260409020929092555050565b6001600160a01b031660009081526007602052604090205490565b6004546001600160a01b03163314610a565760405162461bcd60e51b815260040161053090611c29565b60025460405163140e25ad60e31b8152600481018390526001600160a01b039091169063a0712d6890602401600060405180830381600087803b158015610a9c57600080fd5b505af1158015610ab0573d6000803e3d6000fd5b5050505050565b6004546001600160a01b03163314610ae15760405162461bcd60e51b815260040161053090611c29565b4780821115610b3e5760405162461bcd60e51b815260206004820152602360248201527f63616e6e6f74207769746864726177206f76657220746f74616c2062616c616e60448201526231b29760e91b6064820152608401610530565b6003546040516000916001600160a01b03169084908381818185875af1925050503d8060008114610b8b576040519150601f19603f3d011682016040523d82523d6000602084013e610b90565b606091505b5050905080610bd85760405162461bcd60e51b81526020600482015260146024820152732330b4b632b2103a379039b2b7321022ba3432b960611b6044820152606401610530565b505050565b336000908152600860205260408120549003610bfc57610bfc33611506565b6000610c10670de0b6b3a764000034611c76565b90506000610c26670de0b6b3a764000034611c8a565b60025460405163140e25ad60e31b8152600481018590529192506001600160a01b03169063a0712d6890602401600060405180830381600087803b158015610c6d57600080fd5b505af1158015610c81573d6000803e3d6000fd5b50506040516000925033915083908381818185875af1925050503d8060008114610cc7576040519150601f19603f3d011682016040523d82523d6000602084013e610ccc565b606091505b50509050610cda338461150f565b80610bd85760405162461bcd60e51b815260206004820152601c60248201527f4661696c656420746f2073656e64206465706f736974204574686572000000006044820152606401610530565b6004546001600160a01b03163314610d515760405162461bcd60e51b815260040161053090611c29565b600680546001600160a01b03909216600161ff0160a01b031990921691909117600160a81b179055565b600654600160a01b900460ff16610dd45760405162461bcd60e51b815260206004820181905260248201527f6d617463684f7267616e697a657220686173206e6f74206265656e207365742e6044820152606401610530565b6005546001600160a01b03163314610e2e5760405162461bcd60e51b815260206004820152601c60248201527f73656e646572206973206e6f74206d617463684f7267616e697a6572000000006044820152606401610530565b610e3a6001600a611c03565b6001600160a01b038216600090815260086020526040902054610e619161ffff1690611c9e565b431015610ebc5760405162461bcd60e51b815260206004820152602360248201527f73656e64657220646f6573206e6f74206861766520656e6f756768207374616d604482015262696e6160e81b6064820152608401610530565b6001600160a01b03811660009081526008602052604090205415610f2957610ee66001600a611c03565b61ffff1660086000836001600160a01b03166001600160a01b031681526020019081526020016000206000828254610f1e9190611c9e565b909155506108e69050565b610f48436001610f3b600a6064611cb1565b60ff166109ae9190611c03565b6001600160a01b03821660009081526008602052604090205550565b6000610f6f82610a11565b431192915050565b6002546040516370a0823160e01b8152336004820152600a916001600160a01b0316906370a0823190602401602060405180830381865afa158015610fc0573d6000803e3d6000fd5b505050506040513d601f19601f82011682018060405250810190610fe491906117ee565b1015610fef57600080fd5b6000610ffa33610a11565b6002546003546040516323b872dd60e01b81523360048201526001600160a01b039182166024820152600a604482015292935016906323b872dd906064016020604051808303816000875af1158015611057573d6000803e3d6000fd5b505050506040513d601f19601f8201168201806040525081019061107b9190611953565b50611085336115f2565b7f589eeb2972d412c3756ae1222cc09a66f76334872c9689da1920136a4a7792c133826110b133610a11565b604080516001600160a01b03909416845260208401929092529082015260600160405180910390a150565b6110e6828261162f565b5050565b6000806110f683610a11565b431115611104576000611118565b4361110e84610a11565b6111189190611cca565b9392505050565b6000606443101561113257506064919050565b6001600160a01b038216600090815260086020526040902054431115611195576001600160a01b03821660009081526008602052604090205461118f9060649060019061117f9043611cca565b6111899190611c76565b906116a6565b92915050565b506000919050565b919050565b6111aa611474565b6002546040516370a0823160e01b81523360048201526001916001600160a01b0316906370a0823190602401602060405180830381865afa1580156111f3573d6000803e3d6000fd5b505050506040513d601f19601f8201168201806040525081019061121791906117ee565b10156112655760405162461bcd60e51b815260206004820181905260248201527f706c6179657220646f6573206e6f74206861766520656e6f75676820636f696e6044820152606401610530565b60646112708261111f565b60ff16106112c05760405162461bcd60e51b815260206004820152601860248201527f706c617965722773207374616d696e612069732066756c6c00000000000000006044820152606401610530565b6002546003546040516323b872dd60e01b81523360048201526001600160a01b039182166024820152600560448201529116906323b872dd906064016020604051808303816000875af115801561131b573d6000803e3d6000fd5b505050506040513d601f19601f8201168201806040525081019061133f9190611953565b506108dc816116b5565b6004546001600160a01b031633146113735760405162461bcd60e51b815260040161053090611c29565b6006805460ff60a01b1916600160a01b179055600580546001600160a01b039092166001600160a01b0319909216919091179055565b60006113b483610a11565b6001600160a01b0384166000908152600760205260409020549091508211156113de576000611402565b6001600160a01b038316600090815260076020526040902054611402908390611cca565b6001600160a01b0384166000908152600760205260409020557f358f28df6dc192738a9081c3e678c8b226b2981ce6d887488bf0f653dbe71019338261144786610a11565b604080516001600160a01b03909416845260208401929092529082015260600160405180910390a1505050565b6002600054036114c65760405162461bcd60e51b815260206004820152601f60248201527f5265656e7472616e637947756172643a207265656e7472616e742063616c6c006044820152606401610530565b6002600055565b60008183106114e7576114e08284611cca565b905061118f565b50600092915050565b60008183116114ff5781611118565b5090919050565b6108e6816116b5565b600061151a826116ef565b6002549091506001600160a01b031663a9059cbb846115398486611cca565b6040516001600160e01b031960e085901b1681526001600160a01b03909216600483015260248201526044016020604051808303816000875af1158015611584573d6000803e3d6000fd5b505050506040513d601f19601f820116820180604052508101906115a89190611953565b5060408051838152602081018390526001600160a01b038516917fa951addfc39039361cc11b61715093d61d6e118866529f60ccb98e6e76c40725910160405180910390a2505050565b6213c6806116094361160384610a11565b906114f0565b6116139190611c9e565b6001600160a01b03909116600090815260076020526040902055565b60025460405163a9059cbb60e01b81526001600160a01b038481166004830152602482018490529091169063a9059cbb906044016020604051808303816000875af1158015611682573d6000803e3d6000fd5b505050506040513d601f19601f82011682018060405250810190610bd89190611953565b60008183106114ff5781611118565b60006116c360016064611cdd565b90506116cf43826114cd565b6001600160a01b0390921660009081526008602052604090209190915550565b6001546040516307a7682b60e01b81526004810183905260009182916001600160a01b03909116906307a7682b90602401602060405180830381865afa15801561173d573d6000803e3d6000fd5b505050506040513d601f19601f8201168201806040525081019061176191906117ee565b9050606461176f8285611cdd565b6111189190611c76565b60006020828403121561178b57600080fd5b5035919050565b80356001600160a01b038116811461119d57600080fd5b6000602082840312156117bb57600080fd5b61111882611792565b600080604083850312156117d757600080fd5b6117e083611792565b946020939093013593505050565b60006020828403121561180057600080fd5b5051919050565b600060033d11156118205760046000803e5060005160e01c5b90565b634e487b7160e01b600052604160045260246000fd5b601f8201601f1916810167ffffffffffffffff8111828210171561185f5761185f611823565b6040525050565b600060443d10156118745790565b6040516003193d81016004833e81513d67ffffffffffffffff81602484011181841117156118a457505050505090565b82850191508151818111156118bc5750505050505090565b843d87010160208285010111156118d65750505050505090565b6118e560208286010187611839565b509095945050505050565b60005b8381101561190b5781810151838201526020016118f3565b50506000910152565b6000815180845261192c8160208601602086016118f0565b601f01601f19169290920160200192915050565b6020815260006111186020830184611914565b60006020828403121561196557600080fd5b8151801515811461111857600080fd5b60405160e0810167ffffffffffffffff8111828210171561199857611998611823565b60405290565b600082601f8301126119af57600080fd5b815167ffffffffffffffff8111156119c9576119c9611823565b6040516119e0601f8301601f191660200182611839565b8181528460208386010111156119f557600080fd5b611a068260208301602087016118f0565b949350505050565b805160ff8116811461119d57600080fd5b600082601f830112611a3057600080fd5b604051602080820182811067ffffffffffffffff82111715611a5457611a54611823565b6040528184820186811115611a6857600080fd5b855b81811015611a8857611a7b81611a0e565b8352918301918301611a6a565b50929695505050505050565b600060208284031215611aa657600080fd5b815167ffffffffffffffff80821115611abe57600080fd5b9083019060e08286031215611ad257600080fd5b611ada611975565b825181526020830151602082015260408301516040820152606083015182811115611b0457600080fd5b611b108782860161199e565b606083015250611b2260808401611a0e565b6080820152611b3360a08401611a0e565b60a0820152611b458660c08501611a1f565b60c082015295945050505050565b828152600060206040818401528351604084015280840151606084015260408401516080840152606084015160e060a0850152611b94610120850182611914565b9050608085015160ff80821660c08701528060a08801511660e087015260c08701519150610100860160005b6001811015611bdf578351831682529285019290850190600101611bc0565b509298975050505050505050565b634e487b7160e01b600052601160045260246000fd5b61ffff818116838216028082169190828114611c2157611c21611bed565b505092915050565b60208082526018908201527f73656e646572206973206e6f7420706f6c796c656d6d65720000000000000000604082015260600190565b634e487b7160e01b600052601260045260246000fd5b600082611c8557611c85611c60565b500490565b600082611c9957611c99611c60565b500690565b8082018082111561118f5761118f611bed565b60ff828116828216039081111561118f5761118f611bed565b8181038181111561118f5761118f611bed565b808202811582820484141761118f5761118f611bed56fea26469706673582212209c45c6febe08c6e362ad224d25c096ea799dfc68166fdb834947ac550450a9e764736f6c63430008110033",
    "linkReferences": {}
  },
  "methodIdentifiers": {
    "balanceOfMatic()": "af6dfe92",
    "banAccount(address,uint256)": "ea98af85",
    "charge()": "55161913",
    "coin()": "11df9995",
    "consumeStaminaForBattle(address)": "64c73a76",
    "extendSubscPeriod()": "88b0575c",
    "gacha(bytes32)": "10f3e020",
    "getCurrentStamina(address)": "a5c8bc35",
    "getGachaFee()": "95e16566",
    "getRestoreStaminaFee()": "6d4f6e35",
    "getStaminaMax()": "ede51bf2",
    "getStaminaPerBattle()": "7a2c10e9",
    "getSubscExpiredBlock(address)": "28110735",
    "getSubscFeePerUnitPeriod()": "e58d4aab",
    "getSubscRemainingBlockNum(address)": "8d6f6e9c",
    "getSubscUnitPeriodBlockNum()": "cc633ec3",
    "mintAdditionalCoin(uint256)": "2a9e6613",
    "payReward(address,uint256)": "8b8afcd7",
    "refundStaminaForBattle(address)": "21c02f81",
    "restoreFullStamina(address)": "b056bd4a",
    "setBattleField(address)": "5c3cc3fe",
    "setMatchOrganizer(address)": "c3a22996",
    "subscIsExpired(address)": "88012f55",
    "token()": "fc0c546a",
    "withdraw(uint256)": "2e1a7d4d"
  },
  "id": 29
}