{
  "abi": [
    {
      "inputs": [],
      "stateMutability": "nonpayable",
      "type": "constructor"
    },
    {
      "anonymous": false,
      "inputs": [
        {
          "indexed": true,
          "internalType": "address",
          "name": "owner",
          "type": "address"
        },
        {
          "indexed": true,
          "internalType": "address",
          "name": "spender",
          "type": "address"
        },
        {
          "indexed": false,
          "internalType": "uint256",
          "name": "value",
          "type": "uint256"
        }
      ],
      "name": "Approval",
      "type": "event"
    },
    {
      "anonymous": false,
      "inputs": [
        {
          "indexed": true,
          "internalType": "address",
          "name": "from",
          "type": "address"
        },
        {
          "indexed": true,
          "internalType": "address",
          "name": "to",
          "type": "address"
        },
        {
          "indexed": false,
          "internalType": "uint256",
          "name": "value",
          "type": "uint256"
        }
      ],
      "name": "Transfer",
      "type": "event"
    },
    {
      "inputs": [
        {
          "internalType": "address",
          "name": "owner",
          "type": "address"
        },
        {
          "internalType": "address",
          "name": "spender",
          "type": "address"
        }
      ],
      "name": "allowance",
      "outputs": [
        {
          "internalType": "uint256",
          "name": "",
          "type": "uint256"
        }
      ],
      "stateMutability": "view",
      "type": "function"
    },
    {
      "inputs": [
        {
          "internalType": "address",
          "name": "spender",
          "type": "address"
        },
        {
          "internalType": "uint256",
          "name": "amount",
          "type": "uint256"
        }
      ],
      "name": "approve",
      "outputs": [
        {
          "internalType": "bool",
          "name": "",
          "type": "bool"
        }
      ],
      "stateMutability": "nonpayable",
      "type": "function"
    },
    {
      "inputs": [
        {
          "internalType": "address",
          "name": "account",
          "type": "address"
        }
      ],
      "name": "balanceOf",
      "outputs": [
        {
          "internalType": "uint256",
          "name": "",
          "type": "uint256"
        }
      ],
      "stateMutability": "view",
      "type": "function"
    },
    {
      "inputs": [],
      "name": "dealer",
      "outputs": [
        {
          "internalType": "address",
          "name": "",
          "type": "address"
        }
      ],
      "stateMutability": "view",
      "type": "function"
    },
    {
      "inputs": [],
      "name": "decimals",
      "outputs": [
        {
          "internalType": "uint8",
          "name": "",
          "type": "uint8"
        }
      ],
      "stateMutability": "view",
      "type": "function"
    },
    {
      "inputs": [
        {
          "internalType": "address",
          "name": "spender",
          "type": "address"
        },
        {
          "internalType": "uint256",
          "name": "subtractedValue",
          "type": "uint256"
        }
      ],
      "name": "decreaseAllowance",
      "outputs": [
        {
          "internalType": "bool",
          "name": "",
          "type": "bool"
        }
      ],
      "stateMutability": "nonpayable",
      "type": "function"
    },
    {
      "inputs": [
        {
          "internalType": "uint256",
          "name": "amount",
          "type": "uint256"
        }
      ],
      "name": "faucet",
      "outputs": [],
      "stateMutability": "nonpayable",
      "type": "function"
    },
    {
      "inputs": [
        {
          "internalType": "address",
          "name": "spender",
          "type": "address"
        },
        {
          "internalType": "uint256",
          "name": "addedValue",
          "type": "uint256"
        }
      ],
      "name": "increaseAllowance",
      "outputs": [
        {
          "internalType": "bool",
          "name": "",
          "type": "bool"
        }
      ],
      "stateMutability": "nonpayable",
      "type": "function"
    },
    {
      "inputs": [
        {
          "internalType": "uint256",
          "name": "amount",
          "type": "uint256"
        }
      ],
      "name": "mint",
      "outputs": [],
      "stateMutability": "nonpayable",
      "type": "function"
    },
    {
      "inputs": [],
      "name": "name",
      "outputs": [
        {
          "internalType": "string",
          "name": "",
          "type": "string"
        }
      ],
      "stateMutability": "view",
      "type": "function"
    },
    {
      "inputs": [
        {
          "internalType": "address",
          "name": "_dealer",
          "type": "address"
        }
      ],
      "name": "setDealer",
      "outputs": [],
      "stateMutability": "nonpayable",
      "type": "function"
    },
    {
      "inputs": [],
      "name": "symbol",
      "outputs": [
        {
          "internalType": "string",
          "name": "",
          "type": "string"
        }
      ],
      "stateMutability": "view",
      "type": "function"
    },
    {
      "inputs": [],
      "name": "totalSupply",
      "outputs": [
        {
          "internalType": "uint256",
          "name": "",
          "type": "uint256"
        }
      ],
      "stateMutability": "view",
      "type": "function"
    },
    {
      "inputs": [
        {
          "internalType": "address",
          "name": "to",
          "type": "address"
        },
        {
          "internalType": "uint256",
          "name": "amount",
          "type": "uint256"
        }
      ],
      "name": "transfer",
      "outputs": [
        {
          "internalType": "bool",
          "name": "",
          "type": "bool"
        }
      ],
      "stateMutability": "nonpayable",
      "type": "function"
    },
    {
      "inputs": [
        {
          "internalType": "address",
          "name": "from",
          "type": "address"
        },
        {
          "internalType": "address",
          "name": "to",
          "type": "address"
        },
        {
          "internalType": "uint256",
          "name": "amount",
          "type": "uint256"
        }
      ],
      "name": "transferFrom",
      "outputs": [
        {
          "internalType": "bool",
          "name": "",
          "type": "bool"
        }
      ],
      "stateMutability": "nonpayable",
      "type": "function"
    }
  ],
  "bytecode": {
    "object": "0x60806040526006805460ff60a01b191690553480156200001e57600080fd5b5060405180604001604052806009815260200168706f6c796c656d6d6160b81b81525060405180604001604052806003815260200162504c4d60e81b81525081600390816200006e91906200013d565b5060046200007d82826200013d565b5050600580546001600160a01b031916331790555062000209565b634e487b7160e01b600052604160045260246000fd5b600181811c90821680620000c357607f821691505b602082108103620000e457634e487b7160e01b600052602260045260246000fd5b50919050565b601f8211156200013857600081815260208120601f850160051c81016020861015620001135750805b601f850160051c820191505b8181101562000134578281556001016200011f565b5050505b505050565b81516001600160401b0381111562000159576200015962000098565b62000171816200016a8454620000ae565b84620000ea565b602080601f831160018114620001a95760008415620001905750858301515b600019600386901b1c1916600185901b17855562000134565b600085815260208120601f198616915b82811015620001da57888601518255948401946001909101908401620001b9565b5085821015620001f95787850151600019600388901b60f8161c191681555b5050505050600190811b01905550565b610b1580620002196000396000f3fe608060405234801561001057600080fd5b50600436106100f55760003560e01c80635791589711610097578063a0712d6811610066578063a0712d6814610206578063a457c2d714610219578063a9059cbb1461022c578063dd62ed3e1461023f57600080fd5b8063579158971461019757806370a08231146101aa57806395d89b41146101d35780639de2ee21146101db57600080fd5b80631e665f32116100d35780631e665f321461014d57806323b872dd14610162578063313ce56714610175578063395093511461018457600080fd5b806306fdde03146100fa578063095ea7b31461011857806318160ddd1461013b575b600080fd5b610102610252565b60405161010f9190610946565b60405180910390f35b61012b6101263660046109b0565b6102e4565b604051901515815260200161010f565b6002545b60405190815260200161010f565b61016061015b3660046109da565b6102fe565b005b61012b6101703660046109fc565b610384565b6040516012815260200161010f565b61012b6101923660046109b0565b6103a8565b6101606101a5366004610a38565b6103ca565b61013f6101b83660046109da565b6001600160a01b031660009081526020819052604090205490565b6101026103d7565b6006546101ee906001600160a01b031681565b6040516001600160a01b03909116815260200161010f565b610160610214366004610a38565b6103e6565b61012b6102273660046109b0565b610491565b61012b61023a3660046109b0565b61050c565b61013f61024d366004610a51565b61051a565b60606003805461026190610a84565b80601f016020809104026020016040519081016040528092919081815260200182805461028d90610a84565b80156102da5780601f106102af576101008083540402835291602001916102da565b820191906000526020600020905b8154815290600101906020018083116102bd57829003601f168201915b5050505050905090565b6000336102f2818585610545565b60019150505b92915050565b6005546001600160a01b0316331461035d5760405162461bcd60e51b815260206004820152601760248201527f73656e646572206973206e6f74206465706c6f7965722e00000000000000000060448201526064015b60405180910390fd5b600680546001600160a81b0319166001600160a01b0390921691909117600160a01b179055565b600033610392858285610669565b61039d8585856106e3565b506001949350505050565b6000336102f28185856103bb838361051a565b6103c59190610abe565b610545565b6103d43382610887565b50565b60606004805461026190610a84565b600654600160a01b900460ff1661043f5760405162461bcd60e51b815260206004820152601860248201527f6465616c657220686173206e6f74206265656e207365742e00000000000000006044820152606401610354565b6006546001600160a01b031633146103ca5760405162461bcd60e51b815260206004820152601560248201527439b2b73232b91034b9903737ba103232b0b632b91760591b6044820152606401610354565b6000338161049f828661051a565b9050838110156104ff5760405162461bcd60e51b815260206004820152602560248201527f45524332303a2064656372656173656420616c6c6f77616e63652062656c6f77604482015264207a65726f60d81b6064820152608401610354565b61039d8286868403610545565b6000336102f28185856106e3565b6001600160a01b03918216600090815260016020908152604080832093909416825291909152205490565b6001600160a01b0383166105a75760405162461bcd60e51b8152602060048201526024808201527f45524332303a20617070726f76652066726f6d20746865207a65726f206164646044820152637265737360e01b6064820152608401610354565b6001600160a01b0382166106085760405162461bcd60e51b815260206004820152602260248201527f45524332303a20617070726f766520746f20746865207a65726f206164647265604482015261737360f01b6064820152608401610354565b6001600160a01b0383811660008181526001602090815260408083209487168084529482529182902085905590518481527f8c5be1e5ebec7d5bd14f71427d1e84f3dd0314c0f7b2291e5b200ac8c7c3b925910160405180910390a3505050565b6000610675848461051a565b905060001981146106dd57818110156106d05760405162461bcd60e51b815260206004820152601d60248201527f45524332303a20696e73756666696369656e7420616c6c6f77616e63650000006044820152606401610354565b6106dd8484848403610545565b50505050565b6001600160a01b0383166107475760405162461bcd60e51b815260206004820152602560248201527f45524332303a207472616e736665722066726f6d20746865207a65726f206164604482015264647265737360d81b6064820152608401610354565b6001600160a01b0382166107a95760405162461bcd60e51b815260206004820152602360248201527f45524332303a207472616e7366657220746f20746865207a65726f206164647260448201526265737360e81b6064820152608401610354565b6001600160a01b038316600090815260208190526040902054818110156108215760405162461bcd60e51b815260206004820152602660248201527f45524332303a207472616e7366657220616d6f756e7420657863656564732062604482015265616c616e636560d01b6064820152608401610354565b6001600160a01b03848116600081815260208181526040808320878703905593871680835291849020805487019055925185815290927fddf252ad1be2c89b69c2b068fc378daa952ba7f163c4a11628f55a4df523b3ef910160405180910390a36106dd565b6001600160a01b0382166108dd5760405162461bcd60e51b815260206004820152601f60248201527f45524332303a206d696e7420746f20746865207a65726f2061646472657373006044820152606401610354565b80600260008282546108ef9190610abe565b90915550506001600160a01b038216600081815260208181526040808320805486019055518481527fddf252ad1be2c89b69c2b068fc378daa952ba7f163c4a11628f55a4df523b3ef910160405180910390a35050565b600060208083528351808285015260005b8181101561097357858101830151858201604001528201610957565b506000604082860101526040601f19601f8301168501019250505092915050565b80356001600160a01b03811681146109ab57600080fd5b919050565b600080604083850312156109c357600080fd5b6109cc83610994565b946020939093013593505050565b6000602082840312156109ec57600080fd5b6109f582610994565b9392505050565b600080600060608486031215610a1157600080fd5b610a1a84610994565b9250610a2860208501610994565b9150604084013590509250925092565b600060208284031215610a4a57600080fd5b5035919050565b60008060408385031215610a6457600080fd5b610a6d83610994565b9150610a7b60208401610994565b90509250929050565b600181811c90821680610a9857607f821691505b602082108103610ab857634e487b7160e01b600052602260045260246000fd5b50919050565b808201808211156102f857634e487b7160e01b600052601160045260246000fdfea2646970667358221220d51c3d2c9137fcaebc2ea1b4065c64a74cb978460c38d6c5518da617f134810e64736f6c63430008110033",
    "linkReferences": {}
  },
  "methodIdentifiers": {
    "allowance(address,address)": "dd62ed3e",
    "approve(address,uint256)": "095ea7b3",
    "balanceOf(address)": "70a08231",
    "dealer()": "9de2ee21",
    "decimals()": "313ce567",
    "decreaseAllowance(address,uint256)": "a457c2d7",
    "faucet(uint256)": "57915897",
    "increaseAllowance(address,uint256)": "39509351",
    "mint(uint256)": "a0712d68",
    "name()": "06fdde03",
    "setDealer(address)": "1e665f32",
    "symbol()": "95d89b41",
    "totalSupply()": "18160ddd",
    "transfer(address,uint256)": "a9059cbb",
    "transferFrom(address,address,uint256)": "23b872dd"
  },
  "id": 27
}